{
  "contractName": "Faucet",
  "abi": [
    {
      "inputs": [
        {
          "internalType": "address",
          "name": "admin",
          "type": "address"
        },
        {
          "internalType": "address",
          "name": "viellas",
          "type": "address"
        }
      ],
      "stateMutability": "nonpayable",
      "type": "constructor"
    },
    {
      "anonymous": false,
      "inputs": [
        {
          "indexed": true,
          "internalType": "bytes32",
          "name": "role",
          "type": "bytes32"
        },
        {
          "indexed": true,
          "internalType": "bytes32",
          "name": "previousAdminRole",
          "type": "bytes32"
        },
        {
          "indexed": true,
          "internalType": "bytes32",
          "name": "newAdminRole",
          "type": "bytes32"
        }
      ],
      "name": "RoleAdminChanged",
      "type": "event"
    },
    {
      "anonymous": false,
      "inputs": [
        {
          "indexed": true,
          "internalType": "bytes32",
          "name": "role",
          "type": "bytes32"
        },
        {
          "indexed": true,
          "internalType": "address",
          "name": "account",
          "type": "address"
        },
        {
          "indexed": true,
          "internalType": "address",
          "name": "sender",
          "type": "address"
        }
      ],
      "name": "RoleGranted",
      "type": "event"
    },
    {
      "anonymous": false,
      "inputs": [
        {
          "indexed": true,
          "internalType": "bytes32",
          "name": "role",
          "type": "bytes32"
        },
        {
          "indexed": true,
          "internalType": "address",
          "name": "account",
          "type": "address"
        },
        {
          "indexed": true,
          "internalType": "address",
          "name": "sender",
          "type": "address"
        }
      ],
      "name": "RoleRevoked",
      "type": "event"
    },
    {
      "stateMutability": "payable",
      "type": "fallback",
      "payable": true
    },
    {
      "inputs": [],
      "name": "DEFAULT_ADMIN_ROLE",
      "outputs": [
        {
          "internalType": "bytes32",
          "name": "",
          "type": "bytes32"
        }
      ],
      "stateMutability": "view",
      "type": "function",
      "constant": true
    },
    {
      "inputs": [
        {
          "internalType": "bytes32",
          "name": "role",
          "type": "bytes32"
        }
      ],
      "name": "getRoleAdmin",
      "outputs": [
        {
          "internalType": "bytes32",
          "name": "",
          "type": "bytes32"
        }
      ],
      "stateMutability": "view",
      "type": "function",
      "constant": true
    },
    {
      "inputs": [
        {
          "internalType": "bytes32",
          "name": "role",
          "type": "bytes32"
        },
        {
          "internalType": "uint256",
          "name": "index",
          "type": "uint256"
        }
      ],
      "name": "getRoleMember",
      "outputs": [
        {
          "internalType": "address",
          "name": "",
          "type": "address"
        }
      ],
      "stateMutability": "view",
      "type": "function",
      "constant": true
    },
    {
      "inputs": [
        {
          "internalType": "bytes32",
          "name": "role",
          "type": "bytes32"
        }
      ],
      "name": "getRoleMemberCount",
      "outputs": [
        {
          "internalType": "uint256",
          "name": "",
          "type": "uint256"
        }
      ],
      "stateMutability": "view",
      "type": "function",
      "constant": true
    },
    {
      "inputs": [
        {
          "internalType": "bytes32",
          "name": "role",
          "type": "bytes32"
        },
        {
          "internalType": "address",
          "name": "account",
          "type": "address"
        }
      ],
      "name": "grantRole",
      "outputs": [],
      "stateMutability": "nonpayable",
      "type": "function"
    },
    {
      "inputs": [
        {
          "internalType": "bytes32",
          "name": "role",
          "type": "bytes32"
        },
        {
          "internalType": "address",
          "name": "account",
          "type": "address"
        }
      ],
      "name": "hasRole",
      "outputs": [
        {
          "internalType": "bool",
          "name": "",
          "type": "bool"
        }
      ],
      "stateMutability": "view",
      "type": "function",
      "constant": true
    },
    {
      "inputs": [
        {
          "internalType": "bytes32",
          "name": "role",
          "type": "bytes32"
        },
        {
          "internalType": "address",
          "name": "account",
          "type": "address"
        }
      ],
      "name": "renounceRole",
      "outputs": [],
      "stateMutability": "nonpayable",
      "type": "function"
    },
    {
      "inputs": [
        {
          "internalType": "bytes32",
          "name": "role",
          "type": "bytes32"
        },
        {
          "internalType": "address",
          "name": "account",
          "type": "address"
        }
      ],
      "name": "revokeRole",
      "outputs": [],
      "stateMutability": "nonpayable",
      "type": "function"
    },
    {
      "inputs": [
        {
          "internalType": "bytes4",
          "name": "interfaceId",
          "type": "bytes4"
        }
      ],
      "name": "supportsInterface",
      "outputs": [
        {
          "internalType": "bool",
          "name": "",
          "type": "bool"
        }
      ],
      "stateMutability": "view",
      "type": "function",
      "constant": true
    },
    {
      "stateMutability": "payable",
      "type": "receive",
      "payable": true
    },
    {
      "inputs": [
        {
          "internalType": "address",
          "name": "newAdmin",
          "type": "address"
        }
      ],
      "name": "setAdmin",
      "outputs": [],
      "stateMutability": "nonpayable",
      "type": "function"
    },
    {
      "inputs": [
        {
          "internalType": "address",
          "name": "newAdmin",
          "type": "address"
        }
      ],
      "name": "unsetAdmin",
      "outputs": [],
      "stateMutability": "nonpayable",
      "type": "function"
    },
    {
      "inputs": [
        {
          "internalType": "address",
          "name": "token",
          "type": "address"
        }
      ],
      "name": "unsetOwner",
      "outputs": [],
      "stateMutability": "nonpayable",
      "type": "function"
    },
    {
      "inputs": [
        {
          "internalType": "address",
          "name": "token",
          "type": "address"
        },
        {
          "internalType": "uint256",
          "name": "amountForClaimers",
          "type": "uint256"
        },
        {
          "internalType": "uint256",
          "name": "_secs",
          "type": "uint256"
        }
      ],
      "name": "makeMeOwner",
      "outputs": [],
      "stateMutability": "payable",
      "type": "function",
      "payable": true
    },
    {
      "inputs": [
        {
          "internalType": "address",
          "name": "token",
          "type": "address"
        }
      ],
      "name": "claim",
      "outputs": [],
      "stateMutability": "nonpayable",
      "type": "function"
    },
    {
      "inputs": [
        {
          "internalType": "address",
          "name": "token",
          "type": "address"
        },
        {
          "internalType": "uint256",
          "name": "_amount",
          "type": "uint256"
        },
        {
          "internalType": "uint256",
          "name": "_secs",
          "type": "uint256"
        }
      ],
      "name": "setUpToken",
      "outputs": [],
      "stateMutability": "nonpayable",
      "type": "function"
    },
    {
      "inputs": [
        {
          "internalType": "address",
          "name": "token",
          "type": "address"
        }
      ],
      "name": "vaciarFaucet",
      "outputs": [],
      "stateMutability": "nonpayable",
      "type": "function"
    },
    {
      "inputs": [
        {
          "internalType": "address",
          "name": "token",
          "type": "address"
        }
      ],
      "name": "getExpiryOf",
      "outputs": [
        {
          "internalType": "uint256",
          "name": "",
          "type": "uint256"
        }
      ],
      "stateMutability": "view",
      "type": "function",
      "constant": true
    },
    {
      "inputs": [
        {
          "internalType": "address",
          "name": "token",
          "type": "address"
        }
      ],
      "name": "getOwnerOf",
      "outputs": [
        {
          "internalType": "address",
          "name": "",
          "type": "address"
        }
      ],
      "stateMutability": "view",
      "type": "function",
      "constant": true
    },
    {
      "inputs": [
        {
          "internalType": "address",
          "name": "token",
          "type": "address"
        }
      ],
      "name": "getAmountOf",
      "outputs": [
        {
          "internalType": "uint256",
          "name": "",
          "type": "uint256"
        }
      ],
      "stateMutability": "view",
      "type": "function",
      "constant": true
    },
    {
      "inputs": [
        {
          "internalType": "address",
          "name": "token",
          "type": "address"
        }
      ],
      "name": "getSecsOf",
      "outputs": [
        {
          "internalType": "uint256",
          "name": "",
          "type": "uint256"
        }
      ],
      "stateMutability": "view",
      "type": "function",
      "constant": true
    },
    {
      "inputs": [],
      "name": "getEthBalance",
      "outputs": [
        {
          "internalType": "uint256",
          "name": "",
          "type": "uint256"
        }
      ],
      "stateMutability": "view",
      "type": "function",
      "constant": true
    }
  ],
  "bytecode": "0x60806040523480156200001157600080fd5b50604051620018373803806200183783398101604081905262000034916200027f565b6200004a600083640100000000620000a0810204565b600160a060020a0390811660009081526003602090815260408083208054600160a060020a0319169590941694909417909255600482528281206102589055600590915220670de0b6b3a76400009055620002b6565b620000ba828264010000000062000b04620000e782021704565b6000828152600160205260409020620000e2908264010000000062000b126200010082021704565b505050565b620000fc828264010000000062000129810204565b5050565b60006200012083600160a060020a038416640100000000620001c5810204565b90505b92915050565b6200013e82826401000000006200021d810204565b620000fc57600082815260208181526040808320600160a060020a03851684529091529020805460ff191660011790556200018164010000000062000246810204565b600160a060020a031681600160a060020a0316837f2f8788117e7eff1d82e926ec794901d17c78024a50270940304540a733656f0d60405160405180910390a45050565b6000620001dc83836401000000006200024a810204565b620002145750815460018181018455600084815260208082209093018490558454848252828601909352604090209190915562000123565b50600062000123565b600091825260208281526040808420600160a060020a0393909316845291905290205460ff1690565b3390565b60009081526001919091016020526040902054151590565b8051600160a060020a03811681146200027a57600080fd5b919050565b6000806040838503121562000292578182fd5b6200029d8362000262565b9150620002ad6020840162000262565b90509250929050565b61157180620002c66000396000f3fe60806040526004361061013f576000357c010000000000000000000000000000000000000000000000000000000090048063908a7f02116100c2578063bd4972c311610089578063bd4972c314610386578063ca15c873146103bf578063d547741f146103df578063e8b2400c146103ff578063ee3c364014610435578063f7662f8e1461045557005b8063908a7f02146102ba57806391d14854146102fb57806398710fac1461031b578063a217fddf14610351578063a6312ab91461036657005b80634d253b50116101065780634d253b501461021b578063704b6c021461023b57806370ed0ada1461025b57806379c1e1191461026f5780639010d07c1461028257005b806301ffc9a7146101485780631e83409a1461017d578063248a9ca31461019d5780632f2ff15d146101db57806336568abe146101fb57005b3661014657005b005b34801561015457600080fd5b50610168610163366004611399565b610475565b60405190151581526020015b60405180910390f35b34801561018957600080fd5b506101466101983660046112c9565b6104b9565b3480156101a957600080fd5b506101cd6101b8366004611335565b60009081526020819052604090206001015490565b604051908152602001610174565b3480156101e757600080fd5b506101466101f636600461134d565b6105dc565b34801561020757600080fd5b5061014661021636600461134d565b610603565b34801561022757600080fd5b506101466102363660046112c9565b610625565b34801561024757600080fd5b506101466102563660046112c9565b610692565b34801561026757600080fd5b5030316101cd565b61014661027d3660046112e3565b6106f7565b34801561028e57600080fd5b506102a261029d366004611378565b6107b2565b604051600160a060020a039091168152602001610174565b3480156102c657600080fd5b506101cd6102d53660046112c9565b600160a060020a0316600090815260026020908152604080832033845290915290205490565b34801561030757600080fd5b5061016861031636600461134d565b6107d1565b34801561032757600080fd5b506101cd6103363660046112c9565b600160a060020a031660009081526004602052604090205490565b34801561035d57600080fd5b506101cd600081565b34801561037257600080fd5b506101466103813660046112c9565b6107fa565b34801561039257600080fd5b506102a26103a13660046112c9565b600160a060020a039081166000908152600360205260409020541690565b3480156103cb57600080fd5b506101cd6103da366004611335565b6108ac565b3480156103eb57600080fd5b506101466103fa36600461134d565b6108c3565b34801561040b57600080fd5b506101cd61041a3660046112c9565b600160a060020a031660009081526005602052604090205490565b34801561044157600080fd5b506101466104503660046112c9565b6108cd565b34801561046157600080fd5b506101466104703660046112e3565b610a6a565b6000600160e060020a031982167f5a05180f0000000000000000000000000000000000000000000000000000000014806104b357506104b382610b27565b92915050565b600160a060020a038116600090815260026020908152604080832033845290915290205442116104e857600080fd5b600160a060020a038116600081815260056020526040908190205490517fa9059cbb000000000000000000000000000000000000000000000000000000008152336004820152602481019190915263a9059cbb90604401602060405180830381600087803b15801561055957600080fd5b505af115801561056d573d6000803e3d6000fd5b505050506040513d601f19601f820116820180604052508101906105919190611315565b50600160a060020a0381166000908152600460205260409020546105b5904261148d565b600160a060020a039091166000908152600260209081526040808320338452909152902055565b6105e68282610b8e565b60008281526001602052604090206105fe9082610b12565b505050565b61060d8282610bb4565b60008281526001602052604090206105fe9082610c3f565b6106306000336107d1565b6106845760405160e560020a62461bcd02815260206004820152601260248201527f6f6e6c7941646d696e2066756e6374696f6e000000000000000000000000000060448201526064015b60405180910390fd5b61068f6000826108c3565b50565b61069d6000336107d1565b6106ec5760405160e560020a62461bcd02815260206004820152601260248201527f6f6e6c7941646d696e2066756e6374696f6e0000000000000000000000000000604482015260640161067b565b61068f600082610c54565b600160a060020a03808416600090815260036020526040902054849116156107645760405160e560020a62461bcd02815260206004820152601060248201527f6e6f4f776e65722066756e6374696f6e00000000000000000000000000000000604482015260640161067b565b50600160a060020a03929092166000908152600360209081526040808320805473ffffffffffffffffffffffffffffffffffffffff1916331790556005825280832093909355600490522055565b60008281526001602052604081206107ca9083610c5e565b9392505050565b600091825260208281526040808420600160a060020a0393909316845291905290205460ff1690565b6108056000336107d1565b806108295750600160a060020a038181166000908152600360205260409020541633145b6108785760405160e560020a62461bcd02815260206004820152601360248201527f4e6f742061646d696e206e6f72206f776e657200000000000000000000000000604482015260640161067b565b600160a060020a03166000908152600360205260409020805473ffffffffffffffffffffffffffffffffffffffff19169055565b60008181526001602052604081206104b390610c6a565b61060d8282610c74565b600160a060020a03808216600090815260036020526040902054829116331461093b5760405160e560020a62461bcd02815260206004820152601260248201527f6f6e6c794f776e65722066756e6374696f6e0000000000000000000000000000604482015260640161067b565b6040517f70a08231000000000000000000000000000000000000000000000000000000008152306004820152600160a060020a0383169063a9059cbb90339083906370a082319060240160206040518083038186803b15801561099d57600080fd5b505afa1580156109b1573d6000803e3d6000fd5b505050506040513d601f19601f820116820180604052508101906109d591906113c1565b6040517c010000000000000000000000000000000000000000000000000000000063ffffffff8516028152600160a060020a0390921660048301526024820152604401602060405180830381600087803b158015610a3257600080fd5b505af1158015610a46573d6000803e3d6000fd5b505050506040513d601f19601f820116820180604052508101906105fe9190611315565b600160a060020a038084166000908152600360205260409020548491163314610ad85760405160e560020a62461bcd02815260206004820152601260248201527f6f6e6c794f776e65722066756e6374696f6e0000000000000000000000000000604482015260640161067b565b50600160a060020a03909216600090815260046020908152604080832094909455600590529190912055565b610b0e8282610c9a565b5050565b60006107ca83600160a060020a038416610d1e565b6000600160e060020a031982167f7965db0b0000000000000000000000000000000000000000000000000000000014806104b357507f01ffc9a700000000000000000000000000000000000000000000000000000000600160e060020a03198316146104b3565b600082815260208190526040902060010154610baa8133610d6d565b6105fe8383610c9a565b600160a060020a0381163314610c355760405160e560020a62461bcd02815260206004820152602f60248201527f416363657373436f6e74726f6c3a2063616e206f6e6c792072656e6f756e636560448201527f20726f6c657320666f722073656c660000000000000000000000000000000000606482015260840161067b565b610b0e8282610dd4565b60006107ca83600160a060020a038416610e39565b6105e68282610b04565b60006107ca8383610f59565b60006104b3825490565b600082815260208190526040902060010154610c908133610d6d565b6105fe8383610dd4565b610ca482826107d1565b610b0e57600082815260208181526040808320600160a060020a03851684529091529020805460ff19166001179055610cda3390565b600160a060020a031681600160a060020a0316837f2f8788117e7eff1d82e926ec794901d17c78024a50270940304540a733656f0d60405160405180910390a45050565b6000818152600183016020526040812054610d65575081546001818101845560008481526020808220909301849055845484825282860190935260409020919091556104b3565b5060006104b3565b610d7782826107d1565b610b0e57610d8f81600160a060020a0316601461100e565b610d9a83602061100e565b604051602001610dab9291906113d9565b60408051601f198184030181529082905260e560020a62461bcd02825261067b9160040161145a565b610dde82826107d1565b15610b0e57600082815260208181526040808320600160a060020a0385168085529252808320805460ff1916905551339285917ff6391f5c32d9c69d2a47ea670b442974b53935d1edc7fd64eb21e047a839171b9190a45050565b60008181526001830160205260408120548015610f4f576000610e5d6001836114c4565b8554909150600090610e71906001906114c4565b90506000866000018281548110610e9b5760e060020a634e487b7102600052603260045260246000fd5b9060005260206000200154905080876000018481548110610ecf5760e060020a634e487b7102600052603260045260246000fd5b600091825260208083209091019290925582815260018901909152604090208490558654879080610f135760e060020a634e487b7102600052603160045260246000fd5b600190038181906000526020600020016000905590558660010160008781526020019081526020016000206000905560019450505050506104b3565b60009150506104b3565b81546000908210610fd55760405160e560020a62461bcd02815260206004820152602260248201527f456e756d657261626c655365743a20696e646578206f7574206f6620626f756e60448201527f6473000000000000000000000000000000000000000000000000000000000000606482015260840161067b565b826000018281548110610ffb5760e060020a634e487b7102600052603260045260246000fd5b9060005260206000200154905092915050565b6060600061101d8360026114a5565b61102890600261148d565b67ffffffffffffffff8111156110515760e060020a634e487b7102600052604160045260246000fd5b6040519080825280601f01601f19166020018201604052801561107b576020820181803683370190505b5090507f3000000000000000000000000000000000000000000000000000000000000000816000815181106110c35760e060020a634e487b7102600052603260045260246000fd5b60200101907effffffffffffffffffffffffffffffffffffffffffffffffffffffffffffff1916908160001a9053507f7800000000000000000000000000000000000000000000000000000000000000816001815181106111375760e060020a634e487b7102600052603260045260246000fd5b60200101907effffffffffffffffffffffffffffffffffffffffffffffffffffffffffffff1916908160001a90535060006111738460026114a5565b61117e90600161148d565b90505b600181111561125b577f303132333435363738396162636465660000000000000000000000000000000085600f16601081106111d05760e060020a634e487b7102600052603260045260246000fd5b1a7f0100000000000000000000000000000000000000000000000000000000000000028282815181106112165760e060020a634e487b7102600052603260045260246000fd5b60200101907effffffffffffffffffffffffffffffffffffffffffffffffffffffffffffff1916908160001a9053506010909404936112548161150b565b9050611181565b5083156107ca5760405160e560020a62461bcd02815260206004820181905260248201527f537472696e67733a20686578206c656e67746820696e73756666696369656e74604482015260640161067b565b8035600160a060020a03811681146112c457600080fd5b919050565b6000602082840312156112da578081fd5b6107ca826112ad565b6000806000606084860312156112f7578182fd5b611300846112ad565b95602085013595506040909401359392505050565b600060208284031215611326578081fd5b815180151581146107ca578182fd5b600060208284031215611346578081fd5b5035919050565b6000806040838503121561135f578182fd5b8235915061136f602084016112ad565b90509250929050565b6000806040838503121561138a578182fd5b50508035926020909101359150565b6000602082840312156113aa578081fd5b8135600160e060020a0319811681146107ca578182fd5b6000602082840312156113d2578081fd5b5051919050565b7f416363657373436f6e74726f6c3a206163636f756e74200000000000000000008152600083516114118160178501602088016114db565b7f206973206d697373696e6720726f6c6520000000000000000000000000000000601791840191820152835161144e8160288401602088016114db565b01602801949350505050565b60208152600082518060208401526114798160408501602087016114db565b601f01601f19169190910160400192915050565b600082198211156114a0576114a0611522565b500190565b60008160001904831182151516156114bf576114bf611522565b500290565b6000828210156114d6576114d6611522565b500390565b60005b838110156114f65781810151838201526020016114de565b83811115611505576000848401525b50505050565b60008161151a5761151a611522565b506000190190565b60e060020a634e487b7102600052601160045260246000fdfea2646970667358221220cbcf14b4c892e8250635a80f5c0cf7ef807fd5e7a74fe927cf5339f0ec442b3364736f6c63430008040033",
  "immutableReferences": {},
  "source": "// SPDX-License-Identifier: MIT\npragma solidity >=0.4.22 <0.9.0;\n\nimport \"@openzeppelin/contracts/token/ERC20/IERC20.sol\";\nimport \"@openzeppelin/contracts/access/AccessControlEnumerable.sol\";\n\ncontract Faucet is AccessControlEnumerable{\n  \n  mapping(address=>mapping(address=>uint)) expiryOf;\n  mapping(address=>address) owner;\n  mapping(address=>uint) secs;\n  mapping(address=>uint) amounts;\n\n  constructor(address admin, address viellas) {\n    _setupRole(DEFAULT_ADMIN_ROLE, admin);\n    owner[viellas] = admin;\n    secs[viellas] = 600;\n    amounts[viellas] = 1 ether; \n  }\n\n  modifier onlyAdmin(){\n    require(hasRole(DEFAULT_ADMIN_ROLE, _msgSender()), \"onlyAdmin function\");\n    _;\n  }\n  modifier onlyOwner(address token){\n    require(owner[token] == _msgSender(), \"onlyOwner function\");\n    _;\n  }\n  modifier noOwner(address token){\n    require(owner[token] == address(0), \"noOwner function\");\n    _;\n  }\n  \n  function setAdmin(address newAdmin) external onlyAdmin{\n    _setupRole(DEFAULT_ADMIN_ROLE, newAdmin);    //me da out of gas\n  }\n  function unsetAdmin(address newAdmin) external onlyAdmin{\n    revokeRole(DEFAULT_ADMIN_ROLE, newAdmin);\n  }\n  function unsetOwner(address token) external {\n    require(hasRole(DEFAULT_ADMIN_ROLE, _msgSender()) || _msgSender() == owner[token], \"Not admin nor owner\");\n    owner[token] = address(0);\n  }\n\n\n  function makeMeOwner(address token, uint amountForClaimers, uint _secs) external payable noOwner(token){\n    owner[token] = _msgSender();\n    amounts[token] = amountForClaimers;\n    secs[token] = _secs;\n  }\n\n  function claim(address token) external{\n    require(expiryOf[token][msg.sender] < block.timestamp);\n\n    IERC20(token).transfer(msg.sender, amounts[token]);\n\n    expiryOf[token][msg.sender] = block.timestamp + secs[token];\n  }\n\n  function setUpToken(address token, uint _amount, uint _secs) external onlyOwner(token){\n    secs[token] = _secs;\n    amounts[token] = _amount;\n  }\n\n  function vaciarFaucet(address token) external onlyOwner(token){\n    IERC20(token).transfer(msg.sender, IERC20(token).balanceOf(address(this)));\n  }\n\n  receive() external payable{}\n  fallback() external payable{}\n\n  function getExpiryOf(address token) external view returns(uint){\n    return expiryOf[token][msg.sender];\n  }\n\n  function getOwnerOf(address token) external view returns(address){\n    return owner[token];\n  }\n  function getAmountOf(address token) external view returns(uint){\n    return amounts[token];\n  }\n  function getSecsOf(address token) external view returns(uint){\n    return secs[token];\n  }\n  function getEthBalance() external view returns(uint){\n    return address(this).balance;\n  }\n}\n",
  "sourcePath": "/Users/guillermo/Projects/crypto/tuviella-contract/contracts/Faucet.sol",
  "compiler": {
    "name": "solc",
    "version": "0.8.4+commit.c7e474f2.Emscripten.clang"
  },
  "schemaVersion": "3.4.1",
  "updatedAt": "2021-07-22T19:57:21.406Z",
  "networkType": "ethereum",
  "devdoc": {
    "kind": "dev",
    "methods": {
      "getRoleAdmin(bytes32)": {
        "details": "Returns the admin role that controls `role`. See {grantRole} and {revokeRole}. To change a role's admin, use {_setRoleAdmin}."
      },
      "getRoleMember(bytes32,uint256)": {
        "details": "Returns one of the accounts that have `role`. `index` must be a value between 0 and {getRoleMemberCount}, non-inclusive. Role bearers are not sorted in any particular way, and their ordering may change at any point. WARNING: When using {getRoleMember} and {getRoleMemberCount}, make sure you perform all queries on the same block. See the following https://forum.openzeppelin.com/t/iterating-over-elements-on-enumerableset-in-openzeppelin-contracts/2296[forum post] for more information."
      },
      "getRoleMemberCount(bytes32)": {
        "details": "Returns the number of accounts that have `role`. Can be used together with {getRoleMember} to enumerate all bearers of a role."
      },
      "grantRole(bytes32,address)": {
        "details": "Overload {grantRole} to track enumerable memberships"
      },
      "hasRole(bytes32,address)": {
        "details": "Returns `true` if `account` has been granted `role`."
      },
      "renounceRole(bytes32,address)": {
        "details": "Overload {renounceRole} to track enumerable memberships"
      },
      "revokeRole(bytes32,address)": {
        "details": "Overload {revokeRole} to track enumerable memberships"
      },
      "supportsInterface(bytes4)": {
        "details": "See {IERC165-supportsInterface}."
      }
    },
    "version": 1
  },
  "userdoc": {
    "kind": "user",
    "methods": {},
    "version": 1
  }
}