{
  "contractName": "Faucet",
  "abi": [
    {
      "inputs": [
        {
          "internalType": "address",
          "name": "admin",
          "type": "address"
        }
      ],
      "stateMutability": "nonpayable",
      "type": "constructor"
    },
    {
      "anonymous": false,
      "inputs": [
        {
          "indexed": true,
          "internalType": "bytes32",
          "name": "role",
          "type": "bytes32"
        },
        {
          "indexed": true,
          "internalType": "bytes32",
          "name": "previousAdminRole",
          "type": "bytes32"
        },
        {
          "indexed": true,
          "internalType": "bytes32",
          "name": "newAdminRole",
          "type": "bytes32"
        }
      ],
      "name": "RoleAdminChanged",
      "type": "event"
    },
    {
      "anonymous": false,
      "inputs": [
        {
          "indexed": true,
          "internalType": "bytes32",
          "name": "role",
          "type": "bytes32"
        },
        {
          "indexed": true,
          "internalType": "address",
          "name": "account",
          "type": "address"
        },
        {
          "indexed": true,
          "internalType": "address",
          "name": "sender",
          "type": "address"
        }
      ],
      "name": "RoleGranted",
      "type": "event"
    },
    {
      "anonymous": false,
      "inputs": [
        {
          "indexed": true,
          "internalType": "bytes32",
          "name": "role",
          "type": "bytes32"
        },
        {
          "indexed": true,
          "internalType": "address",
          "name": "account",
          "type": "address"
        },
        {
          "indexed": true,
          "internalType": "address",
          "name": "sender",
          "type": "address"
        }
      ],
      "name": "RoleRevoked",
      "type": "event"
    },
    {
      "stateMutability": "payable",
      "type": "fallback"
    },
    {
      "inputs": [],
      "name": "DEFAULT_ADMIN_ROLE",
      "outputs": [
        {
          "internalType": "bytes32",
          "name": "",
          "type": "bytes32"
        }
      ],
      "stateMutability": "view",
      "type": "function"
    },
    {
      "inputs": [
        {
          "internalType": "bytes32",
          "name": "role",
          "type": "bytes32"
        }
      ],
      "name": "getRoleAdmin",
      "outputs": [
        {
          "internalType": "bytes32",
          "name": "",
          "type": "bytes32"
        }
      ],
      "stateMutability": "view",
      "type": "function"
    },
    {
      "inputs": [
        {
          "internalType": "bytes32",
          "name": "role",
          "type": "bytes32"
        },
        {
          "internalType": "uint256",
          "name": "index",
          "type": "uint256"
        }
      ],
      "name": "getRoleMember",
      "outputs": [
        {
          "internalType": "address",
          "name": "",
          "type": "address"
        }
      ],
      "stateMutability": "view",
      "type": "function"
    },
    {
      "inputs": [
        {
          "internalType": "bytes32",
          "name": "role",
          "type": "bytes32"
        }
      ],
      "name": "getRoleMemberCount",
      "outputs": [
        {
          "internalType": "uint256",
          "name": "",
          "type": "uint256"
        }
      ],
      "stateMutability": "view",
      "type": "function"
    },
    {
      "inputs": [
        {
          "internalType": "bytes32",
          "name": "role",
          "type": "bytes32"
        },
        {
          "internalType": "address",
          "name": "account",
          "type": "address"
        }
      ],
      "name": "grantRole",
      "outputs": [],
      "stateMutability": "nonpayable",
      "type": "function"
    },
    {
      "inputs": [
        {
          "internalType": "bytes32",
          "name": "role",
          "type": "bytes32"
        },
        {
          "internalType": "address",
          "name": "account",
          "type": "address"
        }
      ],
      "name": "hasRole",
      "outputs": [
        {
          "internalType": "bool",
          "name": "",
          "type": "bool"
        }
      ],
      "stateMutability": "view",
      "type": "function"
    },
    {
      "inputs": [
        {
          "internalType": "bytes32",
          "name": "role",
          "type": "bytes32"
        },
        {
          "internalType": "address",
          "name": "account",
          "type": "address"
        }
      ],
      "name": "renounceRole",
      "outputs": [],
      "stateMutability": "nonpayable",
      "type": "function"
    },
    {
      "inputs": [
        {
          "internalType": "bytes32",
          "name": "role",
          "type": "bytes32"
        },
        {
          "internalType": "address",
          "name": "account",
          "type": "address"
        }
      ],
      "name": "revokeRole",
      "outputs": [],
      "stateMutability": "nonpayable",
      "type": "function"
    },
    {
      "inputs": [
        {
          "internalType": "bytes4",
          "name": "interfaceId",
          "type": "bytes4"
        }
      ],
      "name": "supportsInterface",
      "outputs": [
        {
          "internalType": "bool",
          "name": "",
          "type": "bool"
        }
      ],
      "stateMutability": "view",
      "type": "function"
    },
    {
      "stateMutability": "payable",
      "type": "receive"
    },
    {
      "inputs": [
        {
          "internalType": "address",
          "name": "newAdmin",
          "type": "address"
        }
      ],
      "name": "setAdmin",
      "outputs": [],
      "stateMutability": "nonpayable",
      "type": "function"
    },
    {
      "inputs": [
        {
          "internalType": "address",
          "name": "newAdmin",
          "type": "address"
        }
      ],
      "name": "unsetAdmin",
      "outputs": [],
      "stateMutability": "nonpayable",
      "type": "function"
    },
    {
      "inputs": [
        {
          "internalType": "address",
          "name": "token",
          "type": "address"
        }
      ],
      "name": "unsetOwner",
      "outputs": [],
      "stateMutability": "nonpayable",
      "type": "function"
    },
    {
      "inputs": [
        {
          "internalType": "address",
          "name": "token",
          "type": "address"
        },
        {
          "internalType": "uint256",
          "name": "amountForClaimers",
          "type": "uint256"
        },
        {
          "internalType": "uint256",
          "name": "_secs",
          "type": "uint256"
        }
      ],
      "name": "makeMeOwner",
      "outputs": [],
      "stateMutability": "payable",
      "type": "function"
    },
    {
      "inputs": [
        {
          "internalType": "address",
          "name": "token",
          "type": "address"
        }
      ],
      "name": "claim",
      "outputs": [],
      "stateMutability": "nonpayable",
      "type": "function"
    },
    {
      "inputs": [
        {
          "internalType": "address",
          "name": "token",
          "type": "address"
        },
        {
          "internalType": "uint256",
          "name": "_amount",
          "type": "uint256"
        },
        {
          "internalType": "uint256",
          "name": "_secs",
          "type": "uint256"
        }
      ],
      "name": "setUpToken",
      "outputs": [],
      "stateMutability": "nonpayable",
      "type": "function"
    },
    {
      "inputs": [
        {
          "internalType": "address",
          "name": "token",
          "type": "address"
        }
      ],
      "name": "vaciarFaucet",
      "outputs": [],
      "stateMutability": "nonpayable",
      "type": "function"
    },
    {
      "inputs": [
        {
          "internalType": "address",
          "name": "token",
          "type": "address"
        }
      ],
      "name": "getOwnerOf",
      "outputs": [
        {
          "internalType": "address",
          "name": "",
          "type": "address"
        }
      ],
      "stateMutability": "view",
      "type": "function"
    },
    {
      "inputs": [
        {
          "internalType": "address",
          "name": "token",
          "type": "address"
        }
      ],
      "name": "getAmountOf",
      "outputs": [
        {
          "internalType": "uint256",
          "name": "",
          "type": "uint256"
        }
      ],
      "stateMutability": "view",
      "type": "function"
    },
    {
      "inputs": [
        {
          "internalType": "address",
          "name": "token",
          "type": "address"
        }
      ],
      "name": "getSecsOf",
      "outputs": [
        {
          "internalType": "uint256",
          "name": "",
          "type": "uint256"
        }
      ],
      "stateMutability": "view",
      "type": "function"
    },
    {
      "inputs": [],
      "name": "getEthBalance",
      "outputs": [
        {
          "internalType": "uint256",
          "name": "",
          "type": "uint256"
        }
      ],
      "stateMutability": "view",
      "type": "function"
    }
  ],
  "bytecode": "0x60806040523480156200001157600080fd5b506040516200177838038062001778833981016040819052620000349162000213565b6200004a60008264010000000062000051810204565b5062000243565b6200006b828264010000000062000ab86200009882021704565b600082815260016020526040902062000093908264010000000062000ac6620000b182021704565b505050565b620000ad8282640100000000620000da810204565b5050565b6000620000d183600160a060020a03841664010000000062000176810204565b90505b92915050565b620000ef8282640100000000620001ce810204565b620000ad57600082815260208181526040808320600160a060020a03851684529091529020805460ff1916600117905562000132640100000000620001f7810204565b600160a060020a031681600160a060020a0316837f2f8788117e7eff1d82e926ec794901d17c78024a50270940304540a733656f0d60405160405180910390a45050565b60006200018d8383640100000000620001fb810204565b620001c557508154600181810184556000848152602080822090930184905584548482528286019093526040902091909155620000d4565b506000620000d4565b600091825260208281526040808420600160a060020a0393909316845291905290205460ff1690565b3390565b60009081526001919091016020526040902054151590565b60006020828403121562000225578081fd5b8151600160a060020a03811681146200023c578182fd5b9392505050565b61152580620002536000396000f3fe608060405260043610610134576000357c01000000000000000000000000000000000000000000000000000000009004806391d14854116100b7578063ca15c8731161007e578063ca15c87314610373578063d547741f14610393578063e8b2400c146103b3578063ee3c3640146103e9578063f7662f8e1461040957005b806391d14854146102af57806398710fac146102cf578063a217fddf14610305578063a6312ab91461031a578063bd4972c31461033a57005b80634d253b50116100fb5780634d253b5014610210578063704b6c021461023057806370ed0ada1461025057806379c1e119146102645780639010d07c1461027757005b806301ffc9a71461013d5780631e83409a14610172578063248a9ca3146101925780632f2ff15d146101d057806336568abe146101f057005b3661013b57005b005b34801561014957600080fd5b5061015d61015836600461134d565b610429565b60405190151581526020015b60405180910390f35b34801561017e57600080fd5b5061013b61018d36600461127d565b61046d565b34801561019e57600080fd5b506101c26101ad3660046112e9565b60009081526020819052604090206001015490565b604051908152602001610169565b3480156101dc57600080fd5b5061013b6101eb366004611301565b610590565b3480156101fc57600080fd5b5061013b61020b366004611301565b6105b7565b34801561021c57600080fd5b5061013b61022b36600461127d565b6105d9565b34801561023c57600080fd5b5061013b61024b36600461127d565b610646565b34801561025c57600080fd5b5030316101c2565b61013b610272366004611297565b6106ab565b34801561028357600080fd5b5061029761029236600461132c565b610766565b604051600160a060020a039091168152602001610169565b3480156102bb57600080fd5b5061015d6102ca366004611301565b610785565b3480156102db57600080fd5b506101c26102ea36600461127d565b600160a060020a031660009081526004602052604090205490565b34801561031157600080fd5b506101c2600081565b34801561032657600080fd5b5061013b61033536600461127d565b6107ae565b34801561034657600080fd5b5061029761035536600461127d565b600160a060020a039081166000908152600360205260409020541690565b34801561037f57600080fd5b506101c261038e3660046112e9565b610860565b34801561039f57600080fd5b5061013b6103ae366004611301565b610877565b3480156103bf57600080fd5b506101c26103ce36600461127d565b600160a060020a031660009081526005602052604090205490565b3480156103f557600080fd5b5061013b61040436600461127d565b610881565b34801561041557600080fd5b5061013b610424366004611297565b610a1e565b6000600160e060020a031982167f5a05180f000000000000000000000000000000000000000000000000000000001480610467575061046782610adb565b92915050565b600160a060020a0381166000908152600260209081526040808320338452909152902054421161049c57600080fd5b600160a060020a038116600081815260056020526040908190205490517fa9059cbb000000000000000000000000000000000000000000000000000000008152336004820152602481019190915263a9059cbb90604401602060405180830381600087803b15801561050d57600080fd5b505af1158015610521573d6000803e3d6000fd5b505050506040513d601f19601f8201168201806040525081019061054591906112c9565b50600160a060020a0381166000908152600460205260409020546105699042611441565b600160a060020a039091166000908152600260209081526040808320338452909152902055565b61059a8282610b42565b60008281526001602052604090206105b29082610ac6565b505050565b6105c18282610b68565b60008281526001602052604090206105b29082610bf3565b6105e4600033610785565b6106385760405160e560020a62461bcd02815260206004820152601260248201527f6f6e6c7941646d696e2066756e6374696f6e000000000000000000000000000060448201526064015b60405180910390fd5b610643600082610877565b50565b610651600033610785565b6106a05760405160e560020a62461bcd02815260206004820152601260248201527f6f6e6c7941646d696e2066756e6374696f6e0000000000000000000000000000604482015260640161062f565b610643600082610c08565b600160a060020a03808416600090815260036020526040902054849116156107185760405160e560020a62461bcd02815260206004820152601060248201527f6e6f4f776e65722066756e6374696f6e00000000000000000000000000000000604482015260640161062f565b50600160a060020a03929092166000908152600360209081526040808320805473ffffffffffffffffffffffffffffffffffffffff1916331790556005825280832093909355600490522055565b600082815260016020526040812061077e9083610c12565b9392505050565b600091825260208281526040808420600160a060020a0393909316845291905290205460ff1690565b6107b9600033610785565b806107dd5750600160a060020a038181166000908152600360205260409020541633145b61082c5760405160e560020a62461bcd02815260206004820152601360248201527f4e6f742061646d696e206e6f72206f776e657200000000000000000000000000604482015260640161062f565b600160a060020a03166000908152600360205260409020805473ffffffffffffffffffffffffffffffffffffffff19169055565b600081815260016020526040812061046790610c1e565b6105c18282610c28565b600160a060020a0380821660009081526003602052604090205482911633146108ef5760405160e560020a62461bcd02815260206004820152601260248201527f6f6e6c794f776e65722066756e6374696f6e0000000000000000000000000000604482015260640161062f565b6040517f70a08231000000000000000000000000000000000000000000000000000000008152306004820152600160a060020a0383169063a9059cbb90339083906370a082319060240160206040518083038186803b15801561095157600080fd5b505afa158015610965573d6000803e3d6000fd5b505050506040513d601f19601f820116820180604052508101906109899190611375565b6040517c010000000000000000000000000000000000000000000000000000000063ffffffff8516028152600160a060020a0390921660048301526024820152604401602060405180830381600087803b1580156109e657600080fd5b505af11580156109fa573d6000803e3d6000fd5b505050506040513d601f19601f820116820180604052508101906105b291906112c9565b600160a060020a038084166000908152600360205260409020548491163314610a8c5760405160e560020a62461bcd02815260206004820152601260248201527f6f6e6c794f776e65722066756e6374696f6e0000000000000000000000000000604482015260640161062f565b50600160a060020a03909216600090815260046020908152604080832094909455600590529190912055565b610ac28282610c4e565b5050565b600061077e83600160a060020a038416610cd2565b6000600160e060020a031982167f7965db0b00000000000000000000000000000000000000000000000000000000148061046757507f01ffc9a700000000000000000000000000000000000000000000000000000000600160e060020a0319831614610467565b600082815260208190526040902060010154610b5e8133610d21565b6105b28383610c4e565b600160a060020a0381163314610be95760405160e560020a62461bcd02815260206004820152602f60248201527f416363657373436f6e74726f6c3a2063616e206f6e6c792072656e6f756e636560448201527f20726f6c657320666f722073656c660000000000000000000000000000000000606482015260840161062f565b610ac28282610d88565b600061077e83600160a060020a038416610ded565b61059a8282610ab8565b600061077e8383610f0d565b6000610467825490565b600082815260208190526040902060010154610c448133610d21565b6105b28383610d88565b610c588282610785565b610ac257600082815260208181526040808320600160a060020a03851684529091529020805460ff19166001179055610c8e3390565b600160a060020a031681600160a060020a0316837f2f8788117e7eff1d82e926ec794901d17c78024a50270940304540a733656f0d60405160405180910390a45050565b6000818152600183016020526040812054610d1957508154600181810184556000848152602080822090930184905584548482528286019093526040902091909155610467565b506000610467565b610d2b8282610785565b610ac257610d4381600160a060020a03166014610fc2565b610d4e836020610fc2565b604051602001610d5f92919061138d565b60408051601f198184030181529082905260e560020a62461bcd02825261062f9160040161140e565b610d928282610785565b15610ac257600082815260208181526040808320600160a060020a0385168085529252808320805460ff1916905551339285917ff6391f5c32d9c69d2a47ea670b442974b53935d1edc7fd64eb21e047a839171b9190a45050565b60008181526001830160205260408120548015610f03576000610e11600183611478565b8554909150600090610e2590600190611478565b90506000866000018281548110610e4f5760e060020a634e487b7102600052603260045260246000fd5b9060005260206000200154905080876000018481548110610e835760e060020a634e487b7102600052603260045260246000fd5b600091825260208083209091019290925582815260018901909152604090208490558654879080610ec75760e060020a634e487b7102600052603160045260246000fd5b60019003818190600052602060002001600090559055866001016000878152602001908152602001600020600090556001945050505050610467565b6000915050610467565b81546000908210610f895760405160e560020a62461bcd02815260206004820152602260248201527f456e756d657261626c655365743a20696e646578206f7574206f6620626f756e60448201527f6473000000000000000000000000000000000000000000000000000000000000606482015260840161062f565b826000018281548110610faf5760e060020a634e487b7102600052603260045260246000fd5b9060005260206000200154905092915050565b60606000610fd1836002611459565b610fdc906002611441565b67ffffffffffffffff8111156110055760e060020a634e487b7102600052604160045260246000fd5b6040519080825280601f01601f19166020018201604052801561102f576020820181803683370190505b5090507f3000000000000000000000000000000000000000000000000000000000000000816000815181106110775760e060020a634e487b7102600052603260045260246000fd5b60200101907effffffffffffffffffffffffffffffffffffffffffffffffffffffffffffff1916908160001a9053507f7800000000000000000000000000000000000000000000000000000000000000816001815181106110eb5760e060020a634e487b7102600052603260045260246000fd5b60200101907effffffffffffffffffffffffffffffffffffffffffffffffffffffffffffff1916908160001a9053506000611127846002611459565b611132906001611441565b90505b600181111561120f577f303132333435363738396162636465660000000000000000000000000000000085600f16601081106111845760e060020a634e487b7102600052603260045260246000fd5b1a7f0100000000000000000000000000000000000000000000000000000000000000028282815181106111ca5760e060020a634e487b7102600052603260045260246000fd5b60200101907effffffffffffffffffffffffffffffffffffffffffffffffffffffffffffff1916908160001a905350601090940493611208816114bf565b9050611135565b50831561077e5760405160e560020a62461bcd02815260206004820181905260248201527f537472696e67733a20686578206c656e67746820696e73756666696369656e74604482015260640161062f565b8035600160a060020a038116811461127857600080fd5b919050565b60006020828403121561128e578081fd5b61077e82611261565b6000806000606084860312156112ab578182fd5b6112b484611261565b95602085013595506040909401359392505050565b6000602082840312156112da578081fd5b8151801515811461077e578182fd5b6000602082840312156112fa578081fd5b5035919050565b60008060408385031215611313578182fd5b8235915061132360208401611261565b90509250929050565b6000806040838503121561133e578182fd5b50508035926020909101359150565b60006020828403121561135e578081fd5b8135600160e060020a03198116811461077e578182fd5b600060208284031215611386578081fd5b5051919050565b7f416363657373436f6e74726f6c3a206163636f756e74200000000000000000008152600083516113c581601785016020880161148f565b7f206973206d697373696e6720726f6c6520000000000000000000000000000000601791840191820152835161140281602884016020880161148f565b01602801949350505050565b602081526000825180602084015261142d81604085016020870161148f565b601f01601f19169190910160400192915050565b60008219821115611454576114546114d6565b500190565b6000816000190483118215151615611473576114736114d6565b500290565b60008282101561148a5761148a6114d6565b500390565b60005b838110156114aa578181015183820152602001611492565b838111156114b9576000848401525b50505050565b6000816114ce576114ce6114d6565b506000190190565b60e060020a634e487b7102600052601160045260246000fdfea26469706673582212203707c00a060b6552d53cc93608b317a8f4535ee705defccf7e0eb98c6903115c64736f6c63430008040033",
  "immutableReferences": {},
  "source": "// SPDX-License-Identifier: MIT\npragma solidity >=0.4.22 <0.9.0;\n\nimport \"@openzeppelin/contracts/token/ERC20/IERC20.sol\";\nimport \"@openzeppelin/contracts/access/AccessControlEnumerable.sol\";\n//import \"https://github.com/OpenZeppelin/openzeppelin-contracts/blob/master/contracts/token/ERC20/IERC20.sol\";\n//import \"https://github.com/OpenZeppelin/openzeppelin-contracts/blob/v4.2.0/contracts/access/AccessControlEnumerable.sol\";\n\ncontract Faucet is AccessControlEnumerable{\n  \n  mapping(address=>mapping(address=>uint)) expiryOf;\n  mapping(address=>address) owner;\n  mapping(address=>uint) secs;\n  mapping(address=>uint) amounts;\n\n  constructor(address admin) {\n    _setupRole(DEFAULT_ADMIN_ROLE, admin);\n  }\n\n  modifier onlyAdmin(){\n    require(hasRole(DEFAULT_ADMIN_ROLE, _msgSender()), \"onlyAdmin function\");\n    _;\n  }\n  modifier onlyOwner(address token){\n    require(owner[token] == _msgSender(), \"onlyOwner function\");\n    _;\n  }\n  modifier noOwner(address token){\n    require(owner[token] == address(0), \"noOwner function\");\n    _;\n  }\n  \n  function setAdmin(address newAdmin) external onlyAdmin{\n    _setupRole(DEFAULT_ADMIN_ROLE, newAdmin);    //me da out of gas\n  }\n  function unsetAdmin(address newAdmin) external onlyAdmin{\n    revokeRole(DEFAULT_ADMIN_ROLE, newAdmin);\n  }\n  function unsetOwner(address token) external {\n    require(hasRole(DEFAULT_ADMIN_ROLE, _msgSender()) || _msgSender() == owner[token], \"Not admin nor owner\");\n    owner[token] = address(0);\n  }\n\n\n  function makeMeOwner(address token, uint amountForClaimers, uint _secs) external payable noOwner(token){\n    owner[token] = _msgSender();\n    amounts[token] = amountForClaimers;\n    secs[token] = _secs;\n  }\n\n  function claim(address token) external{\n    require(expiryOf[token][msg.sender] < block.timestamp);\n\n    IERC20(token).transfer(msg.sender, amounts[token]);\n\n    expiryOf[token][msg.sender] = block.timestamp + secs[token];\n  }\n\n  function setUpToken(address token, uint _amount, uint _secs) external onlyOwner(token){\n    secs[token] = _secs;\n    amounts[token] = _amount;\n  }\n\n  function vaciarFaucet(address token) external onlyOwner(token){\n    IERC20(token).transfer(msg.sender, IERC20(token).balanceOf(address(this)));\n  }\n\n  receive() external payable{}\n  fallback() external payable{}\n\n  function getOwnerOf(address token) external view returns(address){\n    return owner[token];\n  }\n  function getAmountOf(address token) external view returns(uint){\n    return amounts[token];\n  }\n  function getSecsOf(address token) external view returns(uint){\n    return secs[token];\n  }\n  function getEthBalance() external view returns(uint){\n    return address(this).balance;\n  }\n}\n",
  "sourcePath": "/Users/guillermo/Projects/crypto/tuviella-contract/contracts/Faucet.sol",
  "compiler": {
    "name": "solc",
    "version": "0.8.4+commit.c7e474f2.Emscripten.clang"
  },
  "schemaVersion": "3.4.1",
  "updatedAt": "2021-07-21T18:10:27.743Z",
  "devdoc": {
    "kind": "dev",
    "methods": {
      "getRoleAdmin(bytes32)": {
        "details": "Returns the admin role that controls `role`. See {grantRole} and {revokeRole}. To change a role's admin, use {_setRoleAdmin}."
      },
      "getRoleMember(bytes32,uint256)": {
        "details": "Returns one of the accounts that have `role`. `index` must be a value between 0 and {getRoleMemberCount}, non-inclusive. Role bearers are not sorted in any particular way, and their ordering may change at any point. WARNING: When using {getRoleMember} and {getRoleMemberCount}, make sure you perform all queries on the same block. See the following https://forum.openzeppelin.com/t/iterating-over-elements-on-enumerableset-in-openzeppelin-contracts/2296[forum post] for more information."
      },
      "getRoleMemberCount(bytes32)": {
        "details": "Returns the number of accounts that have `role`. Can be used together with {getRoleMember} to enumerate all bearers of a role."
      },
      "grantRole(bytes32,address)": {
        "details": "Overload {grantRole} to track enumerable memberships"
      },
      "hasRole(bytes32,address)": {
        "details": "Returns `true` if `account` has been granted `role`."
      },
      "renounceRole(bytes32,address)": {
        "details": "Overload {renounceRole} to track enumerable memberships"
      },
      "revokeRole(bytes32,address)": {
        "details": "Overload {revokeRole} to track enumerable memberships"
      },
      "supportsInterface(bytes4)": {
        "details": "See {IERC165-supportsInterface}."
      }
    },
    "version": 1
  },
  "userdoc": {
    "kind": "user",
    "methods": {},
    "version": 1
  }
}