{
  "contractName": "Staking",
  "abi": [
    {
      "inputs": [
        {
          "internalType": "contract TuviellaToken",
          "name": "_viellas",
          "type": "address"
        },
        {
          "internalType": "address",
          "name": "_devaddr",
          "type": "address"
        },
        {
          "internalType": "address",
          "name": "_devSetter",
          "type": "address"
        },
        {
          "internalType": "uint256",
          "name": "_viellasPerBlock",
          "type": "uint256"
        },
        {
          "internalType": "uint256",
          "name": "_startBlock",
          "type": "uint256"
        }
      ],
      "stateMutability": "nonpayable",
      "type": "constructor"
    },
    {
      "anonymous": false,
      "inputs": [
        {
          "indexed": true,
          "internalType": "address",
          "name": "user",
          "type": "address"
        },
        {
          "indexed": true,
          "internalType": "uint256",
          "name": "pid",
          "type": "uint256"
        },
        {
          "indexed": false,
          "internalType": "uint256",
          "name": "amount",
          "type": "uint256"
        }
      ],
      "name": "Deposit",
      "type": "event"
    },
    {
      "anonymous": false,
      "inputs": [
        {
          "indexed": true,
          "internalType": "address",
          "name": "user",
          "type": "address"
        },
        {
          "indexed": true,
          "internalType": "uint256",
          "name": "pid",
          "type": "uint256"
        },
        {
          "indexed": false,
          "internalType": "uint256",
          "name": "amount",
          "type": "uint256"
        }
      ],
      "name": "EmergencyWithdraw",
      "type": "event"
    },
    {
      "anonymous": false,
      "inputs": [
        {
          "indexed": true,
          "internalType": "address",
          "name": "previousOwner",
          "type": "address"
        },
        {
          "indexed": true,
          "internalType": "address",
          "name": "newOwner",
          "type": "address"
        }
      ],
      "name": "OwnershipTransferred",
      "type": "event"
    },
    {
      "anonymous": false,
      "inputs": [
        {
          "indexed": true,
          "internalType": "address",
          "name": "user",
          "type": "address"
        },
        {
          "indexed": true,
          "internalType": "uint256",
          "name": "pid",
          "type": "uint256"
        },
        {
          "indexed": false,
          "internalType": "uint256",
          "name": "amount",
          "type": "uint256"
        }
      ],
      "name": "Withdraw",
      "type": "event"
    },
    {
      "inputs": [],
      "name": "BONUS_MULTIPLIER",
      "outputs": [
        {
          "internalType": "uint256",
          "name": "",
          "type": "uint256"
        }
      ],
      "stateMutability": "view",
      "type": "function",
      "constant": true
    },
    {
      "inputs": [],
      "name": "devSetter",
      "outputs": [
        {
          "internalType": "address",
          "name": "",
          "type": "address"
        }
      ],
      "stateMutability": "view",
      "type": "function",
      "constant": true
    },
    {
      "inputs": [],
      "name": "devaddr",
      "outputs": [
        {
          "internalType": "address",
          "name": "",
          "type": "address"
        }
      ],
      "stateMutability": "view",
      "type": "function",
      "constant": true
    },
    {
      "inputs": [],
      "name": "owner",
      "outputs": [
        {
          "internalType": "address",
          "name": "",
          "type": "address"
        }
      ],
      "stateMutability": "view",
      "type": "function",
      "constant": true
    },
    {
      "inputs": [
        {
          "internalType": "uint256",
          "name": "",
          "type": "uint256"
        }
      ],
      "name": "poolInfo",
      "outputs": [
        {
          "internalType": "contract IERC20",
          "name": "stakedToken",
          "type": "address"
        },
        {
          "internalType": "uint256",
          "name": "allocPoint",
          "type": "uint256"
        },
        {
          "internalType": "uint256",
          "name": "lastRewardBlock",
          "type": "uint256"
        },
        {
          "internalType": "uint256",
          "name": "accViellasPerShare",
          "type": "uint256"
        }
      ],
      "stateMutability": "view",
      "type": "function",
      "constant": true
    },
    {
      "inputs": [],
      "name": "renounceOwnership",
      "outputs": [],
      "stateMutability": "nonpayable",
      "type": "function"
    },
    {
      "inputs": [],
      "name": "startBlock",
      "outputs": [
        {
          "internalType": "uint256",
          "name": "",
          "type": "uint256"
        }
      ],
      "stateMutability": "view",
      "type": "function",
      "constant": true
    },
    {
      "inputs": [],
      "name": "totalAllocPoint",
      "outputs": [
        {
          "internalType": "uint256",
          "name": "",
          "type": "uint256"
        }
      ],
      "stateMutability": "view",
      "type": "function",
      "constant": true
    },
    {
      "inputs": [
        {
          "internalType": "address",
          "name": "newOwner",
          "type": "address"
        }
      ],
      "name": "transferOwnership",
      "outputs": [],
      "stateMutability": "nonpayable",
      "type": "function"
    },
    {
      "inputs": [
        {
          "internalType": "uint256",
          "name": "",
          "type": "uint256"
        },
        {
          "internalType": "address",
          "name": "",
          "type": "address"
        }
      ],
      "name": "userInfo",
      "outputs": [
        {
          "internalType": "uint256",
          "name": "amount",
          "type": "uint256"
        },
        {
          "internalType": "uint256",
          "name": "rewardDebt",
          "type": "uint256"
        }
      ],
      "stateMutability": "view",
      "type": "function",
      "constant": true
    },
    {
      "inputs": [],
      "name": "viellas",
      "outputs": [
        {
          "internalType": "contract TuviellaToken",
          "name": "",
          "type": "address"
        }
      ],
      "stateMutability": "view",
      "type": "function",
      "constant": true
    },
    {
      "inputs": [],
      "name": "viellasPerBlock",
      "outputs": [
        {
          "internalType": "uint256",
          "name": "",
          "type": "uint256"
        }
      ],
      "stateMutability": "view",
      "type": "function",
      "constant": true
    },
    {
      "inputs": [
        {
          "internalType": "uint256",
          "name": "multiplierNumber",
          "type": "uint256"
        }
      ],
      "name": "updateMultiplier",
      "outputs": [],
      "stateMutability": "nonpayable",
      "type": "function"
    },
    {
      "inputs": [],
      "name": "poolLength",
      "outputs": [
        {
          "internalType": "uint256",
          "name": "",
          "type": "uint256"
        }
      ],
      "stateMutability": "view",
      "type": "function",
      "constant": true
    },
    {
      "inputs": [
        {
          "internalType": "uint256",
          "name": "_allocPoint",
          "type": "uint256"
        },
        {
          "internalType": "contract IERC20",
          "name": "_stakedToken",
          "type": "address"
        },
        {
          "internalType": "bool",
          "name": "_withUpdate",
          "type": "bool"
        }
      ],
      "name": "add",
      "outputs": [],
      "stateMutability": "nonpayable",
      "type": "function"
    },
    {
      "inputs": [
        {
          "internalType": "uint256",
          "name": "_pid",
          "type": "uint256"
        },
        {
          "internalType": "uint256",
          "name": "_allocPoint",
          "type": "uint256"
        },
        {
          "internalType": "bool",
          "name": "_withUpdate",
          "type": "bool"
        }
      ],
      "name": "set",
      "outputs": [],
      "stateMutability": "nonpayable",
      "type": "function"
    },
    {
      "inputs": [
        {
          "internalType": "uint256",
          "name": "_from",
          "type": "uint256"
        },
        {
          "internalType": "uint256",
          "name": "_to",
          "type": "uint256"
        }
      ],
      "name": "getMultiplier",
      "outputs": [
        {
          "internalType": "uint256",
          "name": "",
          "type": "uint256"
        }
      ],
      "stateMutability": "view",
      "type": "function",
      "constant": true
    },
    {
      "inputs": [
        {
          "internalType": "uint256",
          "name": "_pid",
          "type": "uint256"
        },
        {
          "internalType": "address",
          "name": "_user",
          "type": "address"
        }
      ],
      "name": "pendingViellas",
      "outputs": [
        {
          "internalType": "uint256",
          "name": "",
          "type": "uint256"
        }
      ],
      "stateMutability": "view",
      "type": "function",
      "constant": true
    },
    {
      "inputs": [],
      "name": "massUpdatePools",
      "outputs": [],
      "stateMutability": "nonpayable",
      "type": "function"
    },
    {
      "inputs": [
        {
          "internalType": "uint256",
          "name": "_pid",
          "type": "uint256"
        }
      ],
      "name": "updatePool",
      "outputs": [],
      "stateMutability": "nonpayable",
      "type": "function"
    },
    {
      "inputs": [
        {
          "internalType": "uint256",
          "name": "_pid",
          "type": "uint256"
        },
        {
          "internalType": "uint256",
          "name": "_amount",
          "type": "uint256"
        }
      ],
      "name": "deposit",
      "outputs": [],
      "stateMutability": "nonpayable",
      "type": "function"
    },
    {
      "inputs": [
        {
          "internalType": "uint256",
          "name": "_pid",
          "type": "uint256"
        },
        {
          "internalType": "uint256",
          "name": "_amount",
          "type": "uint256"
        }
      ],
      "name": "withdraw",
      "outputs": [],
      "stateMutability": "nonpayable",
      "type": "function"
    },
    {
      "inputs": [
        {
          "internalType": "uint256",
          "name": "_pid",
          "type": "uint256"
        }
      ],
      "name": "emergencyWithdraw",
      "outputs": [],
      "stateMutability": "nonpayable",
      "type": "function"
    },
    {
      "inputs": [
        {
          "internalType": "address",
          "name": "_devaddr",
          "type": "address"
        }
      ],
      "name": "dev",
      "outputs": [],
      "stateMutability": "nonpayable",
      "type": "function"
    },
    {
      "inputs": [
        {
          "internalType": "uint256",
          "name": "_pid",
          "type": "uint256"
        }
      ],
      "name": "brrr",
      "outputs": [],
      "stateMutability": "nonpayable",
      "type": "function"
    },
    {
      "inputs": [],
      "name": "reinvest",
      "outputs": [],
      "stateMutability": "nonpayable",
      "type": "function"
    },
    {
      "inputs": [
        {
          "internalType": "address",
          "name": "_user",
          "type": "address"
        }
      ],
      "name": "satakedAmount",
      "outputs": [
        {
          "internalType": "uint256",
          "name": "",
          "type": "uint256"
        }
      ],
      "stateMutability": "view",
      "type": "function",
      "constant": true
    },
    {
      "inputs": [
        {
          "internalType": "contract IERC20",
          "name": "token",
          "type": "address"
        }
      ],
      "name": "findPidOf",
      "outputs": [
        {
          "internalType": "uint256",
          "name": "_pid",
          "type": "uint256"
        }
      ],
      "stateMutability": "view",
      "type": "function",
      "constant": true
    }
  ],
  "bytecode": "0x6080604052600160055560006008553480156200001b57600080fd5b50604051620021ac380380620021ac8339810160408190526200003e91620001d2565b600062000053640100000000620001ce810204565b60008054600160a060020a031916600160a060020a0383169081178255604051929350917f8be0079c531659141344cd1fd0a4f28419497f9722a3daafe3b4186f6b6457e0908290a35060018054600160a060020a0319908116600160a060020a039788169081178355600280548316978916979097179096556003805482169588169590951790945560049283556009829055604080516080810182529586526103e86020870181815291870193845260006060880181815260068054958601815590915296517ff652222313e28459528d920b65115c16c04f3efc82aaedc97be59f3f377c0d3f939095029283018054909616949097169390931790935590517ff652222313e28459528d920b65115c16c04f3efc82aaedc97be59f3f377c0d40830155517ff652222313e28459528d920b65115c16c04f3efc82aaedc97be59f3f377c0d4182015590517ff652222313e28459528d920b65115c16c04f3efc82aaedc97be59f3f377c0d42909101556008556200024f565b3390565b600080600080600060a08688031215620001ea578081fd5b8551620001f78162000236565b60208701519095506200020a8162000236565b60408701519094506200021d8162000236565b6060870151608090970151959894975095949392505050565b600160a060020a03811681146200024c57600080fd5b50565b611f4d806200025f6000396000f3fe608060405234801561001057600080fd5b50600436106101e1576000357c0100000000000000000000000000000000000000000000000000000000900480638aa2855011610116578063d0014e6b116100b4578063f2fde38b1161008e578063f2fde38b1461041b578063f49ca2b51461042e578063fdb5a03e14610441578063ffaa94291461044957600080fd5b8063d0014e6b146103ec578063d49e77cd146103f5578063e2bbb1581461040857600080fd5b80638dbb1e3a116100f05780638dbb1e3a1461036c57806393f1a40b1461037f578063a55cc45f146103c6578063b667e14b146103d957600080fd5b80638aa285501461032b5780638d88a90e146103345780638da5cb5b1461034757600080fd5b806351eb05a6116101835780635ffe61461161015d5780635ffe6146146102f5578063630b5ba11461030857806364482f7914610310578063715018a61461032357600080fd5b806351eb05a6146102875780635312ea8e1461029a5780635d50c4f0146102ad57600080fd5b806317caf6f1116101bf57806317caf6f11461024d5780631eaaa04514610256578063441a3e701461026b57806348cd4cb11461027e57600080fd5b8063081e3eda146101e65780631526fe27146101fd578063161d64671461023a575b600080fd5b6006545b6040519081526020015b60405180910390f35b61021061020b366004611cae565b61045c565b60408051600160a060020a03909516855260208501939093529183015260608201526080016101f4565b6101ea610248366004611c76565b6104a0565b6101ea60085481565b610269610264366004611d0d565b610514565b005b610269610279366004611d4e565b610685565b6101ea60095481565b610269610295366004611cae565b610804565b6102696102a8366004611cae565b610b74565b6101ea6102bb366004611c76565b600160a060020a031660009081527f6d5257204ebe7d88fd91ae87941cb2dd9d8062b64ae5a2bd2d28ec40b9fbf6df602052604090205490565b610269610303366004611cae565b610c27565b610269610c59565b61026961031e366004611d6f565b610c84565b610269610d64565b6101ea60055481565b610269610342366004611c76565b610de8565b600054600160a060020a03165b604051600160a060020a0390911681526020016101f4565b6101ea61037a366004611d4e565b610e74565b6103b161038d366004611cde565b60076020908152600092835260408084209091529082529020805460019091015482565b604080519283526020830191909152016101f4565b60035461035490600160a060020a031681565b60015461035490600160a060020a031681565b6101ea60045481565b60025461035490600160a060020a031681565b610269610416366004611d4e565b610e91565b610269610429366004611c76565b610fba565b61026961043c366004611cae565b6110ce565b6102696111b2565b6101ea610457366004611cde565b61130e565b6006818154811061046c57600080fd5b60009182526020909120600490910201805460018201546002830154600390930154600160a060020a039092169350919084565b6000805b60065481101561050e57600681815481106104d25760e060020a634e487b7102600052603260045260246000fd5b6000918252602090912060049091020154600160a060020a03848116911614156104fc5792915050565b8061050681611ebd565b9150506104a4565b50919050565b600054600160a060020a0316331461054a5760405160e560020a62461bcd02815260040161054190611deb565b60405180910390fd5b801561055857610558610c59565b6000600954431161056b5760095461056d565b435b60085490915061057d90856114a4565b60085560408051608081018252600160a060020a0385811682526020820187815292820184815260006060840181815260068054600181018255925293517ff652222313e28459528d920b65115c16c04f3efc82aaedc97be59f3f377c0d3f6004909202918201805473ffffffffffffffffffffffffffffffffffffffff1916919094161790925592517ff652222313e28459528d920b65115c16c04f3efc82aaedc97be59f3f377c0d4082015591517ff652222313e28459528d920b65115c16c04f3efc82aaedc97be59f3f377c0d41830155517ff652222313e28459528d920b65115c16c04f3efc82aaedc97be59f3f377c0d429091015561067f611506565b50505050565b6000600683815481106106ab5760e060020a634e487b7102600052603260045260246000fd5b6000918252602080832086845260078252604080852033865290925292208054600490920290920192508311156107275760405160e560020a62461bcd02815260206004820152601d60248201527f7769746864726177206578636565647320757365722062616c616e63650000006044820152606401610541565b61073084610804565b600061076a826001015461076464e8d4a5100061075e8760030154876000015461161890919063ffffffff16565b906116b6565b90611714565b9050801561077c5761077c3382611773565b83156107a657815461078e9085611714565b825582546107a690600160a060020a03163386611909565b600383015482546107c19164e8d4a510009161075e91611618565b6001830155604051848152859033907ff279e6a1f5e320cca91135676d9cb6e44ca8a08c0b88342bcdb1144f6511b5689060200160405180910390a35050505050565b600154604080517f18160ddd000000000000000000000000000000000000000000000000000000008152905169d3c21bcecceda100000092600160a060020a0316916318160ddd916004808301926020929190829003018186803b15801561086b57600080fd5b505afa15801561087f573d6000803e3d6000fd5b505050506040513d601f19601f820116820180604052508101906108a39190611cc6565b11156108f45760405160e560020a62461bcd02815260206004820152601960248201527f54555649454c4c412063616e6e6f74206265206d696e746564000000000000006044820152606401610541565b60006006828154811061091a5760e060020a634e487b7102600052603260045260246000fd5b9060005260206000209060040201905080600201544311610939575050565b80546040517f70a08231000000000000000000000000000000000000000000000000000000008152306004820152600091600160a060020a0316906370a082319060240160206040518083038186803b15801561099557600080fd5b505afa1580156109a9573d6000803e3d6000fd5b505050506040513d601f19601f820116820180604052508101906109cd9190611cc6565b9050806109df57504360029091015550565b60006109ef836002015443610e74565b90506000610a1c60085461075e8660010154610a166004548761161890919063ffffffff16565b90611618565b600154600254919250600160a060020a03908116916340c10f199116610a4384600a6116b6565b6040517c010000000000000000000000000000000000000000000000000000000063ffffffff8516028152600160a060020a0390921660048301526024820152604401600060405180830381600087803b158015610aa057600080fd5b505af1158015610ab4573d6000803e3d6000fd5b50506001546040517f40c10f1900000000000000000000000000000000000000000000000000000000815230600482015260248101859052600160a060020a0390911692506340c10f199150604401600060405180830381600087803b158015610b1d57600080fd5b505af1158015610b31573d6000803e3d6000fd5b50505050610b5f610b548461075e64e8d4a510008561161890919063ffffffff16565b6003860154906114a4565b60038501555050436002909201919091555050565b600060068281548110610b9a5760e060020a634e487b7102600052603260045260246000fd5b60009182526020808320858452600782526040808520338087529352909320805460049093029093018054909450610bdf92600160a060020a03919091169190611909565b8054604051908152839033907fbb757047c2b5f3974fe26b7c10f732e7bce710b0952a71082702781e62ae05959060200160405180910390a360008082556001909101555050565b600054600160a060020a03163314610c545760405160e560020a62461bcd02815260040161054190611deb565b600555565b60065460005b81811015610c8057610c7081610804565b610c7981611ebd565b9050610c5f565b5050565b600054600160a060020a03163314610cb15760405160e560020a62461bcd02815260040161054190611deb565b8015610cbf57610cbf610c59565b600060068481548110610ce55760e060020a634e487b7102600052603260045260246000fd5b90600052602060002090600402016001015490508260068581548110610d1e5760e060020a634e487b7102600052603260045260246000fd5b90600052602060002090600402016001018190555082811461067f57610d5983610d538360085461171490919063ffffffff16565b906114a4565b60085561067f611506565b600054600160a060020a03163314610d915760405160e560020a62461bcd02815260040161054190611deb565b60008054604051600160a060020a03909116907f8be0079c531659141344cd1fd0a4f28419497f9722a3daafe3b4186f6b6457e0908390a36000805473ffffffffffffffffffffffffffffffffffffffff19169055565b600354600160a060020a03163314610e455760405160e560020a62461bcd02815260206004820152600f60248201527f6465765365747465723a207775743f00000000000000000000000000000000006044820152606401610541565b6002805473ffffffffffffffffffffffffffffffffffffffff1916600160a060020a0392909216919091179055565b600554600090610e8890610a168486611714565b90505b92915050565b600060068381548110610eb75760e060020a634e487b7102600052603260045260246000fd5b60009182526020808320868452600782526040808520338652909252922060049091029091019150610ee884610804565b805415610f31576000610f1d826001015461076464e8d4a5100061075e8760030154876000015461161890919063ffffffff16565b90508015610f2f57610f2f3382611773565b505b8215610f5d578154610f4e90600160a060020a03163330866119b2565b8054610f5a90846114a4565b81555b60038201548154610f789164e8d4a510009161075e91611618565b6001820155604051838152849033907f90890809c654f11d6e72a28fa60149770a0d11ec6c92319d6ceb2bb0a4ea1a159060200160405180910390a350505050565b600054600160a060020a03163314610fe75760405160e560020a62461bcd02815260040161054190611deb565b600160a060020a0381166110665760405160e560020a62461bcd02815260206004820152602660248201527f4f776e61626c653a206e6577206f776e657220697320746865207a65726f206160448201527f64647265737300000000000000000000000000000000000000000000000000006064820152608401610541565b60008054604051600160a060020a03808516939216917f8be0079c531659141344cd1fd0a4f28419497f9722a3daafe3b4186f6b6457e091a36000805473ffffffffffffffffffffffffffffffffffffffff1916600160a060020a0392909216919091179055565b6000600682815481106110f45760e060020a634e487b7102600052603260045260246000fd5b6000918252602080832085845260078252604080852033865290925292206004909102909101915061112583610804565b6000611153826001015461076464e8d4a5100061075e8760030154876000015461161890919063ffffffff16565b9050600081116111a85760405160e560020a62461bcd02815260206004820152601260248201527f4e6f2070656e64696e6720746f206272727200000000000000000000000000006044820152606401610541565b61067f3382611773565b600060066000815481106111d95760e060020a634e487b7102600052603260045260246000fd5b600091825260208083203384527f6d5257204ebe7d88fd91ae87941cb2dd9d8062b64ae5a2bd2d28ec40b9fbf6df9091526040832060049092020192509061122090610804565b600061124e826001015461076464e8d4a5100061075e8760030154876000015461161890919063ffffffff16565b9050600081116112a35760405160e560020a62461bcd02815260206004820152601660248201527f4e6f2070656e64696e6720746f207265696e76657374000000000000000000006044820152606401610541565b81546112af90826114a4565b80835560038401546112cc9164e8d4a510009161075e9190611618565b600183015560405181815260009033907f90890809c654f11d6e72a28fa60149770a0d11ec6c92319d6ceb2bb0a4ea1a159060200160405180910390a3505050565b600080600684815481106113355760e060020a634e487b7102600052603260045260246000fd5b60009182526020808320878452600782526040808520600160a060020a038981168752935280852060049485029092016003810154815492517f70a08231000000000000000000000000000000000000000000000000000000008152309681019690965290965091949193919216906370a082319060240160206040518083038186803b1580156113c557600080fd5b505afa1580156113d9573d6000803e3d6000fd5b505050506040513d601f19601f820116820180604052508101906113fd9190611cc6565b905083600201544311801561141157508015155b15611471576000611426856002015443610e74565b9050600061144d60085461075e8860010154610a166004548761161890919063ffffffff16565b905061146c6114658461075e8464e8d4a51000611618565b85906114a4565b935050505b611499836001015461076464e8d4a5100061075e86886000015461161890919063ffffffff16565b979650505050505050565b6000806114b18385611e20565b905083811015610e885760405160e560020a62461bcd02815260206004820152601b60248201527f536166654d6174683a206164646974696f6e206f766572666c6f7700000000006044820152606401610541565b600654600060015b828110156115705761155e6006828154811061153d5760e060020a634e487b7102600052603260045260246000fd5b906000526020600020906004020160010154836114a490919063ffffffff16565b915061156981611ebd565b905061150e565b508015610c80576115828160036116b6565b90506115d381610d5360066000815481106115b05760e060020a634e487b7102600052603260045260246000fd5b90600052602060002090600402016001015460085461171490919063ffffffff16565b6008819055508060066000815481106115ff5760e060020a634e487b7102600052603260045260246000fd5b9060005260206000209060040201600101819055505050565b60008261162757506000610e8b565b60006116338385611e5b565b9050826116408583611e38565b14610e885760405160e560020a62461bcd02815260206004820152602160248201527f536166654d6174683a206d756c7469706c69636174696f6e206f766572666c6f60448201527f77000000000000000000000000000000000000000000000000000000000000006064820152608401610541565b600080821161170a5760405160e560020a62461bcd02815260206004820152601a60248201527f536166654d6174683a206469766973696f6e206279207a65726f0000000000006044820152606401610541565b610e888284611e38565b6000828211156117695760405160e560020a62461bcd02815260206004820152601e60248201527f536166654d6174683a207375627472616374696f6e206f766572666c6f7700006044820152606401610541565b610e888284611e7a565b6001546040517f70a08231000000000000000000000000000000000000000000000000000000008152306004820152600091600160a060020a0316906370a082319060240160206040518083038186803b1580156117d057600080fd5b505afa1580156117e4573d6000803e3d6000fd5b505050506040513d601f19601f820116820180604052508101906118089190611cc6565b9050808211156118b2576001546040517fa9059cbb000000000000000000000000000000000000000000000000000000008152600160a060020a038581166004830152602482018490529091169063a9059cbb906044015b602060405180830381600087803b15801561187a57600080fd5b505af115801561188e573d6000803e3d6000fd5b505050506040513d601f19601f8201168201806040525081019061067f9190611c92565b6001546040517fa9059cbb000000000000000000000000000000000000000000000000000000008152600160a060020a038581166004830152602482018590529091169063a9059cbb90604401611860565b505050565b604051600160a060020a0383166024820152604481018290526119049084907fa9059cbb00000000000000000000000000000000000000000000000000000000906064015b60408051601f198184030181529190526020810180517bffffffffffffffffffffffffffffffffffffffffffffffffffffffff167fffffffff0000000000000000000000000000000000000000000000000000000090931692909217909152611a03565b604051600160a060020a038085166024830152831660448201526064810182905261067f9085907f23b872dd000000000000000000000000000000000000000000000000000000009060840161194e565b6000611a58826040518060400160405280602081526020017f5361666545524332303a206c6f772d6c6576656c2063616c6c206661696c656481525085600160a060020a0316611aeb9092919063ffffffff16565b8051909150156119045780806020019051810190611a769190611c92565b6119045760405160e560020a62461bcd02815260206004820152602a60248201527f5361666545524332303a204552433230206f7065726174696f6e20646964206e60448201527f6f742073756363656564000000000000000000000000000000000000000000006064820152608401610541565b6060611afa8484600085611b04565b90505b9392505050565b60603031831115611b805760405160e560020a62461bcd02815260206004820152602660248201527f416464726573733a20696e73756666696369656e742062616c616e636520666f60448201527f722063616c6c00000000000000000000000000000000000000000000000000006064820152608401610541565b843b611bd15760405160e560020a62461bcd02815260206004820152601d60248201527f416464726573733a2063616c6c20746f206e6f6e2d636f6e74726163740000006044820152606401610541565b60008086600160a060020a03168587604051611bed9190611d9c565b60006040518083038185875af1925050503d8060008114611c2a576040519150601f19603f3d011682016040523d82523d6000602084013e611c2f565b606091505b509150915061149982828660608315611c49575081611afd565b825115611c595782518084602001fd5b8160405160e560020a62461bcd0281526004016105419190611db8565b600060208284031215611c87578081fd5b8135610e8881611ef1565b600060208284031215611ca3578081fd5b8151610e8881611f09565b600060208284031215611cbf578081fd5b5035919050565b600060208284031215611cd7578081fd5b5051919050565b60008060408385031215611cf0578081fd5b823591506020830135611d0281611ef1565b809150509250929050565b600080600060608486031215611d21578081fd5b833592506020840135611d3381611ef1565b91506040840135611d4381611f09565b809150509250925092565b60008060408385031215611d60578182fd5b50508035926020909101359150565b600080600060608486031215611d83578283fd5b83359250602084013591506040840135611d4381611f09565b60008251611dae818460208701611e91565b9190910192915050565b6020815260008251806020840152611dd7816040850160208701611e91565b601f01601f19169190910160400192915050565b6020808252818101527f4f776e61626c653a2063616c6c6572206973206e6f7420746865206f776e6572604082015260600190565b60008219821115611e3357611e33611ed8565b500190565b600082611e565760e060020a634e487b710281526012600452602481fd5b500490565b6000816000190483118215151615611e7557611e75611ed8565b500290565b600082821015611e8c57611e8c611ed8565b500390565b60005b83811015611eac578181015183820152602001611e94565b8381111561067f5750506000910152565b6000600019821415611ed157611ed1611ed8565b5060010190565b60e060020a634e487b7102600052601160045260246000fd5b600160a060020a0381168114611f0657600080fd5b50565b8015158114611f0657600080fdfea264697066735822122082e5d7434b2047d817c68b21e6297020fa7caf9be1f4bc8cc5d2f552e767950064736f6c63430008040033",
  "immutableReferences": {},
  "source": "// SPDX-License-Identifier: MIT\n\npragma solidity >=0.4.22 <0.9.0;\n\nimport './library/SafeMath.sol';\nimport \"@openzeppelin/contracts/token/ERC20/IERC20.sol\";\nimport \"@openzeppelin/contracts/token/ERC20/utils/SafeERC20.sol\";\nimport \"@openzeppelin/contracts/access/Ownable.sol\";\n\nimport \"./token/TuviellaToken.sol\";\n\ncontract Staking is Ownable {\n    using SafeMath for uint256;\n    using SafeERC20 for IERC20;\n\n    // Info of each user.\n    struct UserInfo {\n        uint256 amount;     // How many tokens the user has provided.\n        uint256 rewardDebt; // Reward debt. See explanation below.\n        //\n        // We do some fancy math here. Basically, any point in time, the amount of CAKEs\n        // entitled to a user but is pending to be distributed is:\n        //\n        //   pending reward = (user.amount * pool.accViellasPerShare) - user.rewardDebt\n        //\n        // Whenever a user deposits or withdraws LP tokens to a pool. Here's what happens:\n        //   1. The pool's `accViellasPerShare` (and `lastRewardBlock`) gets updated.\n        //   2. User receives the pending reward sent to his/her address.\n        //   3. User's `amount` gets updated.\n        //   4. User's `rewardDebt` gets updated.\n    }\n\n    // Info of each pool.\n    struct PoolInfo {\n        IERC20 stakedToken;       // Address of staked token contract.\n        uint256 allocPoint;       // How many allocation points assigned to this pool. TUVIELLAs to distribute per block.\n        uint256 lastRewardBlock;  // Last block number that TUVIELLAs distribution occurs.\n        uint256 accViellasPerShare;   // Accumulated TUVIELLAs per share, times 1e12. See below.\n    }\n\n    // The TUVIELLA TOKEN!\n    TuviellaToken public viellas;\n    // Dev address.\n    address public devaddr;\n    address public devSetter;\n    // TUVIELLAs tokens created per block.\n    uint256 public viellasPerBlock;\n    // Bonus muliplier for early tvt makers.\n    uint256 public BONUS_MULTIPLIER = 1;\n\n    // Info of each pool.\n    PoolInfo[] public poolInfo;\n    // Info of each user that stakes tokens.\n    mapping (uint256 => mapping (address => UserInfo)) public userInfo;\n    // Total allocation points. Must be the sum of all allocation points in all pools.\n    uint256 public totalAllocPoint = 0;\n    // The block number when TUVIELLA mining starts.\n    uint256 public startBlock;\n\n    event Deposit(address indexed user, uint256 indexed pid, uint256 amount);\n    event Withdraw(address indexed user, uint256 indexed pid, uint256 amount);\n    event EmergencyWithdraw(address indexed user, uint256 indexed pid, uint256 amount);\n\n    constructor(\n        TuviellaToken _viellas,\n        address _devaddr,\n        address _devSetter,\n        uint256 _viellasPerBlock,\n        uint256 _startBlock\n    ) {\n        viellas = _viellas;\n        devaddr = _devaddr;\n        devSetter = _devSetter;\n        viellasPerBlock = _viellasPerBlock;\n        startBlock = _startBlock;\n\n        // staking pool\n        poolInfo.push(PoolInfo({\n            stakedToken: _viellas,\n            allocPoint: 1000,\n            lastRewardBlock: startBlock,\n            accViellasPerShare: 0\n        }));\n\n        totalAllocPoint = 1000;\n\n    }\n\n    function updateMultiplier(uint256 multiplierNumber) public onlyOwner {\n        BONUS_MULTIPLIER = multiplierNumber;\n    }\n\n    function poolLength() external view returns (uint256) {\n        return poolInfo.length;\n    }\n\n    // Add a new staking token to the pool. Can only be called by the owner.\n    // XXX DO NOT add the same staking token more than once. Rewards will be messed up if you do.\n    function add(uint256 _allocPoint, IERC20 _stakedToken, bool _withUpdate) public onlyOwner {\n        if (_withUpdate) {\n            massUpdatePools();\n        }\n        uint256 lastRewardBlock = block.number > startBlock ? block.number : startBlock;\n        totalAllocPoint = totalAllocPoint.add(_allocPoint);\n        poolInfo.push(PoolInfo({\n            stakedToken: _stakedToken,\n            allocPoint: _allocPoint,\n            lastRewardBlock: lastRewardBlock,\n            accViellasPerShare: 0\n        }));\n        updateStakingPool();\n    }\n\n    // Update the given pool's TUVIELLA allocation point. Can only be called by the owner.\n    function set(uint256 _pid, uint256 _allocPoint, bool _withUpdate) public onlyOwner {\n        if (_withUpdate) {\n            massUpdatePools();\n        }\n        uint256 prevAllocPoint = poolInfo[_pid].allocPoint;\n        poolInfo[_pid].allocPoint = _allocPoint;\n        if (prevAllocPoint != _allocPoint) {\n            totalAllocPoint = totalAllocPoint.sub(prevAllocPoint).add(_allocPoint);\n            updateStakingPool();\n        }\n    }\n\n    function updateStakingPool() internal {\n        uint256 length = poolInfo.length;\n        uint256 points = 0;\n        for (uint256 pid = 1; pid < length; ++pid) {\n            points = points.add(poolInfo[pid].allocPoint);\n        }\n        if (points != 0) {\n            points = points.div(3);\n            totalAllocPoint = totalAllocPoint.sub(poolInfo[0].allocPoint).add(points);\n            poolInfo[0].allocPoint = points;\n        }\n    }\n\n    // Return reward multiplier over the given _from to _to block.\n    function getMultiplier(uint256 _from, uint256 _to) public view returns (uint256) {\n        return _to.sub(_from).mul(BONUS_MULTIPLIER);\n    }\n\n    // View function to see pending TUVIELLAs on frontend.\n    function pendingViellas(uint256 _pid, address _user) external view returns (uint256) {\n        PoolInfo storage pool = poolInfo[_pid];\n        UserInfo storage user = userInfo[_pid][_user];\n        uint256 accViellasPerShare = pool.accViellasPerShare;\n        uint256 stakedSupply = pool.stakedToken.balanceOf(address(this));\n        if (block.number > pool.lastRewardBlock && stakedSupply != 0) {\n            uint256 multiplier = getMultiplier(pool.lastRewardBlock, block.number);\n            uint256 viellasReward = multiplier.mul(viellasPerBlock).mul(pool.allocPoint).div(totalAllocPoint);\n            accViellasPerShare = accViellasPerShare.add(viellasReward.mul(1e12).div(stakedSupply));\n        }\n        return user.amount.mul(accViellasPerShare).div(1e12).sub(user.rewardDebt);\n    }\n\n    // Update reward variables for all pools. Be careful of gas spending!\n    function massUpdatePools() public {\n        uint256 length = poolInfo.length;\n        for (uint256 pid = 0; pid < length; ++pid) {\n            updatePool(pid);\n        }\n    }\n\n\n    // Update reward variables of the given pool to be up-to-date.\n    function updatePool(uint256 _pid) public {\n        require(viellas.totalSupply() <= 1000000 ether, \"TUVIELLA cannot be minted\");\n        PoolInfo storage pool = poolInfo[_pid];\n        if (block.number <= pool.lastRewardBlock) {\n            return;\n        }\n        uint256 stakedSupply = pool.stakedToken.balanceOf(address(this));\n        if (stakedSupply == 0) {\n            pool.lastRewardBlock = block.number;\n            return;\n        }\n        uint256 multiplier = getMultiplier(pool.lastRewardBlock, block.number);\n        uint256 viellasReward = multiplier.mul(viellasPerBlock).mul(pool.allocPoint).div(totalAllocPoint);\n\n        viellas.mint(devaddr, viellasReward.div(10));\n        viellas.mint(address(this), viellasReward);\n\n        pool.accViellasPerShare = pool.accViellasPerShare.add(viellasReward.mul(1e12).div(stakedSupply));\n        pool.lastRewardBlock = block.number;\n    }\n\n    // Deposit LP tokens to MasterChef for TUVIELLA allocation.\n    function deposit(uint256 _pid, uint256 _amount) public {\n\n        PoolInfo storage pool = poolInfo[_pid];\n        UserInfo storage user = userInfo[_pid][msg.sender];\n        updatePool(_pid);\n        if (user.amount > 0) {\n            uint256 pending = user.amount.mul(pool.accViellasPerShare).div(1e12).sub(user.rewardDebt);\n            if(pending > 0) {\n                safeViellasTransfer(msg.sender, pending);\n            }\n        }\n        if (_amount > 0) {\n            pool.stakedToken.safeTransferFrom(address(msg.sender), address(this), _amount);\n            user.amount = user.amount.add(_amount);\n        }\n        user.rewardDebt = user.amount.mul(pool.accViellasPerShare).div(1e12);\n        emit Deposit(msg.sender, _pid, _amount);\n    }\n\n    // Withdraw LP tokens from MasterChef.\n    function withdraw(uint256 _pid, uint256 _amount) public {\n\n        PoolInfo storage pool = poolInfo[_pid];\n        UserInfo storage user = userInfo[_pid][msg.sender];\n        require(user.amount >= _amount, \"withdraw exceeds user balance\");\n\n        updatePool(_pid);\n        uint256 pending = user.amount.mul(pool.accViellasPerShare).div(1e12).sub(user.rewardDebt);\n        if(pending > 0) {\n            safeViellasTransfer(msg.sender, pending);\n        }\n        if(_amount > 0) {\n            user.amount = user.amount.sub(_amount);\n            pool.stakedToken.safeTransfer(address(msg.sender), _amount);\n        }\n        user.rewardDebt = user.amount.mul(pool.accViellasPerShare).div(1e12);\n        emit Withdraw(msg.sender, _pid, _amount);\n    }\n\n    // Withdraw without caring about rewards. EMERGENCY ONLY.\n    function emergencyWithdraw(uint256 _pid) public {\n        PoolInfo storage pool = poolInfo[_pid];\n        UserInfo storage user = userInfo[_pid][msg.sender];\n        pool.stakedToken.safeTransfer(address(msg.sender), user.amount);\n        emit EmergencyWithdraw(msg.sender, _pid, user.amount);\n        user.amount = 0;\n        user.rewardDebt = 0;\n    }\n\n    // Safe cake transfer function, just in case if rounding error causes pool to not have enough CAKEs.\n    function safeViellasTransfer(address _to, uint256 _amount) internal {\n        uint256 viellasBalance = viellas.balanceOf(address(this));\n        if (_amount > viellasBalance) {\n            viellas.transfer(_to, viellasBalance);\n        } else {\n            viellas.transfer(_to, _amount);\n        }\n    }\n\n    // Update dev address by the previous dev.\n    function dev(address _devaddr) public {\n        require(msg.sender == devSetter, \"devSetter: wut?\");\n        devaddr = _devaddr;\n    }\n\n    // brrr en tu cartera\n    function brrr(uint256 _pid) public{\n\n        PoolInfo storage pool = poolInfo[_pid];\n        UserInfo storage user = userInfo[_pid][msg.sender];\n\n        updatePool(_pid);\n\n        uint256 pending = user.amount.mul(pool.accViellasPerShare).div(1e12).sub(user.rewardDebt);\n        require(pending > 0, \"No pending to brrr\");\n        safeViellasTransfer(msg.sender, pending);\n        \n    }\n\n    // Reinvest viellas\n    function reinvest() public{\n        PoolInfo storage pool = poolInfo[0];\n        UserInfo storage user = userInfo[0][msg.sender];\n        updatePool(0);\n        \n        uint256 pending = user.amount.mul(pool.accViellasPerShare).div(1e12).sub(user.rewardDebt);\n        require(pending > 0, \"No pending to reinvest\");\n        \n        user.amount = user.amount.add(pending);\n        \n        user.rewardDebt = user.amount.mul(pool.accViellasPerShare).div(1e12);\n        emit Deposit(msg.sender, 0, pending);\n    }\n\n    // return staked amount of msg.sender\n    function satakedAmount(address _user) public view returns (uint256){\n        return userInfo[0][_user].amount;\n    }\n\n    function findPidOf(IERC20 token) public view returns (uint256 _pid){\n        for(uint256 i = 0; i<poolInfo.length; i++){\n            if(token == poolInfo[i].stakedToken){\n                return i;\n            }\n        }\n    }\n}\n",
  "sourcePath": "/Users/guillermo/Projects/crypto/tuviella-contract/contracts/Staking.sol",
  "compiler": {
    "name": "solc",
    "version": "0.8.4+commit.c7e474f2.Emscripten.clang"
  },
  "schemaVersion": "3.4.1",
  "updatedAt": "2021-08-10T17:08:57.441Z",
  "networkType": "ethereum",
  "devdoc": {
    "kind": "dev",
    "methods": {
      "owner()": {
        "details": "Returns the address of the current owner."
      },
      "renounceOwnership()": {
        "details": "Leaves the contract without owner. It will not be possible to call `onlyOwner` functions anymore. Can only be called by the current owner. NOTE: Renouncing ownership will leave the contract without an owner, thereby removing any functionality that is only available to the owner."
      },
      "transferOwnership(address)": {
        "details": "Transfers ownership of the contract to a new account (`newOwner`). Can only be called by the current owner."
      }
    },
    "version": 1
  },
  "userdoc": {
    "kind": "user",
    "methods": {},
    "version": 1
  }
}