{
  "contractName": "Staking",
  "abi": [
    {
      "inputs": [
        {
          "internalType": "contract TuviellaToken",
          "name": "_viellas",
          "type": "address"
        },
        {
          "internalType": "address",
          "name": "_devaddr",
          "type": "address"
        },
        {
          "internalType": "address",
          "name": "_devSetter",
          "type": "address"
        },
        {
          "internalType": "uint256",
          "name": "_viellasPerBlock",
          "type": "uint256"
        },
        {
          "internalType": "uint256",
          "name": "_startBlock",
          "type": "uint256"
        }
      ],
      "stateMutability": "nonpayable",
      "type": "constructor"
    },
    {
      "anonymous": false,
      "inputs": [
        {
          "indexed": true,
          "internalType": "address",
          "name": "user",
          "type": "address"
        },
        {
          "indexed": true,
          "internalType": "uint256",
          "name": "pid",
          "type": "uint256"
        },
        {
          "indexed": false,
          "internalType": "uint256",
          "name": "amount",
          "type": "uint256"
        }
      ],
      "name": "Deposit",
      "type": "event"
    },
    {
      "anonymous": false,
      "inputs": [
        {
          "indexed": true,
          "internalType": "address",
          "name": "user",
          "type": "address"
        },
        {
          "indexed": true,
          "internalType": "uint256",
          "name": "pid",
          "type": "uint256"
        },
        {
          "indexed": false,
          "internalType": "uint256",
          "name": "amount",
          "type": "uint256"
        }
      ],
      "name": "EmergencyWithdraw",
      "type": "event"
    },
    {
      "anonymous": false,
      "inputs": [
        {
          "indexed": true,
          "internalType": "address",
          "name": "previousOwner",
          "type": "address"
        },
        {
          "indexed": true,
          "internalType": "address",
          "name": "newOwner",
          "type": "address"
        }
      ],
      "name": "OwnershipTransferred",
      "type": "event"
    },
    {
      "anonymous": false,
      "inputs": [
        {
          "indexed": true,
          "internalType": "address",
          "name": "user",
          "type": "address"
        },
        {
          "indexed": true,
          "internalType": "uint256",
          "name": "pid",
          "type": "uint256"
        },
        {
          "indexed": false,
          "internalType": "uint256",
          "name": "amount",
          "type": "uint256"
        }
      ],
      "name": "Withdraw",
      "type": "event"
    },
    {
      "inputs": [],
      "name": "BONUS_MULTIPLIER",
      "outputs": [
        {
          "internalType": "uint256",
          "name": "",
          "type": "uint256"
        }
      ],
      "stateMutability": "view",
      "type": "function"
    },
    {
      "inputs": [],
      "name": "devSetter",
      "outputs": [
        {
          "internalType": "address",
          "name": "",
          "type": "address"
        }
      ],
      "stateMutability": "view",
      "type": "function"
    },
    {
      "inputs": [],
      "name": "devaddr",
      "outputs": [
        {
          "internalType": "address",
          "name": "",
          "type": "address"
        }
      ],
      "stateMutability": "view",
      "type": "function"
    },
    {
      "inputs": [],
      "name": "owner",
      "outputs": [
        {
          "internalType": "address",
          "name": "",
          "type": "address"
        }
      ],
      "stateMutability": "view",
      "type": "function"
    },
    {
      "inputs": [
        {
          "internalType": "uint256",
          "name": "",
          "type": "uint256"
        }
      ],
      "name": "poolInfo",
      "outputs": [
        {
          "internalType": "contract IERC20",
          "name": "stakedToken",
          "type": "address"
        },
        {
          "internalType": "uint256",
          "name": "allocPoint",
          "type": "uint256"
        },
        {
          "internalType": "uint256",
          "name": "lastRewardBlock",
          "type": "uint256"
        },
        {
          "internalType": "uint256",
          "name": "accViellasPerShare",
          "type": "uint256"
        }
      ],
      "stateMutability": "view",
      "type": "function"
    },
    {
      "inputs": [],
      "name": "renounceOwnership",
      "outputs": [],
      "stateMutability": "nonpayable",
      "type": "function"
    },
    {
      "inputs": [],
      "name": "startBlock",
      "outputs": [
        {
          "internalType": "uint256",
          "name": "",
          "type": "uint256"
        }
      ],
      "stateMutability": "view",
      "type": "function"
    },
    {
      "inputs": [],
      "name": "totalAllocPoint",
      "outputs": [
        {
          "internalType": "uint256",
          "name": "",
          "type": "uint256"
        }
      ],
      "stateMutability": "view",
      "type": "function"
    },
    {
      "inputs": [
        {
          "internalType": "address",
          "name": "newOwner",
          "type": "address"
        }
      ],
      "name": "transferOwnership",
      "outputs": [],
      "stateMutability": "nonpayable",
      "type": "function"
    },
    {
      "inputs": [
        {
          "internalType": "uint256",
          "name": "",
          "type": "uint256"
        },
        {
          "internalType": "address",
          "name": "",
          "type": "address"
        }
      ],
      "name": "userInfo",
      "outputs": [
        {
          "internalType": "uint256",
          "name": "amount",
          "type": "uint256"
        },
        {
          "internalType": "uint256",
          "name": "rewardDebt",
          "type": "uint256"
        }
      ],
      "stateMutability": "view",
      "type": "function"
    },
    {
      "inputs": [],
      "name": "viellas",
      "outputs": [
        {
          "internalType": "contract TuviellaToken",
          "name": "",
          "type": "address"
        }
      ],
      "stateMutability": "view",
      "type": "function"
    },
    {
      "inputs": [],
      "name": "viellasPerBlock",
      "outputs": [
        {
          "internalType": "uint256",
          "name": "",
          "type": "uint256"
        }
      ],
      "stateMutability": "view",
      "type": "function"
    },
    {
      "inputs": [
        {
          "internalType": "uint256",
          "name": "multiplierNumber",
          "type": "uint256"
        }
      ],
      "name": "updateMultiplier",
      "outputs": [],
      "stateMutability": "nonpayable",
      "type": "function"
    },
    {
      "inputs": [],
      "name": "poolLength",
      "outputs": [
        {
          "internalType": "uint256",
          "name": "",
          "type": "uint256"
        }
      ],
      "stateMutability": "view",
      "type": "function"
    },
    {
      "inputs": [
        {
          "internalType": "uint256",
          "name": "_allocPoint",
          "type": "uint256"
        },
        {
          "internalType": "contract IERC20",
          "name": "_stakedToken",
          "type": "address"
        },
        {
          "internalType": "bool",
          "name": "_withUpdate",
          "type": "bool"
        }
      ],
      "name": "add",
      "outputs": [],
      "stateMutability": "nonpayable",
      "type": "function"
    },
    {
      "inputs": [
        {
          "internalType": "uint256",
          "name": "_pid",
          "type": "uint256"
        },
        {
          "internalType": "uint256",
          "name": "_allocPoint",
          "type": "uint256"
        },
        {
          "internalType": "bool",
          "name": "_withUpdate",
          "type": "bool"
        }
      ],
      "name": "set",
      "outputs": [],
      "stateMutability": "nonpayable",
      "type": "function"
    },
    {
      "inputs": [
        {
          "internalType": "uint256",
          "name": "_from",
          "type": "uint256"
        },
        {
          "internalType": "uint256",
          "name": "_to",
          "type": "uint256"
        }
      ],
      "name": "getMultiplier",
      "outputs": [
        {
          "internalType": "uint256",
          "name": "",
          "type": "uint256"
        }
      ],
      "stateMutability": "view",
      "type": "function"
    },
    {
      "inputs": [
        {
          "internalType": "uint256",
          "name": "_pid",
          "type": "uint256"
        },
        {
          "internalType": "address",
          "name": "_user",
          "type": "address"
        }
      ],
      "name": "pendingViellas",
      "outputs": [
        {
          "internalType": "uint256",
          "name": "",
          "type": "uint256"
        }
      ],
      "stateMutability": "view",
      "type": "function"
    },
    {
      "inputs": [],
      "name": "massUpdatePools",
      "outputs": [],
      "stateMutability": "nonpayable",
      "type": "function"
    },
    {
      "inputs": [
        {
          "internalType": "uint256",
          "name": "_pid",
          "type": "uint256"
        }
      ],
      "name": "updatePool",
      "outputs": [],
      "stateMutability": "nonpayable",
      "type": "function"
    },
    {
      "inputs": [
        {
          "internalType": "uint256",
          "name": "_pid",
          "type": "uint256"
        },
        {
          "internalType": "uint256",
          "name": "_amount",
          "type": "uint256"
        }
      ],
      "name": "deposit",
      "outputs": [],
      "stateMutability": "nonpayable",
      "type": "function"
    },
    {
      "inputs": [
        {
          "internalType": "uint256",
          "name": "_pid",
          "type": "uint256"
        },
        {
          "internalType": "uint256",
          "name": "_amount",
          "type": "uint256"
        }
      ],
      "name": "withdraw",
      "outputs": [],
      "stateMutability": "nonpayable",
      "type": "function"
    },
    {
      "inputs": [
        {
          "internalType": "uint256",
          "name": "_pid",
          "type": "uint256"
        }
      ],
      "name": "emergencyWithdraw",
      "outputs": [],
      "stateMutability": "nonpayable",
      "type": "function"
    },
    {
      "inputs": [
        {
          "internalType": "address",
          "name": "_devaddr",
          "type": "address"
        }
      ],
      "name": "dev",
      "outputs": [],
      "stateMutability": "nonpayable",
      "type": "function"
    }
  ],
  "bytecode": "0x6080604052600160055560006008553480156200001b57600080fd5b5060405162001e1638038062001e168339810160408190526200003e91620001d2565b600062000053640100000000620001ce810204565b60008054600160a060020a031916600160a060020a0383169081178255604051929350917f8be0079c531659141344cd1fd0a4f28419497f9722a3daafe3b4186f6b6457e0908290a35060018054600160a060020a0319908116600160a060020a039788169081178355600280548316978916979097179096556003805482169588169590951790945560049283556009829055604080516080810182529586526103e86020870181815291870193845260006060880181815260068054958601815590915296517ff652222313e28459528d920b65115c16c04f3efc82aaedc97be59f3f377c0d3f939095029283018054909616949097169390931790935590517ff652222313e28459528d920b65115c16c04f3efc82aaedc97be59f3f377c0d40830155517ff652222313e28459528d920b65115c16c04f3efc82aaedc97be59f3f377c0d4182015590517ff652222313e28459528d920b65115c16c04f3efc82aaedc97be59f3f377c0d42909101556008556200024f565b3390565b600080600080600060a08688031215620001ea578081fd5b8551620001f78162000236565b60208701519095506200020a8162000236565b60408701519094506200021d8162000236565b6060870151608090970151959894975095949392505050565b600160a060020a03811681146200024c57600080fd5b50565b611bb7806200025f6000396000f3fe608060405234801561001057600080fd5b5060043610610175576000357c0100000000000000000000000000000000000000000000000000000000900480638aa28550116100e0578063b667e14b11610099578063b667e14b14610312578063d0014e6b14610325578063d49e77cd1461032e578063e2bbb15814610341578063f2fde38b14610354578063ffaa94291461036757600080fd5b80638aa28550146102645780638d88a90e1461026d5780638da5cb5b146102805780638dbb1e3a146102a557806393f1a40b146102b8578063a55cc45f146102ff57600080fd5b806351eb05a61161013257806351eb05a6146102085780635312ea8e1461021b5780635ffe61461461022e578063630b5ba11461024157806364482f7914610249578063715018a61461025c57600080fd5b8063081e3eda1461017a5780631526fe271461019157806317caf6f1146101ce5780631eaaa045146101d7578063441a3e70146101ec57806348cd4cb1146101ff575b600080fd5b6006545b6040519081526020015b60405180910390f35b6101a461019f366004611918565b61037a565b60408051600160a060020a0390951685526020850193909352918301526060820152608001610188565b61017e60085481565b6101ea6101e5366004611977565b6103be565b005b6101ea6101fa3660046119b8565b61052f565b61017e60095481565b6101ea610216366004611918565b6106ae565b6101ea610229366004611918565b610a1e565b6101ea61023c366004611918565b610ad1565b6101ea610b03565b6101ea6102573660046119d9565b610b2e565b6101ea610c0e565b61017e60055481565b6101ea61027b3660046118e0565b610c92565b600054600160a060020a03165b604051600160a060020a039091168152602001610188565b61017e6102b33660046119b8565b610d1e565b6102ea6102c6366004611948565b60076020908152600092835260408084209091529082529020805460019091015482565b60408051928352602083019190915201610188565b60035461028d90600160a060020a031681565b60015461028d90600160a060020a031681565b61017e60045481565b60025461028d90600160a060020a031681565b6101ea61034f3660046119b8565b610d3b565b6101ea6103623660046118e0565b610e64565b61017e610375366004611948565b610f78565b6006818154811061038a57600080fd5b60009182526020909120600490910201805460018201546002830154600390930154600160a060020a039092169350919084565b600054600160a060020a031633146103f45760405160e560020a62461bcd0281526004016103eb90611a55565b60405180910390fd5b801561040257610402610b03565b6000600954431161041557600954610417565b435b600854909150610427908561110e565b60085560408051608081018252600160a060020a0385811682526020820187815292820184815260006060840181815260068054600181018255925293517ff652222313e28459528d920b65115c16c04f3efc82aaedc97be59f3f377c0d3f6004909202918201805473ffffffffffffffffffffffffffffffffffffffff1916919094161790925592517ff652222313e28459528d920b65115c16c04f3efc82aaedc97be59f3f377c0d4082015591517ff652222313e28459528d920b65115c16c04f3efc82aaedc97be59f3f377c0d41830155517ff652222313e28459528d920b65115c16c04f3efc82aaedc97be59f3f377c0d4290910155610529611170565b50505050565b6000600683815481106105555760e060020a634e487b7102600052603260045260246000fd5b6000918252602080832086845260078252604080852033865290925292208054600490920290920192508311156105d15760405160e560020a62461bcd02815260206004820152601d60248201527f7769746864726177206578636565647320757365722062616c616e636500000060448201526064016103eb565b6105da846106ae565b6000610614826001015461060e64e8d4a510006106088760030154876000015461128290919063ffffffff16565b90611320565b9061137e565b905080156106265761062633826113dd565b8315610650578154610638908561137e565b8255825461065090600160a060020a03163386611573565b6003830154825461066b9164e8d4a510009161060891611282565b6001830155604051848152859033907ff279e6a1f5e320cca91135676d9cb6e44ca8a08c0b88342bcdb1144f6511b5689060200160405180910390a35050505050565b600154604080517f18160ddd000000000000000000000000000000000000000000000000000000008152905169d3c21bcecceda100000092600160a060020a0316916318160ddd916004808301926020929190829003018186803b15801561071557600080fd5b505afa158015610729573d6000803e3d6000fd5b505050506040513d601f19601f8201168201806040525081019061074d9190611930565b111561079e5760405160e560020a62461bcd02815260206004820152601960248201527f54555649454c4c412063616e6e6f74206265206d696e7465640000000000000060448201526064016103eb565b6000600682815481106107c45760e060020a634e487b7102600052603260045260246000fd5b90600052602060002090600402019050806002015443116107e3575050565b80546040517f70a08231000000000000000000000000000000000000000000000000000000008152306004820152600091600160a060020a0316906370a082319060240160206040518083038186803b15801561083f57600080fd5b505afa158015610853573d6000803e3d6000fd5b505050506040513d601f19601f820116820180604052508101906108779190611930565b90508061088957504360029091015550565b6000610899836002015443610d1e565b905060006108c660085461060886600101546108c06004548761128290919063ffffffff16565b90611282565b600154600254919250600160a060020a03908116916340c10f1991166108ed84600a611320565b6040517c010000000000000000000000000000000000000000000000000000000063ffffffff8516028152600160a060020a0390921660048301526024820152604401600060405180830381600087803b15801561094a57600080fd5b505af115801561095e573d6000803e3d6000fd5b50506001546040517f40c10f1900000000000000000000000000000000000000000000000000000000815230600482015260248101859052600160a060020a0390911692506340c10f199150604401600060405180830381600087803b1580156109c757600080fd5b505af11580156109db573d6000803e3d6000fd5b50505050610a096109fe8461060864e8d4a510008561128290919063ffffffff16565b60038601549061110e565b60038501555050436002909201919091555050565b600060068281548110610a445760e060020a634e487b7102600052603260045260246000fd5b60009182526020808320858452600782526040808520338087529352909320805460049093029093018054909450610a8992600160a060020a03919091169190611573565b8054604051908152839033907fbb757047c2b5f3974fe26b7c10f732e7bce710b0952a71082702781e62ae05959060200160405180910390a360008082556001909101555050565b600054600160a060020a03163314610afe5760405160e560020a62461bcd0281526004016103eb90611a55565b600555565b60065460005b81811015610b2a57610b1a816106ae565b610b2381611b27565b9050610b09565b5050565b600054600160a060020a03163314610b5b5760405160e560020a62461bcd0281526004016103eb90611a55565b8015610b6957610b69610b03565b600060068481548110610b8f5760e060020a634e487b7102600052603260045260246000fd5b90600052602060002090600402016001015490508260068581548110610bc85760e060020a634e487b7102600052603260045260246000fd5b90600052602060002090600402016001018190555082811461052957610c0383610bfd8360085461137e90919063ffffffff16565b9061110e565b600855610529611170565b600054600160a060020a03163314610c3b5760405160e560020a62461bcd0281526004016103eb90611a55565b60008054604051600160a060020a03909116907f8be0079c531659141344cd1fd0a4f28419497f9722a3daafe3b4186f6b6457e0908390a36000805473ffffffffffffffffffffffffffffffffffffffff19169055565b600354600160a060020a03163314610cef5760405160e560020a62461bcd02815260206004820152600f60248201527f6465765365747465723a207775743f000000000000000000000000000000000060448201526064016103eb565b6002805473ffffffffffffffffffffffffffffffffffffffff1916600160a060020a0392909216919091179055565b600554600090610d32906108c0848661137e565b90505b92915050565b600060068381548110610d615760e060020a634e487b7102600052603260045260246000fd5b60009182526020808320868452600782526040808520338652909252922060049091029091019150610d92846106ae565b805415610ddb576000610dc7826001015461060e64e8d4a510006106088760030154876000015461128290919063ffffffff16565b90508015610dd957610dd933826113dd565b505b8215610e07578154610df890600160a060020a031633308661161c565b8054610e04908461110e565b81555b60038201548154610e229164e8d4a510009161060891611282565b6001820155604051838152849033907f90890809c654f11d6e72a28fa60149770a0d11ec6c92319d6ceb2bb0a4ea1a159060200160405180910390a350505050565b600054600160a060020a03163314610e915760405160e560020a62461bcd0281526004016103eb90611a55565b600160a060020a038116610f105760405160e560020a62461bcd02815260206004820152602660248201527f4f776e61626c653a206e6577206f776e657220697320746865207a65726f206160448201527f646472657373000000000000000000000000000000000000000000000000000060648201526084016103eb565b60008054604051600160a060020a03808516939216917f8be0079c531659141344cd1fd0a4f28419497f9722a3daafe3b4186f6b6457e091a36000805473ffffffffffffffffffffffffffffffffffffffff1916600160a060020a0392909216919091179055565b60008060068481548110610f9f5760e060020a634e487b7102600052603260045260246000fd5b60009182526020808320878452600782526040808520600160a060020a038981168752935280852060049485029092016003810154815492517f70a08231000000000000000000000000000000000000000000000000000000008152309681019690965290965091949193919216906370a082319060240160206040518083038186803b15801561102f57600080fd5b505afa158015611043573d6000803e3d6000fd5b505050506040513d601f19601f820116820180604052508101906110679190611930565b905083600201544311801561107b57508015155b156110db576000611090856002015443610d1e565b905060006110b760085461060888600101546108c06004548761128290919063ffffffff16565b90506110d66110cf846106088464e8d4a51000611282565b859061110e565b935050505b611103836001015461060e64e8d4a5100061060886886000015461128290919063ffffffff16565b979650505050505050565b60008061111b8385611a8a565b905083811015610d325760405160e560020a62461bcd02815260206004820152601b60248201527f536166654d6174683a206164646974696f6e206f766572666c6f77000000000060448201526064016103eb565b600654600060015b828110156111da576111c8600682815481106111a75760e060020a634e487b7102600052603260045260246000fd5b9060005260206000209060040201600101548361110e90919063ffffffff16565b91506111d381611b27565b9050611178565b508015610b2a576111ec816003611320565b905061123d81610bfd600660008154811061121a5760e060020a634e487b7102600052603260045260246000fd5b90600052602060002090600402016001015460085461137e90919063ffffffff16565b6008819055508060066000815481106112695760e060020a634e487b7102600052603260045260246000fd5b9060005260206000209060040201600101819055505050565b60008261129157506000610d35565b600061129d8385611ac5565b9050826112aa8583611aa2565b14610d325760405160e560020a62461bcd02815260206004820152602160248201527f536166654d6174683a206d756c7469706c69636174696f6e206f766572666c6f60448201527f770000000000000000000000000000000000000000000000000000000000000060648201526084016103eb565b60008082116113745760405160e560020a62461bcd02815260206004820152601a60248201527f536166654d6174683a206469766973696f6e206279207a65726f00000000000060448201526064016103eb565b610d328284611aa2565b6000828211156113d35760405160e560020a62461bcd02815260206004820152601e60248201527f536166654d6174683a207375627472616374696f6e206f766572666c6f77000060448201526064016103eb565b610d328284611ae4565b6001546040517f70a08231000000000000000000000000000000000000000000000000000000008152306004820152600091600160a060020a0316906370a082319060240160206040518083038186803b15801561143a57600080fd5b505afa15801561144e573d6000803e3d6000fd5b505050506040513d601f19601f820116820180604052508101906114729190611930565b90508082111561151c576001546040517fa9059cbb000000000000000000000000000000000000000000000000000000008152600160a060020a038581166004830152602482018490529091169063a9059cbb906044015b602060405180830381600087803b1580156114e457600080fd5b505af11580156114f8573d6000803e3d6000fd5b505050506040513d601f19601f8201168201806040525081019061052991906118fc565b6001546040517fa9059cbb000000000000000000000000000000000000000000000000000000008152600160a060020a038581166004830152602482018590529091169063a9059cbb906044016114ca565b505050565b604051600160a060020a03831660248201526044810182905261156e9084907fa9059cbb00000000000000000000000000000000000000000000000000000000906064015b60408051601f198184030181529190526020810180517bffffffffffffffffffffffffffffffffffffffffffffffffffffffff167fffffffff000000000000000000000000000000000000000000000000000000009093169290921790915261166d565b604051600160a060020a03808516602483015283166044820152606481018290526105299085907f23b872dd00000000000000000000000000000000000000000000000000000000906084016115b8565b60006116c2826040518060400160405280602081526020017f5361666545524332303a206c6f772d6c6576656c2063616c6c206661696c656481525085600160a060020a03166117559092919063ffffffff16565b80519091501561156e57808060200190518101906116e091906118fc565b61156e5760405160e560020a62461bcd02815260206004820152602a60248201527f5361666545524332303a204552433230206f7065726174696f6e20646964206e60448201527f6f7420737563636565640000000000000000000000000000000000000000000060648201526084016103eb565b6060611764848460008561176e565b90505b9392505050565b606030318311156117ea5760405160e560020a62461bcd02815260206004820152602660248201527f416464726573733a20696e73756666696369656e742062616c616e636520666f60448201527f722063616c6c000000000000000000000000000000000000000000000000000060648201526084016103eb565b843b61183b5760405160e560020a62461bcd02815260206004820152601d60248201527f416464726573733a2063616c6c20746f206e6f6e2d636f6e747261637400000060448201526064016103eb565b60008086600160a060020a031685876040516118579190611a06565b60006040518083038185875af1925050503d8060008114611894576040519150601f19603f3d011682016040523d82523d6000602084013e611899565b606091505b5091509150611103828286606083156118b3575081611767565b8251156118c35782518084602001fd5b8160405160e560020a62461bcd0281526004016103eb9190611a22565b6000602082840312156118f1578081fd5b8135610d3281611b5b565b60006020828403121561190d578081fd5b8151610d3281611b73565b600060208284031215611929578081fd5b5035919050565b600060208284031215611941578081fd5b5051919050565b6000806040838503121561195a578081fd5b82359150602083013561196c81611b5b565b809150509250929050565b60008060006060848603121561198b578081fd5b83359250602084013561199d81611b5b565b915060408401356119ad81611b73565b809150509250925092565b600080604083850312156119ca578182fd5b50508035926020909101359150565b6000806000606084860312156119ed578283fd5b833592506020840135915060408401356119ad81611b73565b60008251611a18818460208701611afb565b9190910192915050565b6020815260008251806020840152611a41816040850160208701611afb565b601f01601f19169190910160400192915050565b6020808252818101527f4f776e61626c653a2063616c6c6572206973206e6f7420746865206f776e6572604082015260600190565b60008219821115611a9d57611a9d611b42565b500190565b600082611ac05760e060020a634e487b710281526012600452602481fd5b500490565b6000816000190483118215151615611adf57611adf611b42565b500290565b600082821015611af657611af6611b42565b500390565b60005b83811015611b16578181015183820152602001611afe565b838111156105295750506000910152565b6000600019821415611b3b57611b3b611b42565b5060010190565b60e060020a634e487b7102600052601160045260246000fd5b600160a060020a0381168114611b7057600080fd5b50565b8015158114611b7057600080fdfea2646970667358221220c67497818fb7587f93696b585dd1875c80a71c15e3ea4cb83a2664c45532ed6d64736f6c63430008040033",
  "immutableReferences": {},
  "source": "// SPDX-License-Identifier: MIT\n\npragma solidity >=0.4.22 <0.9.0;\n\nimport './library/SafeMath.sol';\nimport \"@openzeppelin/contracts/token/ERC20/IERC20.sol\";\nimport \"@openzeppelin/contracts/token/ERC20/utils/SafeERC20.sol\";\nimport \"@openzeppelin/contracts/access/Ownable.sol\";\n\nimport \"./token/TuviellaToken.sol\";\n\ncontract Staking is Ownable {\n    using SafeMath for uint256;\n    using SafeERC20 for IERC20;\n\n    // Info of each user.\n    struct UserInfo {\n        uint256 amount;     // How many tokens the user has provided.\n        uint256 rewardDebt; // Reward debt. See explanation below.\n        //\n        // We do some fancy math here. Basically, any point in time, the amount of CAKEs\n        // entitled to a user but is pending to be distributed is:\n        //\n        //   pending reward = (user.amount * pool.accViellasPerShare) - user.rewardDebt\n        //\n        // Whenever a user deposits or withdraws LP tokens to a pool. Here's what happens:\n        //   1. The pool's `accViellasPerShare` (and `lastRewardBlock`) gets updated.\n        //   2. User receives the pending reward sent to his/her address.\n        //   3. User's `amount` gets updated.\n        //   4. User's `rewardDebt` gets updated.\n    }\n\n    // Info of each pool.\n    struct PoolInfo {\n        IERC20 stakedToken;       // Address of staked token contract.\n        uint256 allocPoint;       // How many allocation points assigned to this pool. TUVIELLAs to distribute per block.\n        uint256 lastRewardBlock;  // Last block number that TUVIELLAs distribution occurs.\n        uint256 accViellasPerShare;   // Accumulated TUVIELLAs per share, times 1e12. See below.\n    }\n\n    // The TUVIELLA TOKEN!\n    TuviellaToken public viellas;\n    // Dev address.\n    address public devaddr;\n    address public devSetter;\n    // TUVIELLAs tokens created per block.\n    uint256 public viellasPerBlock;\n    // Bonus muliplier for early tvt makers.\n    uint256 public BONUS_MULTIPLIER = 1;\n\n    // Info of each pool.\n    PoolInfo[] public poolInfo;\n    // Info of each user that stakes tokens.\n    mapping (uint256 => mapping (address => UserInfo)) public userInfo;\n    // Total allocation points. Must be the sum of all allocation points in all pools.\n    uint256 public totalAllocPoint = 0;\n    // The block number when TUVIELLA mining starts.\n    uint256 public startBlock;\n\n    event Deposit(address indexed user, uint256 indexed pid, uint256 amount);\n    event Withdraw(address indexed user, uint256 indexed pid, uint256 amount);\n    event EmergencyWithdraw(address indexed user, uint256 indexed pid, uint256 amount);\n\n    constructor(\n        TuviellaToken _viellas,\n        address _devaddr,\n        address _devSetter,\n        uint256 _viellasPerBlock,\n        uint256 _startBlock\n    ) {\n        viellas = _viellas;\n        devaddr = _devaddr;\n        devSetter = _devSetter;\n        viellasPerBlock = _viellasPerBlock;\n        startBlock = _startBlock;\n\n        // staking pool\n        poolInfo.push(PoolInfo({\n            stakedToken: _viellas,\n            allocPoint: 1000,\n            lastRewardBlock: startBlock,\n            accViellasPerShare: 0\n        }));\n\n        totalAllocPoint = 1000;\n\n    }\n\n    function updateMultiplier(uint256 multiplierNumber) public onlyOwner {\n        BONUS_MULTIPLIER = multiplierNumber;\n    }\n\n    function poolLength() external view returns (uint256) {\n        return poolInfo.length;\n    }\n\n    // Add a new staking token to the pool. Can only be called by the owner.\n    // XXX DO NOT add the same staking token more than once. Rewards will be messed up if you do.\n    function add(uint256 _allocPoint, IERC20 _stakedToken, bool _withUpdate) public onlyOwner {\n        if (_withUpdate) {\n            massUpdatePools();\n        }\n        uint256 lastRewardBlock = block.number > startBlock ? block.number : startBlock;\n        totalAllocPoint = totalAllocPoint.add(_allocPoint);\n        poolInfo.push(PoolInfo({\n            stakedToken: _stakedToken,\n            allocPoint: _allocPoint,\n            lastRewardBlock: lastRewardBlock,\n            accViellasPerShare: 0\n        }));\n        updateStakingPool();\n    }\n\n    // Update the given pool's TUVIELLA allocation point. Can only be called by the owner.\n    function set(uint256 _pid, uint256 _allocPoint, bool _withUpdate) public onlyOwner {\n        if (_withUpdate) {\n            massUpdatePools();\n        }\n        uint256 prevAllocPoint = poolInfo[_pid].allocPoint;\n        poolInfo[_pid].allocPoint = _allocPoint;\n        if (prevAllocPoint != _allocPoint) {\n            totalAllocPoint = totalAllocPoint.sub(prevAllocPoint).add(_allocPoint);\n            updateStakingPool();\n        }\n    }\n\n    function updateStakingPool() internal {\n        uint256 length = poolInfo.length;\n        uint256 points = 0;\n        for (uint256 pid = 1; pid < length; ++pid) {\n            points = points.add(poolInfo[pid].allocPoint);\n        }\n        if (points != 0) {\n            points = points.div(3);\n            totalAllocPoint = totalAllocPoint.sub(poolInfo[0].allocPoint).add(points);\n            poolInfo[0].allocPoint = points;\n        }\n    }\n\n    // Return reward multiplier over the given _from to _to block.\n    function getMultiplier(uint256 _from, uint256 _to) public view returns (uint256) {\n        return _to.sub(_from).mul(BONUS_MULTIPLIER);\n    }\n\n    // View function to see pending TUVIELLAs on frontend.\n    function pendingViellas(uint256 _pid, address _user) external view returns (uint256) {\n        PoolInfo storage pool = poolInfo[_pid];\n        UserInfo storage user = userInfo[_pid][_user];\n        uint256 accViellasPerShare = pool.accViellasPerShare;\n        uint256 stakedSupply = pool.stakedToken.balanceOf(address(this));\n        if (block.number > pool.lastRewardBlock && stakedSupply != 0) {\n            uint256 multiplier = getMultiplier(pool.lastRewardBlock, block.number);\n            uint256 viellasReward = multiplier.mul(viellasPerBlock).mul(pool.allocPoint).div(totalAllocPoint);\n            accViellasPerShare = accViellasPerShare.add(viellasReward.mul(1e12).div(stakedSupply));\n        }\n        return user.amount.mul(accViellasPerShare).div(1e12).sub(user.rewardDebt);\n    }\n\n    // Update reward variables for all pools. Be careful of gas spending!\n    function massUpdatePools() public {\n        uint256 length = poolInfo.length;\n        for (uint256 pid = 0; pid < length; ++pid) {\n            updatePool(pid);\n        }\n    }\n\n\n    // Update reward variables of the given pool to be up-to-date.\n    function updatePool(uint256 _pid) public {\n        require(viellas.totalSupply() <= 1000000 ether, \"TUVIELLA cannot be minted\");\n        PoolInfo storage pool = poolInfo[_pid];\n        if (block.number <= pool.lastRewardBlock) {\n            return;\n        }\n        uint256 stakedSupply = pool.stakedToken.balanceOf(address(this));\n        if (stakedSupply == 0) {\n            pool.lastRewardBlock = block.number;\n            return;\n        }\n        uint256 multiplier = getMultiplier(pool.lastRewardBlock, block.number);\n        uint256 viellasReward = multiplier.mul(viellasPerBlock).mul(pool.allocPoint).div(totalAllocPoint);\n\n        viellas.mint(devaddr, viellasReward.div(10));\n        viellas.mint(address(this), viellasReward);\n\n        pool.accViellasPerShare = pool.accViellasPerShare.add(viellasReward.mul(1e12).div(stakedSupply));\n        pool.lastRewardBlock = block.number;\n    }\n\n    // Deposit LP tokens to MasterChef for TUVIELLA allocation.\n    function deposit(uint256 _pid, uint256 _amount) public {\n\n        PoolInfo storage pool = poolInfo[_pid];\n        UserInfo storage user = userInfo[_pid][msg.sender];\n        updatePool(_pid);\n        if (user.amount > 0) {\n            uint256 pending = user.amount.mul(pool.accViellasPerShare).div(1e12).sub(user.rewardDebt);\n            if(pending > 0) {\n                safeViellasTransfer(msg.sender, pending);\n            }\n        }\n        if (_amount > 0) {\n            pool.stakedToken.safeTransferFrom(address(msg.sender), address(this), _amount);\n            user.amount = user.amount.add(_amount);\n        }\n        user.rewardDebt = user.amount.mul(pool.accViellasPerShare).div(1e12);\n        emit Deposit(msg.sender, _pid, _amount);\n    }\n\n    // Withdraw LP tokens from MasterChef.\n    function withdraw(uint256 _pid, uint256 _amount) public {\n\n        PoolInfo storage pool = poolInfo[_pid];\n        UserInfo storage user = userInfo[_pid][msg.sender];\n        require(user.amount >= _amount, \"withdraw exceeds user balance\");\n\n        updatePool(_pid);\n        uint256 pending = user.amount.mul(pool.accViellasPerShare).div(1e12).sub(user.rewardDebt);\n        if(pending > 0) {\n            safeViellasTransfer(msg.sender, pending);\n        }\n        if(_amount > 0) {\n            user.amount = user.amount.sub(_amount);\n            pool.stakedToken.safeTransfer(address(msg.sender), _amount);\n        }\n        user.rewardDebt = user.amount.mul(pool.accViellasPerShare).div(1e12);\n        emit Withdraw(msg.sender, _pid, _amount);\n    }\n\n    // Withdraw without caring about rewards. EMERGENCY ONLY.\n    function emergencyWithdraw(uint256 _pid) public {\n        PoolInfo storage pool = poolInfo[_pid];\n        UserInfo storage user = userInfo[_pid][msg.sender];\n        pool.stakedToken.safeTransfer(address(msg.sender), user.amount);\n        emit EmergencyWithdraw(msg.sender, _pid, user.amount);\n        user.amount = 0;\n        user.rewardDebt = 0;\n    }\n\n    // Safe cake transfer function, just in case if rounding error causes pool to not have enough CAKEs.\n    function safeViellasTransfer(address _to, uint256 _amount) internal {\n        uint256 viellasBalance = viellas.balanceOf(address(this));\n        if (_amount > viellasBalance) {\n            viellas.transfer(_to, viellasBalance);\n        } else {\n            viellas.transfer(_to, _amount);\n        }\n    }\n\n    // Update dev address by the previous dev.\n    function dev(address _devaddr) public {\n        require(msg.sender == devSetter, \"devSetter: wut?\");\n        devaddr = _devaddr;\n    }\n}\n",
  "sourcePath": "/Users/guillermo/Projects/crypto/tuviella-contract/contracts/Staking.sol",
  "compiler": {
    "name": "solc",
    "version": "0.8.4+commit.c7e474f2.Emscripten.clang"
  },
  "schemaVersion": "3.4.1",
  "updatedAt": "2021-08-10T15:52:11.019Z",
  "devdoc": {
    "kind": "dev",
    "methods": {
      "owner()": {
        "details": "Returns the address of the current owner."
      },
      "renounceOwnership()": {
        "details": "Leaves the contract without owner. It will not be possible to call `onlyOwner` functions anymore. Can only be called by the current owner. NOTE: Renouncing ownership will leave the contract without an owner, thereby removing any functionality that is only available to the owner."
      },
      "transferOwnership(address)": {
        "details": "Transfers ownership of the contract to a new account (`newOwner`). Can only be called by the current owner."
      }
    },
    "version": 1
  },
  "userdoc": {
    "kind": "user",
    "methods": {},
    "version": 1
  }
}