{
  "contractName": "Staking",
  "abi": [
    {
      "inputs": [
        {
          "internalType": "contract TuviellaToken",
          "name": "_viellas",
          "type": "address"
        },
        {
          "internalType": "address",
          "name": "_devaddr",
          "type": "address"
        },
        {
          "internalType": "address",
          "name": "_devSetter",
          "type": "address"
        },
        {
          "internalType": "uint256",
          "name": "_viellasPerBlock",
          "type": "uint256"
        },
        {
          "internalType": "uint256",
          "name": "_startBlock",
          "type": "uint256"
        },
        {
          "internalType": "contract IReward",
          "name": "_rewardContract",
          "type": "address"
        }
      ],
      "stateMutability": "nonpayable",
      "type": "constructor"
    },
    {
      "anonymous": false,
      "inputs": [
        {
          "indexed": true,
          "internalType": "address",
          "name": "user",
          "type": "address"
        },
        {
          "indexed": true,
          "internalType": "uint256",
          "name": "pid",
          "type": "uint256"
        },
        {
          "indexed": false,
          "internalType": "uint256",
          "name": "amount",
          "type": "uint256"
        }
      ],
      "name": "Deposit",
      "type": "event"
    },
    {
      "anonymous": false,
      "inputs": [
        {
          "indexed": true,
          "internalType": "address",
          "name": "user",
          "type": "address"
        },
        {
          "indexed": true,
          "internalType": "uint256",
          "name": "pid",
          "type": "uint256"
        },
        {
          "indexed": false,
          "internalType": "uint256",
          "name": "amount",
          "type": "uint256"
        }
      ],
      "name": "EmergencyWithdraw",
      "type": "event"
    },
    {
      "anonymous": false,
      "inputs": [
        {
          "indexed": true,
          "internalType": "address",
          "name": "previousOwner",
          "type": "address"
        },
        {
          "indexed": true,
          "internalType": "address",
          "name": "newOwner",
          "type": "address"
        }
      ],
      "name": "OwnershipTransferred",
      "type": "event"
    },
    {
      "anonymous": false,
      "inputs": [
        {
          "indexed": true,
          "internalType": "address",
          "name": "user",
          "type": "address"
        },
        {
          "indexed": true,
          "internalType": "uint256",
          "name": "pid",
          "type": "uint256"
        },
        {
          "indexed": false,
          "internalType": "uint256",
          "name": "amount",
          "type": "uint256"
        }
      ],
      "name": "Withdraw",
      "type": "event"
    },
    {
      "inputs": [],
      "name": "BONUS_MULTIPLIER",
      "outputs": [
        {
          "internalType": "uint256",
          "name": "",
          "type": "uint256"
        }
      ],
      "stateMutability": "view",
      "type": "function",
      "constant": true
    },
    {
      "inputs": [],
      "name": "devSetter",
      "outputs": [
        {
          "internalType": "address",
          "name": "",
          "type": "address"
        }
      ],
      "stateMutability": "view",
      "type": "function",
      "constant": true
    },
    {
      "inputs": [],
      "name": "devaddr",
      "outputs": [
        {
          "internalType": "address",
          "name": "",
          "type": "address"
        }
      ],
      "stateMutability": "view",
      "type": "function",
      "constant": true
    },
    {
      "inputs": [],
      "name": "initialViellasPerBlock",
      "outputs": [
        {
          "internalType": "uint256",
          "name": "",
          "type": "uint256"
        }
      ],
      "stateMutability": "view",
      "type": "function",
      "constant": true
    },
    {
      "inputs": [],
      "name": "owner",
      "outputs": [
        {
          "internalType": "address",
          "name": "",
          "type": "address"
        }
      ],
      "stateMutability": "view",
      "type": "function",
      "constant": true
    },
    {
      "inputs": [
        {
          "internalType": "uint256",
          "name": "",
          "type": "uint256"
        }
      ],
      "name": "poolInfo",
      "outputs": [
        {
          "internalType": "contract IERC20",
          "name": "stakedToken",
          "type": "address"
        },
        {
          "internalType": "uint256",
          "name": "allocPoint",
          "type": "uint256"
        },
        {
          "internalType": "uint256",
          "name": "lastRewardBlock",
          "type": "uint256"
        },
        {
          "internalType": "uint256",
          "name": "accViellasPerShare",
          "type": "uint256"
        }
      ],
      "stateMutability": "view",
      "type": "function",
      "constant": true
    },
    {
      "inputs": [],
      "name": "renounceOwnership",
      "outputs": [],
      "stateMutability": "nonpayable",
      "type": "function"
    },
    {
      "inputs": [],
      "name": "rewardContract",
      "outputs": [
        {
          "internalType": "contract IReward",
          "name": "",
          "type": "address"
        }
      ],
      "stateMutability": "view",
      "type": "function",
      "constant": true
    },
    {
      "inputs": [],
      "name": "startBlock",
      "outputs": [
        {
          "internalType": "uint256",
          "name": "",
          "type": "uint256"
        }
      ],
      "stateMutability": "view",
      "type": "function",
      "constant": true
    },
    {
      "inputs": [],
      "name": "totalAllocPoint",
      "outputs": [
        {
          "internalType": "uint256",
          "name": "",
          "type": "uint256"
        }
      ],
      "stateMutability": "view",
      "type": "function",
      "constant": true
    },
    {
      "inputs": [
        {
          "internalType": "address",
          "name": "newOwner",
          "type": "address"
        }
      ],
      "name": "transferOwnership",
      "outputs": [],
      "stateMutability": "nonpayable",
      "type": "function"
    },
    {
      "inputs": [
        {
          "internalType": "uint256",
          "name": "",
          "type": "uint256"
        },
        {
          "internalType": "address",
          "name": "",
          "type": "address"
        }
      ],
      "name": "userInfo",
      "outputs": [
        {
          "internalType": "uint256",
          "name": "amount",
          "type": "uint256"
        },
        {
          "internalType": "uint256",
          "name": "rewardDebt",
          "type": "uint256"
        }
      ],
      "stateMutability": "view",
      "type": "function",
      "constant": true
    },
    {
      "inputs": [],
      "name": "viellas",
      "outputs": [
        {
          "internalType": "contract TuviellaToken",
          "name": "",
          "type": "address"
        }
      ],
      "stateMutability": "view",
      "type": "function",
      "constant": true
    },
    {
      "inputs": [],
      "name": "viellasPerBlock",
      "outputs": [
        {
          "internalType": "uint256",
          "name": "",
          "type": "uint256"
        }
      ],
      "stateMutability": "view",
      "type": "function",
      "constant": true
    },
    {
      "inputs": [
        {
          "internalType": "uint256",
          "name": "multiplierNumber",
          "type": "uint256"
        }
      ],
      "name": "updateMultiplier",
      "outputs": [],
      "stateMutability": "nonpayable",
      "type": "function"
    },
    {
      "inputs": [],
      "name": "poolLength",
      "outputs": [
        {
          "internalType": "uint256",
          "name": "",
          "type": "uint256"
        }
      ],
      "stateMutability": "view",
      "type": "function",
      "constant": true
    },
    {
      "inputs": [
        {
          "internalType": "uint256",
          "name": "_allocPoint",
          "type": "uint256"
        },
        {
          "internalType": "contract IERC20",
          "name": "_stakedToken",
          "type": "address"
        },
        {
          "internalType": "bool",
          "name": "_withUpdate",
          "type": "bool"
        }
      ],
      "name": "add",
      "outputs": [],
      "stateMutability": "nonpayable",
      "type": "function"
    },
    {
      "inputs": [
        {
          "internalType": "uint256",
          "name": "_pid",
          "type": "uint256"
        },
        {
          "internalType": "uint256",
          "name": "_allocPoint",
          "type": "uint256"
        },
        {
          "internalType": "bool",
          "name": "_withUpdate",
          "type": "bool"
        }
      ],
      "name": "set",
      "outputs": [],
      "stateMutability": "nonpayable",
      "type": "function"
    },
    {
      "inputs": [
        {
          "internalType": "uint256",
          "name": "_from",
          "type": "uint256"
        },
        {
          "internalType": "uint256",
          "name": "_to",
          "type": "uint256"
        }
      ],
      "name": "getMultiplier",
      "outputs": [
        {
          "internalType": "uint256",
          "name": "",
          "type": "uint256"
        }
      ],
      "stateMutability": "view",
      "type": "function",
      "constant": true
    },
    {
      "inputs": [
        {
          "internalType": "uint256",
          "name": "_pid",
          "type": "uint256"
        },
        {
          "internalType": "address",
          "name": "_user",
          "type": "address"
        }
      ],
      "name": "pendingViellas",
      "outputs": [
        {
          "internalType": "uint256",
          "name": "",
          "type": "uint256"
        }
      ],
      "stateMutability": "view",
      "type": "function",
      "constant": true
    },
    {
      "inputs": [],
      "name": "massUpdatePools",
      "outputs": [],
      "stateMutability": "nonpayable",
      "type": "function"
    },
    {
      "inputs": [
        {
          "internalType": "uint256",
          "name": "_pid",
          "type": "uint256"
        }
      ],
      "name": "updatePool",
      "outputs": [],
      "stateMutability": "nonpayable",
      "type": "function"
    },
    {
      "inputs": [
        {
          "internalType": "uint256",
          "name": "_pid",
          "type": "uint256"
        },
        {
          "internalType": "uint256",
          "name": "_amount",
          "type": "uint256"
        }
      ],
      "name": "deposit",
      "outputs": [],
      "stateMutability": "nonpayable",
      "type": "function"
    },
    {
      "inputs": [
        {
          "internalType": "uint256",
          "name": "_pid",
          "type": "uint256"
        },
        {
          "internalType": "uint256",
          "name": "_amount",
          "type": "uint256"
        }
      ],
      "name": "withdraw",
      "outputs": [],
      "stateMutability": "nonpayable",
      "type": "function"
    },
    {
      "inputs": [
        {
          "internalType": "uint256",
          "name": "_pid",
          "type": "uint256"
        }
      ],
      "name": "emergencyWithdraw",
      "outputs": [],
      "stateMutability": "nonpayable",
      "type": "function"
    },
    {
      "inputs": [
        {
          "internalType": "address",
          "name": "_devaddr",
          "type": "address"
        }
      ],
      "name": "dev",
      "outputs": [],
      "stateMutability": "nonpayable",
      "type": "function"
    },
    {
      "inputs": [
        {
          "internalType": "uint256",
          "name": "_pid",
          "type": "uint256"
        }
      ],
      "name": "brrr",
      "outputs": [],
      "stateMutability": "nonpayable",
      "type": "function"
    },
    {
      "inputs": [],
      "name": "reinvest",
      "outputs": [],
      "stateMutability": "nonpayable",
      "type": "function"
    },
    {
      "inputs": [
        {
          "internalType": "contract IERC20",
          "name": "token",
          "type": "address"
        }
      ],
      "name": "findPidOf",
      "outputs": [
        {
          "internalType": "uint256",
          "name": "_pid",
          "type": "uint256"
        }
      ],
      "stateMutability": "view",
      "type": "function",
      "constant": true
    },
    {
      "inputs": [],
      "name": "halving",
      "outputs": [],
      "stateMutability": "nonpayable",
      "type": "function"
    }
  ],
  "bytecode": "0x608060405260016007556000600a553480156200001b57600080fd5b506040516200241c3803806200241c8339810160408190526200003e91620001e8565b600062000053640100000000620001e4810204565b60008054600160a060020a031916600160a060020a0383169081178255604051929350917f8be0079c531659141344cd1fd0a4f28419497f9722a3daafe3b4186f6b6457e0908290a35060018054600160a060020a0319908116600160a060020a039889169081178355600380548316988a16989098179097556004805482169689169690961786556005948555600b84905560028054821693891693909317909255604080516080810182529687526103e86020880181815291880194855260006060890181815260088054958601815590915297517ff3f7a9fe364faab93b216da50a3214154f22a0a2b415b23a84c8169e8b636ee3939097029283018054909416969098169590951790915592517ff3f7a9fe364faab93b216da50a3214154f22a0a2b415b23a84c8169e8b636ee4840155517ff3f7a9fe364faab93b216da50a3214154f22a0a2b415b23a84c8169e8b636ee583015591517ff3f7a9fe364faab93b216da50a3214154f22a0a2b415b23a84c8169e8b636ee690910155600a91909155546006556200027d565b3390565b60008060008060008060c0878903121562000201578182fd5b86516200020e8162000264565b6020880151909650620002218162000264565b6040880151909550620002348162000264565b80945050606087015192506080870151915060a0870151620002568162000264565b809150509295509295509295565b600160a060020a03811681146200027a57600080fd5b50565b61218f806200028d6000396000f3fe608060405234801561001057600080fd5b50600436106101de5760003560e060020a900480638d88a90e11610108578063c8df245a116100a6578063f2fde38b11610075578063f2fde38b146103f8578063f49ca2b51461040b578063fdb5a03e1461041e578063ffaa94291461042657600080fd5b8063c8df245a146103c1578063d0014e6b146103c9578063d49e77cd146103d2578063e2bbb158146103e557600080fd5b806393f1a40b116100e257806393f1a40b1461034b578063948b108b14610392578063a55cc45f1461039b578063b667e14b146103ae57600080fd5b80638d88a90e146103145780638da5cb5b146103275780638dbb1e3a1461033857600080fd5b806351eb05a61161018057806364482f791161014f57806364482f79146102c55780636ea69d62146102d8578063715018a6146103035780638aa285501461030b57600080fd5b806351eb05a6146102845780635312ea8e146102975780635ffe6146146102aa578063630b5ba1146102bd57600080fd5b806317caf6f1116101bc57806317caf6f11461024a5780631eaaa04514610253578063441a3e701461026857806348cd4cb11461027b57600080fd5b8063081e3eda146101e35780631526fe27146101fa578063161d646714610237575b600080fd5b6008545b6040519081526020015b60405180910390f35b61020d610208366004611e02565b610439565b60408051600160a060020a03909516855260208501939093529183015260608201526080016101f1565b6101e7610245366004611dca565b61047d565b6101e7600a5481565b610266610261366004611e61565b6104f5565b005b610266610276366004611ea2565b610666565b6101e7600b5481565b610266610292366004611e02565b610843565b6102666102a5366004611e02565b610b58565b6102666102b8366004611e02565b610c0b565b610266610c3d565b6102666102d3366004611ec3565b610c68565b6002546102eb90600160a060020a031681565b604051600160a060020a0390911681526020016101f1565b610266610d48565b6101e760075481565b610266610322366004611dca565b610dcc565b600054600160a060020a03166102eb565b6101e7610346366004611ea2565b610e58565b61037d610359366004611e32565b60096020908152600092835260408084209091529082529020805460019091015482565b604080519283526020830191909152016101f1565b6101e760065481565b6004546102eb90600160a060020a031681565b6001546102eb90600160a060020a031681565b610266610e75565b6101e760055481565b6003546102eb90600160a060020a031681565b6102666103f3366004611ea2565b610f02565b610266610406366004611dca565b611089565b610266610419366004611e02565b61119d565b610266611414565b6101e7610434366004611e32565b6115fa565b6008818154811061044957600080fd5b60009182526020909120600490910201805460018201546002830154600390930154600160a060020a039092169350919084565b600854600090815b818110156104ee57600881815481106104b15760e060020a634e487b7102600052603260045260246000fd5b6000918252602090912060049091020154600160a060020a03858116911614156104dc579392505050565b806104e6816120ff565b915050610485565b5050919050565b600054600160a060020a0316331461052b5760405160e560020a62461bcd02815260040161052290611f3f565b60405180910390fd5b801561053957610539610c3d565b6000600b54431161054c57600b5461054e565b435b600a5490915061055e9085611789565b600a5560408051608081018252600160a060020a0385811682526020820187815292820184815260006060840181815260088054600181018255925293517ff3f7a9fe364faab93b216da50a3214154f22a0a2b415b23a84c8169e8b636ee36004909202918201805473ffffffffffffffffffffffffffffffffffffffff1916919094161790925592517ff3f7a9fe364faab93b216da50a3214154f22a0a2b415b23a84c8169e8b636ee482015591517ff3f7a9fe364faab93b216da50a3214154f22a0a2b415b23a84c8169e8b636ee5830155517ff3f7a9fe364faab93b216da50a3214154f22a0a2b415b23a84c8169e8b636ee6909101556106606117eb565b50505050565b60006008838154811061068c5760e060020a634e487b7102600052603260045260246000fd5b6000918252602080832086845260098252604080852033865290925292208054600490920290920192508311156107085760405160e560020a62461bcd02815260206004820152601d60248201527f7769746864726177206578636565647320757365722062616c616e63650000006044820152606401610522565b61071184610843565b600061074b826001015461074564e8d4a5100061073f876003015487600001546118fd90919063ffffffff16565b9061199b565b906119f9565b905080156107bb5760025460405160e060020a637bf0862102815233600482015260248101839052600160a060020a0390911690637bf0862190604401600060405180830381600087803b1580156107a257600080fd5b505af11580156107b6573d6000803e3d6000fd5b505050505b83156107e55781546107cd90856119f9565b825582546107e590600160a060020a03163386611a58565b600383015482546108009164e8d4a510009161073f916118fd565b6001830155604051848152859033907ff279e6a1f5e320cca91135676d9cb6e44ca8a08c0b88342bcdb1144f6511b5689060200160405180910390a35050505050565b6000600882815481106108695760e060020a634e487b7102600052603260045260246000fd5b9060005260206000209060040201905080600201544311610888575050565b80546040517f70a08231000000000000000000000000000000000000000000000000000000008152306004820152600091600160a060020a0316906370a082319060240160206040518083038186803b1580156108e457600080fd5b505afa1580156108f8573d6000803e3d6000fd5b505050506040513d601f19601f8201168201806040525081019061091c9190611e1a565b90508061092e57504360029091015550565b600061093e836002015443610e58565b9050600061096b600a5461073f8660010154610965600554876118fd90919063ffffffff16565b906118fd565b905061097d600a61073f83600b6118fd565b6109919069d3c21bcecceda10000006120bc565b600160009054906101000a9004600160a060020a0316600160a060020a03166318160ddd6040518163ffffffff1660e060020a02815260040160206040518083038186803b1580156109e257600080fd5b505afa1580156109f6573d6000803e3d6000fd5b505050506040513d601f19601f82011682018060405250810190610a1a9190611e1a565b1015610b2257600154600354600160a060020a03918216916340c10f199116610a4484600a61199b565b60405160e060020a63ffffffff8516028152600160a060020a0390921660048301526024820152604401600060405180830381600087803b158015610a8857600080fd5b505af1158015610a9c573d6000803e3d6000fd5b50506001546002546040517f40c10f19000000000000000000000000000000000000000000000000000000008152600160a060020a03918216600482015260248101869052911692506340c10f199150604401600060405180830381600087803b158015610b0957600080fd5b505af1158015610b1d573d6000803e3d6000fd5b505050505b610b43610b388461073f8464e8d4a510006118fd565b600386015490611789565b60038501555050436002909201919091555050565b600060088281548110610b7e5760e060020a634e487b7102600052603260045260246000fd5b60009182526020808320858452600982526040808520338087529352909320805460049093029093018054909450610bc392600160a060020a03919091169190611a58565b8054604051908152839033907fbb757047c2b5f3974fe26b7c10f732e7bce710b0952a71082702781e62ae05959060200160405180910390a360008082556001909101555050565b600054600160a060020a03163314610c385760405160e560020a62461bcd02815260040161052290611f3f565b600755565b60085460005b81811015610c6457610c5481610843565b610c5d816120ff565b9050610c43565b5050565b600054600160a060020a03163314610c955760405160e560020a62461bcd02815260040161052290611f3f565b8015610ca357610ca3610c3d565b600060088481548110610cc95760e060020a634e487b7102600052603260045260246000fd5b90600052602060002090600402016001015490508260088581548110610d025760e060020a634e487b7102600052603260045260246000fd5b90600052602060002090600402016001018190555082811461066057610d3d83610d3783600a546119f990919063ffffffff16565b90611789565b600a556106606117eb565b600054600160a060020a03163314610d755760405160e560020a62461bcd02815260040161052290611f3f565b60008054604051600160a060020a03909116907f8be0079c531659141344cd1fd0a4f28419497f9722a3daafe3b4186f6b6457e0908390a36000805473ffffffffffffffffffffffffffffffffffffffff19169055565b600454600160a060020a03163314610e295760405160e560020a62461bcd02815260206004820152600f60248201527f6465765365747465723a207775743f00000000000000000000000000000000006044820152606401610522565b6003805473ffffffffffffffffffffffffffffffffffffffff1916600160a060020a0392909216919091179055565b600754600090610e6c9061096584866119f9565b90505b92915050565b600054600160a060020a03163314610ea25760405160e560020a62461bcd02815260040161052290611f3f565b600b54431115610eae57565b6000600b5443610ebe91906120bc565b9050600080610ecd838261199b565b90506000610ee8610edf836002611ff4565b6006549061199b565b9050806005541415610efa5750505050565b600555505050565b600060088381548110610f285760e060020a634e487b7102600052603260045260246000fd5b60009182526020808320868452600982526040808520338652909252922060049091029091019150610f5984610843565b805415611000576000610f8e826001015461074564e8d4a5100061073f876003015487600001546118fd90919063ffffffff16565b90508015610ffe5760025460405160e060020a637bf0862102815233600482015260248101839052600160a060020a0390911690637bf0862190604401600060405180830381600087803b158015610fe557600080fd5b505af1158015610ff9573d6000803e3d6000fd5b505050505b505b821561102c57815461101d90600160a060020a0316333086611b06565b80546110299084611789565b81555b600382015481546110479164e8d4a510009161073f916118fd565b6001820155604051838152849033907f90890809c654f11d6e72a28fa60149770a0d11ec6c92319d6ceb2bb0a4ea1a159060200160405180910390a350505050565b600054600160a060020a031633146110b65760405160e560020a62461bcd02815260040161052290611f3f565b600160a060020a0381166111355760405160e560020a62461bcd02815260206004820152602660248201527f4f776e61626c653a206e6577206f776e657220697320746865207a65726f206160448201527f64647265737300000000000000000000000000000000000000000000000000006064820152608401610522565b60008054604051600160a060020a03808516939216917f8be0079c531659141344cd1fd0a4f28419497f9722a3daafe3b4186f6b6457e091a36000805473ffffffffffffffffffffffffffffffffffffffff1916600160a060020a0392909216919091179055565b6111a681610843565b6000600882815481106111cc5760e060020a634e487b7102600052603260045260246000fd5b6000918252602080832085845260098252604080852033865290925281842060049384029091016003810154815493517f70a082310000000000000000000000000000000000000000000000000000000081523095810195909552909550909390929091600160a060020a0316906370a082319060240160206040518083038186803b15801561125b57600080fd5b505afa15801561126f573d6000803e3d6000fd5b505050506040513d601f19601f820116820180604052508101906112939190611e1a565b90508360020154431180156112a757508015155b156113075760006112bc856002015443610e58565b905060006112e3600a5461073f8860010154610965600554876118fd90919063ffffffff16565b90506113026112fb8461073f8464e8d4a510006118fd565b8590611789565b935050505b6000611331846001015461074564e8d4a5100061073f8789600001546118fd90919063ffffffff16565b9050600081116113865760405160e560020a62461bcd02815260206004820152601260248201527f4e6f2070656e64696e6720746f206272727200000000000000000000000000006044820152606401610522565b60025460405160e060020a637bf0862102815233600482015260248101839052600160a060020a0390911690637bf0862190604401600060405180830381600087803b1580156113d557600080fd5b505af11580156113e9573d6000803e3d6000fd5b50508554611404925064e8d4a51000915061073f90866118fd565b8460010181905550505050505050565b6000600860008154811061143b5760e060020a634e487b7102600052603260045260246000fd5b600091825260208083203384527fec8156718a8372b1db44bb411437d0870f3e3790d4a08526d024ce1b0b668f6b9091526040832060049092020192509061148290610843565b60006114b0826001015461074564e8d4a5100061073f876003015487600001546118fd90919063ffffffff16565b9050600081116115055760405160e560020a62461bcd02815260206004820152601660248201527f4e6f2070656e64696e6720746f207265696e76657374000000000000000000006044820152606401610522565b60025460405160e060020a637bf0862102815230600482015260248101839052600160a060020a0390911690637bf0862190604401600060405180830381600087803b15801561155457600080fd5b505af1158015611568573d6000803e3d6000fd5b5050505061159b6115896103e861073f6007856118fd90919063ffffffff16565b61159390836120bc565b835490611789565b80835560038401546115b89164e8d4a510009161073f91906118fd565b600183015560405181815260009033907f90890809c654f11d6e72a28fa60149770a0d11ec6c92319d6ceb2bb0a4ea1a159060200160405180910390a3505050565b600080600884815481106116215760e060020a634e487b7102600052603260045260246000fd5b60009182526020808320878452600982526040808520600160a060020a038981168752935280852060049485029092016003810154815492517f70a08231000000000000000000000000000000000000000000000000000000008152309681019690965290965091949193919216906370a082319060240160206040518083038186803b1580156116b157600080fd5b505afa1580156116c5573d6000803e3d6000fd5b505050506040513d601f19601f820116820180604052508101906116e99190611e1a565b90508360020154431180156116fd57508015155b15611756576000611712856002015443610e58565b90506000611739600a5461073f8860010154610965600554876118fd90919063ffffffff16565b90506117516112fb8461073f8464e8d4a510006118fd565b935050505b61177e836001015461074564e8d4a5100061073f8688600001546118fd90919063ffffffff16565b979650505050505050565b6000806117968385611f74565b905083811015610e6c5760405160e560020a62461bcd02815260206004820152601b60248201527f536166654d6174683a206164646974696f6e206f766572666c6f7700000000006044820152606401610522565b600854600060015b8281101561185557611843600882815481106118225760e060020a634e487b7102600052603260045260246000fd5b9060005260206000209060040201600101548361178990919063ffffffff16565b915061184e816120ff565b90506117f3565b508015610c645761186781600361199b565b90506118b881610d3760086000815481106118955760e060020a634e487b7102600052603260045260246000fd5b906000526020600020906004020160010154600a546119f990919063ffffffff16565b600a819055508060086000815481106118e45760e060020a634e487b7102600052603260045260246000fd5b9060005260206000209060040201600101819055505050565b60008261190c57506000610e6f565b6000611918838561209d565b9050826119258583611f8c565b14610e6c5760405160e560020a62461bcd02815260206004820152602160248201527f536166654d6174683a206d756c7469706c69636174696f6e206f766572666c6f60448201527f77000000000000000000000000000000000000000000000000000000000000006064820152608401610522565b60008082116119ef5760405160e560020a62461bcd02815260206004820152601a60248201527f536166654d6174683a206469766973696f6e206279207a65726f0000000000006044820152606401610522565b610e6c8284611f8c565b600082821115611a4e5760405160e560020a62461bcd02815260206004820152601e60248201527f536166654d6174683a207375627472616374696f6e206f766572666c6f7700006044820152606401610522565b610e6c82846120bc565b604051600160a060020a038316602482015260448101829052611b019084907fa9059cbb00000000000000000000000000000000000000000000000000000000906064015b60408051601f198184030181529190526020810180517bffffffffffffffffffffffffffffffffffffffffffffffffffffffff167fffffffff0000000000000000000000000000000000000000000000000000000090931692909217909152611b57565b505050565b604051600160a060020a03808516602483015283166044820152606481018290526106609085907f23b872dd0000000000000000000000000000000000000000000000000000000090608401611a9d565b6000611bac826040518060400160405280602081526020017f5361666545524332303a206c6f772d6c6576656c2063616c6c206661696c656481525085600160a060020a0316611c3f9092919063ffffffff16565b805190915015611b015780806020019051810190611bca9190611de6565b611b015760405160e560020a62461bcd02815260206004820152602a60248201527f5361666545524332303a204552433230206f7065726174696f6e20646964206e60448201527f6f742073756363656564000000000000000000000000000000000000000000006064820152608401610522565b6060611c4e8484600085611c58565b90505b9392505050565b60603031831115611cd45760405160e560020a62461bcd02815260206004820152602660248201527f416464726573733a20696e73756666696369656e742062616c616e636520666f60448201527f722063616c6c00000000000000000000000000000000000000000000000000006064820152608401610522565b843b611d255760405160e560020a62461bcd02815260206004820152601d60248201527f416464726573733a2063616c6c20746f206e6f6e2d636f6e74726163740000006044820152606401610522565b60008086600160a060020a03168587604051611d419190611ef0565b60006040518083038185875af1925050503d8060008114611d7e576040519150601f19603f3d011682016040523d82523d6000602084013e611d83565b606091505b509150915061177e82828660608315611d9d575081611c51565b825115611dad5782518084602001fd5b8160405160e560020a62461bcd0281526004016105229190611f0c565b600060208284031215611ddb578081fd5b8135610e6c81612133565b600060208284031215611df7578081fd5b8151610e6c8161214b565b600060208284031215611e13578081fd5b5035919050565b600060208284031215611e2b578081fd5b5051919050565b60008060408385031215611e44578081fd5b823591506020830135611e5681612133565b809150509250929050565b600080600060608486031215611e75578081fd5b833592506020840135611e8781612133565b91506040840135611e978161214b565b809150509250925092565b60008060408385031215611eb4578182fd5b50508035926020909101359150565b600080600060608486031215611ed7578283fd5b83359250602084013591506040840135611e978161214b565b60008251611f028184602087016120d3565b9190910192915050565b6020815260008251806020840152611f2b8160408501602087016120d3565b601f01601f19169190910160400192915050565b6020808252818101527f4f776e61626c653a2063616c6c6572206973206e6f7420746865206f776e6572604082015260600190565b60008219821115611f8757611f8761211a565b500190565b600082611faa5760e060020a634e487b710281526012600452602481fd5b500490565b600181815b80851115611fec578160001904821115611fd057611fd061211a565b80851615611fdd57918102915b60029094049390800290611fb4565b509250929050565b6000610e6c838360008261200a57506001610e6f565b8161201757506000610e6f565b816001811461202d576002811461203757612054565b6001915050610e6f565b60ff8411156120485761204861211a565b8360020a915050610e6f565b5060208310610133831016604e8410600b8410161715612077575081810a610e6f565b6120818383611faf565b80600019048211156120955761209561211a565b029392505050565b60008160001904831182151516156120b7576120b761211a565b500290565b6000828210156120ce576120ce61211a565b500390565b60005b838110156120ee5781810151838201526020016120d6565b838111156106605750506000910152565b60006000198214156121135761211361211a565b5060010190565b60e060020a634e487b7102600052601160045260246000fd5b600160a060020a038116811461214857600080fd5b50565b801515811461214857600080fdfea26469706673582212202ad541e342577335780fde7a638d3e9f7be084cb4394f86076128a92f1676e5264736f6c63430008040033",
  "immutableReferences": {},
  "source": "// SPDX-License-Identifier: MIT\n\npragma solidity >=0.4.22 <0.9.0;\n\nimport './library/SafeMath.sol';\nimport \"@openzeppelin/contracts/token/ERC20/IERC20.sol\";\nimport \"@openzeppelin/contracts/token/ERC20/utils/SafeERC20.sol\";\nimport \"@openzeppelin/contracts/access/Ownable.sol\";\n\nimport \"./token/TuviellaToken.sol\";\n\ninterface IReward {\n    function payTo(address _to, uint256 _amount) external;\n}\n\ncontract Staking is Ownable {\n    using SafeMath for uint256;\n    using SafeERC20 for IERC20;\n\n    // Info of each user.\n    struct UserInfo {\n        uint256 amount;     // How many tokens the user has provided.\n        uint256 rewardDebt; // Reward debt. See explanation below.\n        //\n        // We do some fancy math here. Basically, any point in time, the amount of CAKEs\n        // entitled to a user but is pending to be distributed is:\n        //\n        //   pending reward = (user.amount * pool.accViellasPerShare) - user.rewardDebt\n        //\n        // Whenever a user deposits or withdraws LP tokens to a pool. Here's what happens:\n        //   1. The pool's `accViellasPerShare` (and `lastRewardBlock`) gets updated.\n        //   2. User receives the pending reward sent to his/her address.\n        //   3. User's `amount` gets updated.\n        //   4. User's `rewardDebt` gets updated.\n    }\n\n    // Info of each pool.\n    struct PoolInfo {\n        IERC20 stakedToken;       // Address of staked token contract.\n        uint256 allocPoint;       // How many allocation points assigned to this pool. TUVIELLAs to distribute per block.\n        uint256 lastRewardBlock;  // Last block number that TUVIELLAs distribution occurs.\n        uint256 accViellasPerShare;   // Accumulated TUVIELLAs per share, times 1e12. See below.\n    }\n\n    // The TUVIELLA TOKEN!\n    TuviellaToken public viellas;\n\n    IReward public rewardContract;\n    // Dev address.\n    address public devaddr;\n    \n    address public devSetter;\n    // TUVIELLAs tokens created per block.\n    uint256 public viellasPerBlock;\n\n    uint256 public initialViellasPerBlock;\n    // Bonus muliplier for early tvt makers.\n    uint256 public BONUS_MULTIPLIER = 1;\n\n    // Info of each pool.\n    PoolInfo[] public poolInfo;\n    // Info of each user that stakes tokens.\n    mapping (uint256 => mapping (address => UserInfo)) public userInfo;\n    // Total allocation points. Must be the sum of all allocation points in all pools.\n    uint256 public totalAllocPoint = 0;\n    // The block number when TUVIELLA mining starts.\n    uint256 public startBlock;\n\n    event Deposit(address indexed user, uint256 indexed pid, uint256 amount);\n    event Withdraw(address indexed user, uint256 indexed pid, uint256 amount);\n    event EmergencyWithdraw(address indexed user, uint256 indexed pid, uint256 amount);\n\n    constructor(\n        TuviellaToken _viellas,\n        address _devaddr,\n        address _devSetter,\n        uint256 _viellasPerBlock,\n        uint256 _startBlock,\n        IReward _rewardContract\n    ) {\n        viellas = _viellas;\n        devaddr = _devaddr;\n        devSetter = _devSetter;\n        viellasPerBlock = _viellasPerBlock;\n        startBlock = _startBlock;\n        rewardContract = _rewardContract;\n\n        // staking pool\n        poolInfo.push(PoolInfo({\n            stakedToken: _viellas,\n            allocPoint: 1000,\n            lastRewardBlock: startBlock,\n            accViellasPerShare: 0\n        }));\n        totalAllocPoint = 1000;\n        initialViellasPerBlock = viellasPerBlock;\n\n    }\n\n    function updateMultiplier(uint256 multiplierNumber) public onlyOwner {\n        BONUS_MULTIPLIER = multiplierNumber;\n    }\n\n    function poolLength() external view returns (uint256) {\n        return poolInfo.length;\n    }\n\n    // Add a new staking token to the pool. Can only be called by the owner.\n    // XXX DO NOT add the same staking token more than once. Rewards will be messed up if you do.\n    function add(uint256 _allocPoint, IERC20 _stakedToken, bool _withUpdate) public onlyOwner {\n        if (_withUpdate) {\n            massUpdatePools();\n        }\n        uint256 lastRewardBlock = block.number > startBlock ? block.number : startBlock;\n        totalAllocPoint = totalAllocPoint.add(_allocPoint);\n        poolInfo.push(PoolInfo({\n            stakedToken: _stakedToken,\n            allocPoint: _allocPoint,\n            lastRewardBlock: lastRewardBlock,\n            accViellasPerShare: 0\n        }));\n        updateStakingPool();\n    }\n\n    // Update the given pool's TUVIELLA allocation point. Can only be called by the owner.\n    function set(uint256 _pid, uint256 _allocPoint, bool _withUpdate) public onlyOwner {\n        if (_withUpdate) {\n            massUpdatePools();\n        }\n        uint256 prevAllocPoint = poolInfo[_pid].allocPoint;\n        poolInfo[_pid].allocPoint = _allocPoint;\n        if (prevAllocPoint != _allocPoint) {\n            totalAllocPoint = totalAllocPoint.sub(prevAllocPoint).add(_allocPoint);\n            updateStakingPool();\n        }\n    }\n\n    function updateStakingPool() internal {\n        uint256 length = poolInfo.length;\n        uint256 points = 0;\n        for (uint256 pid = 1; pid < length; ++pid) {\n            points = points.add(poolInfo[pid].allocPoint);\n        }\n        if (points != 0) {\n            points = points.div(3);\n            totalAllocPoint = totalAllocPoint.sub(poolInfo[0].allocPoint).add(points);\n            poolInfo[0].allocPoint = points;\n        }\n    }\n\n    // Return reward multiplier over the given _from to _to block.\n    function getMultiplier(uint256 _from, uint256 _to) public view returns (uint256) {\n        return _to.sub(_from).mul(BONUS_MULTIPLIER);\n    }\n\n    // View function to see pending TUVIELLAs on frontend.\n    function pendingViellas(uint256 _pid, address _user) external view returns (uint256) {\n        PoolInfo storage pool = poolInfo[_pid];\n        UserInfo storage user = userInfo[_pid][_user];\n        uint256 accViellasPerShare = pool.accViellasPerShare;\n        uint256 stakedSupply = pool.stakedToken.balanceOf(address(this));\n        if (block.number > pool.lastRewardBlock && stakedSupply != 0) {\n            uint256 multiplier = getMultiplier(pool.lastRewardBlock, block.number);\n            uint256 viellasReward = multiplier.mul(viellasPerBlock).mul(pool.allocPoint).div(totalAllocPoint);\n            accViellasPerShare = accViellasPerShare.add(viellasReward.mul(1e12).div(stakedSupply));\n        }\n        return user.amount.mul(accViellasPerShare).div(1e12).sub(user.rewardDebt);\n    }\n\n    // Update reward variables for all pools. Be careful of gas spending!\n    function massUpdatePools() public {\n        uint256 length = poolInfo.length;\n        for (uint256 pid = 0; pid < length; ++pid) {\n            updatePool(pid);\n        }\n    }\n\n\n    // Update reward variables of the given pool to be up-to-date.\n    function updatePool(uint256 _pid) public {\n        PoolInfo storage pool = poolInfo[_pid];\n        if (block.number <= pool.lastRewardBlock) {\n            return;\n        }\n        uint256 stakedSupply = pool.stakedToken.balanceOf(address(this));\n        if (stakedSupply == 0) {\n            pool.lastRewardBlock = block.number;\n            return;\n        }\n        uint256 multiplier = getMultiplier(pool.lastRewardBlock, block.number);\n        uint256 viellasReward = multiplier.mul(viellasPerBlock).mul(pool.allocPoint).div(totalAllocPoint);\n\n        if(viellas.totalSupply() < 1000000 ether - viellasReward.mul(11).div(10)){\n            viellas.mint(devaddr, viellasReward.div(10));\n            viellas.mint(address(rewardContract), viellasReward);\n        }\n\n        pool.accViellasPerShare = pool.accViellasPerShare.add(viellasReward.mul(1e12).div(stakedSupply));\n        pool.lastRewardBlock = block.number;\n    }\n\n    // Deposit LP tokens to MasterChef for TUVIELLA allocation.\n    function deposit(uint256 _pid, uint256 _amount) public {\n\n        PoolInfo storage pool = poolInfo[_pid];\n        UserInfo storage user = userInfo[_pid][msg.sender];\n        updatePool(_pid);\n        if (user.amount > 0) {\n            uint256 pending = user.amount.mul(pool.accViellasPerShare).div(1e12).sub(user.rewardDebt);\n            if(pending > 0) {\n                rewardContract.payTo(msg.sender, pending);\n            }\n        }\n        if (_amount > 0) {\n            pool.stakedToken.safeTransferFrom(address(msg.sender), address(this), _amount);\n            user.amount = user.amount.add(_amount);\n        }\n        user.rewardDebt = user.amount.mul(pool.accViellasPerShare).div(1e12);\n        emit Deposit(msg.sender, _pid, _amount);\n    }\n\n    // Withdraw LP tokens from MasterChef.\n    function withdraw(uint256 _pid, uint256 _amount) public {\n\n        PoolInfo storage pool = poolInfo[_pid];\n        UserInfo storage user = userInfo[_pid][msg.sender];\n        require(user.amount >= _amount, \"withdraw exceeds user balance\");\n\n        updatePool(_pid);\n        uint256 pending = user.amount.mul(pool.accViellasPerShare).div(1e12).sub(user.rewardDebt);\n        if(pending > 0) {\n            rewardContract.payTo(msg.sender, pending);\n        }\n        if(_amount > 0) {\n            user.amount = user.amount.sub(_amount);\n            pool.stakedToken.safeTransfer(address(msg.sender), _amount);\n        }\n        user.rewardDebt = user.amount.mul(pool.accViellasPerShare).div(1e12);\n        emit Withdraw(msg.sender, _pid, _amount);\n    }\n\n    // Withdraw without caring about rewards. EMERGENCY ONLY.\n    function emergencyWithdraw(uint256 _pid) public {\n        PoolInfo storage pool = poolInfo[_pid];\n        UserInfo storage user = userInfo[_pid][msg.sender];\n        pool.stakedToken.safeTransfer(address(msg.sender), user.amount);\n        emit EmergencyWithdraw(msg.sender, _pid, user.amount);\n        user.amount = 0;\n        user.rewardDebt = 0;\n    }\n\n    // Update dev address by the previous dev.\n    function dev(address _devaddr) public {\n        require(msg.sender == devSetter, \"devSetter: wut?\");\n        devaddr = _devaddr;\n    }\n\n    // brrr en tu cartera\n    function brrr(uint256 _pid) public{\n\n        updatePool(_pid);\n        \n        PoolInfo storage pool = poolInfo[_pid];\n        UserInfo storage user = userInfo[_pid][msg.sender];\n        uint256 accViellasPerShare = pool.accViellasPerShare;\n        uint256 stakedSupply = pool.stakedToken.balanceOf(address(this));\n        if (block.number > pool.lastRewardBlock && stakedSupply != 0) {\n            uint256 multiplier = getMultiplier(pool.lastRewardBlock, block.number);\n            uint256 viellasReward = multiplier.mul(viellasPerBlock).mul(pool.allocPoint).div(totalAllocPoint);\n            accViellasPerShare = accViellasPerShare.add(viellasReward.mul(1e12).div(stakedSupply));\n        }\n\n        uint256 pending = user.amount.mul(accViellasPerShare).div(1e12).sub(user.rewardDebt);\n\n        require(pending > 0, \"No pending to brrr\");\n        rewardContract.payTo(msg.sender, pending);\n        user.rewardDebt = user.amount.mul(accViellasPerShare).div(1e12);\n    }\n\n    // Reinvest viellas\n    function reinvest() public{\n        PoolInfo storage pool = poolInfo[0];\n        UserInfo storage user = userInfo[0][msg.sender];\n        updatePool(0);\n        \n        uint256 pending = user.amount.mul(pool.accViellasPerShare).div(1e12).sub(user.rewardDebt);\n        require(pending > 0, \"No pending to reinvest\");\n\n        rewardContract.payTo(address(this), pending);\n        user.amount = user.amount.add(pending - pending.mul(7).div(1000));\n        \n        user.rewardDebt = user.amount.mul(pool.accViellasPerShare).div(1e12);\n        emit Deposit(msg.sender, 0, pending);\n    }\n\n    //returns the pid of the pool\n    function findPidOf(IERC20 token) public view returns (uint256 _pid){\n        \n        uint length = poolInfo.length;\n        for(uint256 i = 0; i < length; i++){\n            if(token == poolInfo[i].stakedToken){\n                return i;\n            }\n        }\n    }\n\n    function halving() external onlyOwner{\n        \n        if(block.number > startBlock){\n            return;\n        }\n\n        uint256 blocksPassed = block.number - startBlock;\n        uint256 blocksPerHalving = 0;\n\n        uint256 pot = blocksPassed.div(blocksPerHalving);\n\n        uint256 targetViellas = initialViellasPerBlock.div(2**pot);\n\n        if(viellasPerBlock == targetViellas){\n            return;\n        }\n        viellasPerBlock = targetViellas;\n    }\n}\n",
  "sourcePath": "/Users/guillermo/Projects/crypto/tuviella-contract/contracts/Staking.sol",
  "compiler": {
    "name": "solc",
    "version": "0.8.4+commit.c7e474f2.Emscripten.clang"
  },
  "schemaVersion": "3.4.1",
  "updatedAt": "2021-08-18T13:03:08.782Z",
  "networkType": "ethereum",
  "devdoc": {
    "kind": "dev",
    "methods": {
      "owner()": {
        "details": "Returns the address of the current owner."
      },
      "renounceOwnership()": {
        "details": "Leaves the contract without owner. It will not be possible to call `onlyOwner` functions anymore. Can only be called by the current owner. NOTE: Renouncing ownership will leave the contract without an owner, thereby removing any functionality that is only available to the owner."
      },
      "transferOwnership(address)": {
        "details": "Transfers ownership of the contract to a new account (`newOwner`). Can only be called by the current owner."
      }
    },
    "version": 1
  },
  "userdoc": {
    "kind": "user",
    "methods": {},
    "version": 1
  }
}