{
  "contractName": "TuviellaToken",
  "abi": [
    {
      "inputs": [
        {
          "internalType": "address",
          "name": "masterChef",
          "type": "address"
        }
      ],
      "stateMutability": "nonpayable",
      "type": "constructor"
    },
    {
      "anonymous": false,
      "inputs": [
        {
          "indexed": true,
          "internalType": "address",
          "name": "owner",
          "type": "address"
        },
        {
          "indexed": true,
          "internalType": "address",
          "name": "spender",
          "type": "address"
        },
        {
          "indexed": false,
          "internalType": "uint256",
          "name": "value",
          "type": "uint256"
        }
      ],
      "name": "Approval",
      "type": "event"
    },
    {
      "anonymous": false,
      "inputs": [
        {
          "indexed": false,
          "internalType": "address",
          "name": "account",
          "type": "address"
        }
      ],
      "name": "Paused",
      "type": "event"
    },
    {
      "anonymous": false,
      "inputs": [
        {
          "indexed": true,
          "internalType": "bytes32",
          "name": "role",
          "type": "bytes32"
        },
        {
          "indexed": true,
          "internalType": "bytes32",
          "name": "previousAdminRole",
          "type": "bytes32"
        },
        {
          "indexed": true,
          "internalType": "bytes32",
          "name": "newAdminRole",
          "type": "bytes32"
        }
      ],
      "name": "RoleAdminChanged",
      "type": "event"
    },
    {
      "anonymous": false,
      "inputs": [
        {
          "indexed": true,
          "internalType": "bytes32",
          "name": "role",
          "type": "bytes32"
        },
        {
          "indexed": true,
          "internalType": "address",
          "name": "account",
          "type": "address"
        },
        {
          "indexed": true,
          "internalType": "address",
          "name": "sender",
          "type": "address"
        }
      ],
      "name": "RoleGranted",
      "type": "event"
    },
    {
      "anonymous": false,
      "inputs": [
        {
          "indexed": true,
          "internalType": "bytes32",
          "name": "role",
          "type": "bytes32"
        },
        {
          "indexed": true,
          "internalType": "address",
          "name": "account",
          "type": "address"
        },
        {
          "indexed": true,
          "internalType": "address",
          "name": "sender",
          "type": "address"
        }
      ],
      "name": "RoleRevoked",
      "type": "event"
    },
    {
      "anonymous": false,
      "inputs": [
        {
          "indexed": true,
          "internalType": "address",
          "name": "from",
          "type": "address"
        },
        {
          "indexed": true,
          "internalType": "address",
          "name": "to",
          "type": "address"
        },
        {
          "indexed": false,
          "internalType": "uint256",
          "name": "value",
          "type": "uint256"
        }
      ],
      "name": "Transfer",
      "type": "event"
    },
    {
      "anonymous": false,
      "inputs": [
        {
          "indexed": false,
          "internalType": "address",
          "name": "account",
          "type": "address"
        }
      ],
      "name": "Unpaused",
      "type": "event"
    },
    {
      "inputs": [],
      "name": "DEFAULT_ADMIN_ROLE",
      "outputs": [
        {
          "internalType": "bytes32",
          "name": "",
          "type": "bytes32"
        }
      ],
      "stateMutability": "view",
      "type": "function"
    },
    {
      "inputs": [],
      "name": "DEVELOPER_ROLE",
      "outputs": [
        {
          "internalType": "bytes32",
          "name": "",
          "type": "bytes32"
        }
      ],
      "stateMutability": "view",
      "type": "function"
    },
    {
      "inputs": [],
      "name": "MINTER_ROLE",
      "outputs": [
        {
          "internalType": "bytes32",
          "name": "",
          "type": "bytes32"
        }
      ],
      "stateMutability": "view",
      "type": "function"
    },
    {
      "inputs": [],
      "name": "PAUSER_ROLE",
      "outputs": [
        {
          "internalType": "bytes32",
          "name": "",
          "type": "bytes32"
        }
      ],
      "stateMutability": "view",
      "type": "function"
    },
    {
      "inputs": [
        {
          "internalType": "address",
          "name": "_wallet",
          "type": "address"
        }
      ],
      "name": "addDev",
      "outputs": [],
      "stateMutability": "nonpayable",
      "type": "function"
    },
    {
      "inputs": [
        {
          "internalType": "address",
          "name": "owner",
          "type": "address"
        },
        {
          "internalType": "address",
          "name": "spender",
          "type": "address"
        }
      ],
      "name": "allowance",
      "outputs": [
        {
          "internalType": "uint256",
          "name": "",
          "type": "uint256"
        }
      ],
      "stateMutability": "view",
      "type": "function"
    },
    {
      "inputs": [
        {
          "internalType": "address",
          "name": "spender",
          "type": "address"
        },
        {
          "internalType": "uint256",
          "name": "amount",
          "type": "uint256"
        }
      ],
      "name": "approve",
      "outputs": [
        {
          "internalType": "bool",
          "name": "",
          "type": "bool"
        }
      ],
      "stateMutability": "nonpayable",
      "type": "function"
    },
    {
      "inputs": [
        {
          "internalType": "address",
          "name": "account",
          "type": "address"
        }
      ],
      "name": "balanceOf",
      "outputs": [
        {
          "internalType": "uint256",
          "name": "",
          "type": "uint256"
        }
      ],
      "stateMutability": "view",
      "type": "function"
    },
    {
      "inputs": [
        {
          "internalType": "uint256",
          "name": "amount",
          "type": "uint256"
        }
      ],
      "name": "burn",
      "outputs": [],
      "stateMutability": "nonpayable",
      "type": "function"
    },
    {
      "inputs": [
        {
          "internalType": "address",
          "name": "account",
          "type": "address"
        },
        {
          "internalType": "uint256",
          "name": "amount",
          "type": "uint256"
        }
      ],
      "name": "burnFrom",
      "outputs": [],
      "stateMutability": "nonpayable",
      "type": "function"
    },
    {
      "inputs": [],
      "name": "decimals",
      "outputs": [
        {
          "internalType": "uint8",
          "name": "",
          "type": "uint8"
        }
      ],
      "stateMutability": "view",
      "type": "function"
    },
    {
      "inputs": [
        {
          "internalType": "address",
          "name": "spender",
          "type": "address"
        },
        {
          "internalType": "uint256",
          "name": "subtractedValue",
          "type": "uint256"
        }
      ],
      "name": "decreaseAllowance",
      "outputs": [
        {
          "internalType": "bool",
          "name": "",
          "type": "bool"
        }
      ],
      "stateMutability": "nonpayable",
      "type": "function"
    },
    {
      "inputs": [],
      "name": "getBurnFee",
      "outputs": [
        {
          "internalType": "uint16",
          "name": "",
          "type": "uint16"
        }
      ],
      "stateMutability": "view",
      "type": "function"
    },
    {
      "inputs": [],
      "name": "getDevsFee",
      "outputs": [
        {
          "internalType": "uint16",
          "name": "",
          "type": "uint16"
        }
      ],
      "stateMutability": "view",
      "type": "function"
    },
    {
      "inputs": [],
      "name": "getHolderFee",
      "outputs": [
        {
          "internalType": "uint16",
          "name": "",
          "type": "uint16"
        }
      ],
      "stateMutability": "view",
      "type": "function"
    },
    {
      "inputs": [
        {
          "internalType": "bytes32",
          "name": "role",
          "type": "bytes32"
        }
      ],
      "name": "getRoleAdmin",
      "outputs": [
        {
          "internalType": "bytes32",
          "name": "",
          "type": "bytes32"
        }
      ],
      "stateMutability": "view",
      "type": "function"
    },
    {
      "inputs": [
        {
          "internalType": "bytes32",
          "name": "role",
          "type": "bytes32"
        },
        {
          "internalType": "uint256",
          "name": "index",
          "type": "uint256"
        }
      ],
      "name": "getRoleMember",
      "outputs": [
        {
          "internalType": "address",
          "name": "",
          "type": "address"
        }
      ],
      "stateMutability": "view",
      "type": "function"
    },
    {
      "inputs": [
        {
          "internalType": "bytes32",
          "name": "role",
          "type": "bytes32"
        }
      ],
      "name": "getRoleMemberCount",
      "outputs": [
        {
          "internalType": "uint256",
          "name": "",
          "type": "uint256"
        }
      ],
      "stateMutability": "view",
      "type": "function"
    },
    {
      "inputs": [],
      "name": "getTransactionFee",
      "outputs": [
        {
          "internalType": "uint16",
          "name": "",
          "type": "uint16"
        }
      ],
      "stateMutability": "view",
      "type": "function"
    },
    {
      "inputs": [
        {
          "internalType": "bytes32",
          "name": "role",
          "type": "bytes32"
        },
        {
          "internalType": "address",
          "name": "account",
          "type": "address"
        }
      ],
      "name": "grantRole",
      "outputs": [],
      "stateMutability": "nonpayable",
      "type": "function"
    },
    {
      "inputs": [
        {
          "internalType": "bytes32",
          "name": "role",
          "type": "bytes32"
        },
        {
          "internalType": "address",
          "name": "account",
          "type": "address"
        }
      ],
      "name": "hasRole",
      "outputs": [
        {
          "internalType": "bool",
          "name": "",
          "type": "bool"
        }
      ],
      "stateMutability": "view",
      "type": "function"
    },
    {
      "inputs": [
        {
          "internalType": "address",
          "name": "spender",
          "type": "address"
        },
        {
          "internalType": "uint256",
          "name": "addedValue",
          "type": "uint256"
        }
      ],
      "name": "increaseAllowance",
      "outputs": [
        {
          "internalType": "bool",
          "name": "",
          "type": "bool"
        }
      ],
      "stateMutability": "nonpayable",
      "type": "function"
    },
    {
      "inputs": [],
      "name": "lastTransfer",
      "outputs": [
        {
          "internalType": "address",
          "name": "",
          "type": "address"
        }
      ],
      "stateMutability": "view",
      "type": "function"
    },
    {
      "inputs": [],
      "name": "name",
      "outputs": [
        {
          "internalType": "string",
          "name": "",
          "type": "string"
        }
      ],
      "stateMutability": "view",
      "type": "function"
    },
    {
      "inputs": [],
      "name": "paused",
      "outputs": [
        {
          "internalType": "bool",
          "name": "",
          "type": "bool"
        }
      ],
      "stateMutability": "view",
      "type": "function"
    },
    {
      "inputs": [
        {
          "internalType": "address",
          "name": "_wallet",
          "type": "address"
        }
      ],
      "name": "removeDev",
      "outputs": [],
      "stateMutability": "nonpayable",
      "type": "function"
    },
    {
      "inputs": [
        {
          "internalType": "bytes32",
          "name": "role",
          "type": "bytes32"
        },
        {
          "internalType": "address",
          "name": "account",
          "type": "address"
        }
      ],
      "name": "renounceRole",
      "outputs": [],
      "stateMutability": "nonpayable",
      "type": "function"
    },
    {
      "inputs": [
        {
          "internalType": "bytes32",
          "name": "role",
          "type": "bytes32"
        },
        {
          "internalType": "address",
          "name": "account",
          "type": "address"
        }
      ],
      "name": "revokeRole",
      "outputs": [],
      "stateMutability": "nonpayable",
      "type": "function"
    },
    {
      "inputs": [
        {
          "internalType": "uint16",
          "name": "_fee",
          "type": "uint16"
        }
      ],
      "name": "setBurnFee",
      "outputs": [],
      "stateMutability": "nonpayable",
      "type": "function"
    },
    {
      "inputs": [
        {
          "internalType": "uint16",
          "name": "_fee",
          "type": "uint16"
        }
      ],
      "name": "setDevsFee",
      "outputs": [],
      "stateMutability": "nonpayable",
      "type": "function"
    },
    {
      "inputs": [
        {
          "internalType": "uint16",
          "name": "_fee",
          "type": "uint16"
        }
      ],
      "name": "setHolderFee",
      "outputs": [],
      "stateMutability": "nonpayable",
      "type": "function"
    },
    {
      "inputs": [
        {
          "internalType": "uint16",
          "name": "_fee",
          "type": "uint16"
        }
      ],
      "name": "setTransactionFee",
      "outputs": [],
      "stateMutability": "nonpayable",
      "type": "function"
    },
    {
      "inputs": [
        {
          "internalType": "bytes4",
          "name": "interfaceId",
          "type": "bytes4"
        }
      ],
      "name": "supportsInterface",
      "outputs": [
        {
          "internalType": "bool",
          "name": "",
          "type": "bool"
        }
      ],
      "stateMutability": "view",
      "type": "function"
    },
    {
      "inputs": [],
      "name": "symbol",
      "outputs": [
        {
          "internalType": "string",
          "name": "",
          "type": "string"
        }
      ],
      "stateMutability": "view",
      "type": "function"
    },
    {
      "inputs": [],
      "name": "totalSupply",
      "outputs": [
        {
          "internalType": "uint256",
          "name": "",
          "type": "uint256"
        }
      ],
      "stateMutability": "view",
      "type": "function"
    },
    {
      "inputs": [
        {
          "internalType": "address",
          "name": "recipient",
          "type": "address"
        },
        {
          "internalType": "uint256",
          "name": "amount",
          "type": "uint256"
        }
      ],
      "name": "transfer",
      "outputs": [
        {
          "internalType": "bool",
          "name": "",
          "type": "bool"
        }
      ],
      "stateMutability": "nonpayable",
      "type": "function"
    },
    {
      "inputs": [
        {
          "internalType": "address",
          "name": "sender",
          "type": "address"
        },
        {
          "internalType": "address",
          "name": "recipient",
          "type": "address"
        },
        {
          "internalType": "uint256",
          "name": "amount",
          "type": "uint256"
        }
      ],
      "name": "transferFrom",
      "outputs": [
        {
          "internalType": "bool",
          "name": "",
          "type": "bool"
        }
      ],
      "stateMutability": "nonpayable",
      "type": "function"
    },
    {
      "inputs": [
        {
          "internalType": "address",
          "name": "staking",
          "type": "address"
        }
      ],
      "name": "setStakingMinter",
      "outputs": [],
      "stateMutability": "nonpayable",
      "type": "function"
    },
    {
      "inputs": [
        {
          "internalType": "address",
          "name": "to",
          "type": "address"
        },
        {
          "internalType": "uint256",
          "name": "amount",
          "type": "uint256"
        }
      ],
      "name": "mint",
      "outputs": [],
      "stateMutability": "nonpayable",
      "type": "function"
    },
    {
      "inputs": [],
      "name": "pause",
      "outputs": [],
      "stateMutability": "nonpayable",
      "type": "function"
    },
    {
      "inputs": [],
      "name": "unpause",
      "outputs": [],
      "stateMutability": "nonpayable",
      "type": "function"
    },
    {
      "inputs": [],
      "name": "devsGetPaid",
      "outputs": [],
      "stateMutability": "nonpayable",
      "type": "function"
    }
  ],
  "bytecode": "0x60806040526008805467ffffffffffffffff19166709c409c4138800461790553480156200002c57600080fd5b5060405162002968380380620029688339810160408190526200004f91620005bb565b6040518060400160405280600e81526020017f54757669656c6c6120546f6b656e0000000000000000000000000000000000008152506040518060400160405280600381526020017f54565400000000000000000000000000000000000000000000000000000000008152508160039080519060200190620000d392919062000515565b508051620000e990600490602084019062000515565b50506005805460ff19169055506200013d7f4504b9dfd7400a1522f49a8b4a100552da9236849581fd59b7363eb48c6a474c6200012e64010000000062000236810204565b6401000000006200023a810204565b6954b40b1f852bda0000006200015d828264010000000062000281810204565b6200017660006200012e64010000000062000236810204565b620001ae7f9f2df0fed2c77648de5860a4cc508cd0818c85b8b8a1ab4ceeef8d981c8956a66200012e64010000000062000236810204565b620001e67f65d7a28e3265b37a6474929f336521b332c1681b933f6cb9f3376673440d862a6200012e64010000000062000236810204565b6008805460e060020a60ff02191690556200020964010000000062000236810204565b6008806101000a815481600160a060020a030219169083600160a060020a0316021790555050506200067f565b3390565b62000254828264010000000062000f136200039a82021704565b60008281526007602052604090206200027c908264010000000062000f1d620003b382021704565b505050565b600160a060020a038216620002f6576040517f08c379a000000000000000000000000000000000000000000000000000000000815260206004820152601f60248201527f45524332303a206d696e7420746f20746865207a65726f206164647265737300604482015260640160405180910390fd5b6200030d600083836401000000006200027c810204565b8060026000828254620003219190620005eb565b9091555050600160a060020a0382166000908152602081905260408120805483929062000350908490620005eb565b9091555050604051818152600160a060020a038316906000907fddf252ad1be2c89b69c2b068fc378daa952ba7f163c4a11628f55a4df523b3ef9060200160405180910390a35050565b620003af8282640100000000620003dc810204565b5050565b6000620003d383600160a060020a0384166401000000006200047a810204565b90505b92915050565b620003f18282640100000000620004d2810204565b620003af576000828152600660209081526040808320600160a060020a03851684529091529020805460ff191660011790556200043664010000000062000236810204565b600160a060020a031681600160a060020a0316837f2f8788117e7eff1d82e926ec794901d17c78024a50270940304540a733656f0d60405160405180910390a45050565b6000620004918383640100000000620004fd810204565b620004c957508154600181810184556000848152602080822090930184905584548482528286019093526040902091909155620003d6565b506000620003d6565b6000918252600660209081526040808420600160a060020a0393909316845291905290205460ff1690565b60009081526001919091016020526040902054151590565b828054620005239062000629565b90600052602060002090601f01602090048101928262000547576000855562000592565b82601f106200056257805160ff191683800117855562000592565b8280016001018555821562000592579182015b828111156200059257825182559160200191906001019062000575565b50620005a0929150620005a4565b5090565b5b80821115620005a05760008155600101620005a5565b600060208284031215620005cd578081fd5b8151600160a060020a0381168114620005e4578182fd5b9392505050565b6000821982111562000624577f4e487b710000000000000000000000000000000000000000000000000000000081526011600452602481fd5b500190565b6002810460018216806200063e57607f821691505b6020821081141562000679577f4e487b7100000000000000000000000000000000000000000000000000000000600052602260045260246000fd5b50919050565b6122d9806200068f6000396000f3fe608060405234801561001057600080fd5b50600436106102625760003560e060020a9004806385d791021161014a578063b91d3ace116100c7578063dd62ed3e1161008b578063dd62ed3e1461059c578063e63ab1e9146105d5578063e84d2696146105fc578063ee4b43071461061b578063ef46a6fc14610651578063faa271ff1461065957600080fd5b8063b91d3ace14610529578063c4026d7b1461053c578063ca15c8731461054f578063d539139314610562578063d547741f1461058957600080fd5b8063a217fddf1161010e578063a217fddf146104c3578063a457c2d7146104cb578063a9059cbb146104de578063aa4b10d1146104f1578063b45940f21461050357600080fd5b806385d791021461045c5780639010d07c146104685780639103a0e01461049357806391d14854146104a857806395d89b41146104bb57600080fd5b80633f4ba83a116101e35780634f480bab116101a75780634f480bab146103c85780635c975abb146103db57806370a08231146103e657806371867b231461040f57806379cc6790146104415780638456cb591461045457600080fd5b80633f4ba83a1461034957806340c10f191461035157806342966c681461036457806346e509941461037757806349de5f871461039a57600080fd5b8063248a9ca31161022a578063248a9ca3146102dc5780632f2ff15d146102ff578063313ce5671461031457806336568abe14610323578063395093511461033657600080fd5b806301ffc9a71461026757806306fdde031461028f578063095ea7b3146102a457806318160ddd146102b757806323b872dd146102c9575b600080fd5b61027a61027536600461205f565b61066f565b60405190151581526020015b60405180910390f35b6102976106b3565b604051610286919061212a565b61027a6102b2366004611fdb565b610745565b6002545b604051908152602001610286565b61027a6102d7366004611fa0565b61075b565b6102bb6102ea366004612004565b60009081526006602052604090206001015490565b61031261030d36600461201c565b610829565b005b60405160128152602001610286565b61031261033136600461201c565b610850565b61027a610344366004611fdb565b610872565b6103126108a9565b61031261035f366004611fdb565b610952565b610312610372366004612004565b6109ff565b600854640100000000900461ffff165b60405161ffff9091168152602001610286565b6103126103a8366004612087565b6008805461ffff909216620100000263ffff000019909216919091179055565b6103126103d6366004611f54565b610a0c565b60055460ff1661027a565b6102bb6103f4366004611f54565b600160a060020a031660009081526020819052604090205490565b61031261041d366004612087565b6008805461ffff9092166401000000000265ffff0000000019909216919091179055565b61031261044f366004611fdb565b610b1e565b610312610bbd565b60085461ffff16610387565b61047b61047636600461203e565b610c64565b604051600160a060020a039091168152602001610286565b6102bb60008051602061228483398151915281565b61027a6104b636600461201c565b610c83565b610297610cae565b6102bb600081565b61027a6104d9366004611fdb565b610cbd565b61027a6104ec366004611fdb565b610d73565b60085462010000900461ffff16610387565b610312610511366004612087565b6008805461ffff191661ffff92909216919091179055565b610312610537366004611f54565b610d80565b61031261054a366004611f54565b610d98565b6102bb61055d366004612004565b610db0565b6102bb7f9f2df0fed2c77648de5860a4cc508cd0818c85b8b8a1ab4ceeef8d981c8956a681565b61031261059736600461201c565b610dc7565b6102bb6105aa366004611f6e565b600160a060020a03918216600090815260016020908152604080832093909416825291909152205490565b6102bb7f65d7a28e3265b37a6474929f336521b332c1681b933f6cb9f3376673440d862a81565b60085461047b90680100000000000000009004600160a060020a031681565b610312610629366004612087565b6008805461ffff90921666010000000000000267ffff00000000000019909216919091179055565b610312610dd1565b6008546601000000000000900461ffff16610387565b6000600160e060020a031982167f5a05180f0000000000000000000000000000000000000000000000000000000014806106ad57506106ad82610f32565b92915050565b6060600380546106c290612211565b80601f01602080910402602001604051908101604052809291908181526020018280546106ee90612211565b801561073b5780601f106107105761010080835404028352916020019161073b565b820191906000526020600020905b81548152906001019060200180831161071e57829003601f168201915b5050505050905090565b6000610752338484610f99565b50600192915050565b60006107688484846110f8565b600160a060020a03841660009081526001602090815260408083203384529091529020548281101561080a5760405160e560020a62461bcd02815260206004820152602860248201527f45524332303a207472616e7366657220616d6f756e742065786365656473206160448201527f6c6c6f77616e636500000000000000000000000000000000000000000000000060648201526084015b60405180910390fd5b61081e853361081986856121b7565b610f99565b506001949350505050565b6108338282611253565b600082815260076020526040902061084b9082610f1d565b505050565b61085a8282611279565b600082815260076020526040902061084b9082611304565b336000818152600160209081526040808320600160a060020a0387168452909152812054909161075291859061081990869061215d565b6108d37f65d7a28e3265b37a6474929f336521b332c1681b933f6cb9f3376673440d862a33610c83565b6109485760405160e560020a62461bcd02815260206004820152602960248201527f556e50617573653a206d75737420686176652070617573657220726f6c65207460448201527f6f20756e706175736500000000000000000000000000000000000000000000006064820152608401610801565b610950611319565b565b61097c7f9f2df0fed2c77648de5860a4cc508cd0818c85b8b8a1ab4ceeef8d981c8956a633610c83565b6109f15760405160e560020a62461bcd02815260206004820152602360248201527f4d696e743a206d7573742068617665206d696e74657220726f6c6520746f206d60448201527f696e7400000000000000000000000000000000000000000000000000000000006064820152608401610801565b6109fb82826113b8565b5050565b610a09338261149a565b50565b610a17600033610c83565b610a665760405160e560020a62461bcd02815260206004820152600a60248201527f6e6f742061646d696e21000000000000000000000000000000000000000000006044820152606401610801565b60085460e060020a900460ff1615610ac35760405160e560020a62461bcd02815260206004820152601e60248201527f546869732066756e6374696f6e20776f6e27742062652063616c6c65642e00006044820152606401610801565b610aed7f9f2df0fed2c77648de5860a4cc508cd0818c85b8b8a1ab4ceeef8d981c8956a682611626565b50600880547fffffff00ffffffffffffffffffffffffffffffffffffffffffffffffffffffff1660e060020a179055565b6000610b2a83336105aa565b905081811015610ba45760405160e560020a62461bcd028152602060048201526024808201527f45524332303a206275726e20616d6f756e74206578636565647320616c6c6f7760448201527f616e6365000000000000000000000000000000000000000000000000000000006064820152608401610801565b610bb3833361081985856121b7565b61084b838361149a565b610be77f65d7a28e3265b37a6474929f336521b332c1681b933f6cb9f3376673440d862a33610c83565b610c5c5760405160e560020a62461bcd02815260206004820152602560248201527f50617573653a206d75737420686176652070617573657220726f6c6520746f2060448201527f70617573650000000000000000000000000000000000000000000000000000006064820152608401610801565b610950611630565b6000828152600760205260408120610c7c90836116bb565b9392505050565b6000918252600660209081526040808420600160a060020a0393909316845291905290205460ff1690565b6060600480546106c290612211565b336000908152600160209081526040808320600160a060020a038616845290915281205482811015610d5a5760405160e560020a62461bcd02815260206004820152602560248201527f45524332303a2064656372656173656420616c6c6f77616e63652062656c6f7760448201527f207a65726f0000000000000000000000000000000000000000000000000000006064820152608401610801565b610d69338561081986856121b7565b5060019392505050565b60006107523384846110f8565b610a0960008051602061228483398151915282610829565b610a0960008051602061228483398151915282610dc7565b60008181526007602052604081206106ad906116c7565b61085a82826116d1565b6000610dea600080516020612284833981519152610db0565b90506000610e0460085461ffff6401000000009091041690565b61ffff1690506000610e2060085461ffff620100009091041690565b61ffff1690506000610e32828461215d565b30600090815260208190526040902054610e4d908590612198565b610e579190612175565b9050670de0b6b3a76400008111610eb35760405160e560020a62461bcd02815260206004820152601760248201527f4e6f7420656e6f75676820666f722065766572796f6e650000000000000000006044820152606401610801565b60005b84811015610ef257610ee030610eda60008051602061228483398151915284610c64565b846116f7565b80610eea8161224f565b915050610eb6565b5030600081815260208190526040902054610f0d919061149a565b50505050565b6109fb8282611921565b6000610c7c83600160a060020a0384166119a7565b6000600160e060020a031982167f7965db0b0000000000000000000000000000000000000000000000000000000014806106ad57507f01ffc9a700000000000000000000000000000000000000000000000000000000600160e060020a03198316146106ad565b600160a060020a0383166110175760405160e560020a62461bcd028152602060048201526024808201527f45524332303a20617070726f76652066726f6d20746865207a65726f2061646460448201527f72657373000000000000000000000000000000000000000000000000000000006064820152608401610801565b600160a060020a0382166110965760405160e560020a62461bcd02815260206004820152602260248201527f45524332303a20617070726f766520746f20746865207a65726f20616464726560448201527f73730000000000000000000000000000000000000000000000000000000000006064820152608401610801565b600160a060020a0383811660008181526001602090815260408083209487168084529482529182902085905590518481527f8c5be1e5ebec7d5bd14f71427d1e84f3dd0314c0f7b2291e5b200ac8c7c3b92591015b60405180910390a3505050565b600061271061110a60085461ffff1690565b6111189061ffff1684612198565b6111229190612175565b9050600061271061113d60085461ffff620100009091041690565b61114b9061ffff1684612198565b6111559190612175565b9050600061271061117260085461ffff6401000000009091041690565b6111809061ffff1685612198565b61118a9190612175565b905060006127106111a960085461ffff66010000000000009091041690565b6111b79061ffff1686612198565b6111c19190612175565b90506111d787306111d2858761215d565b6116f7565b6111f58760088054906101000a9004600160a060020a0316836116f7565b600880547fffffffff0000000000000000000000000000000000000000ffffffffffffffff1668010000000000000000600160a060020a038a160217905561123d84866121b7565b945061124a8787876116f7565b50505050505050565b60008281526006602052604090206001015461126f81336119f6565b61084b8383611921565b600160a060020a03811633146112fa5760405160e560020a62461bcd02815260206004820152602f60248201527f416363657373436f6e74726f6c3a2063616e206f6e6c792072656e6f756e636560448201527f20726f6c657320666f722073656c6600000000000000000000000000000000006064820152608401610801565b6109fb8282611a5d565b6000610c7c83600160a060020a038416611ac4565b60055460ff1661136e5760405160e560020a62461bcd02815260206004820152601460248201527f5061757361626c653a206e6f74207061757365640000000000000000000000006044820152606401610801565b6005805460ff191690557f5db9ee0a495bf2e6ff9c91a7834c1ba4fdd244a5e8aa4e537bd38aeae4b073aa335b604051600160a060020a03909116815260200160405180910390a1565b600160a060020a0382166114115760405160e560020a62461bcd02815260206004820152601f60248201527f45524332303a206d696e7420746f20746865207a65726f2061646472657373006044820152606401610801565b8060026000828254611423919061215d565b9091555050600160a060020a0382166000908152602081905260408120805483929061145090849061215d565b9091555050604051818152600160a060020a038316906000907fddf252ad1be2c89b69c2b068fc378daa952ba7f163c4a11628f55a4df523b3ef9060200160405180910390a35050565b600160a060020a0382166115195760405160e560020a62461bcd02815260206004820152602160248201527f45524332303a206275726e2066726f6d20746865207a65726f2061646472657360448201527f73000000000000000000000000000000000000000000000000000000000000006064820152608401610801565b600160a060020a038216600090815260208190526040902054818110156115ab5760405160e560020a62461bcd02815260206004820152602260248201527f45524332303a206275726e20616d6f756e7420657863656564732062616c616e60448201527f63650000000000000000000000000000000000000000000000000000000000006064820152608401610801565b6115b582826121b7565b600160a060020a038416600090815260208190526040812091909155600280548492906115e39084906121b7565b9091555050604051828152600090600160a060020a038516907fddf252ad1be2c89b69c2b068fc378daa952ba7f163c4a11628f55a4df523b3ef906020016110eb565b6108338282610f13565b60055460ff16156116865760405160e560020a62461bcd02815260206004820152601060248201527f5061757361626c653a20706175736564000000000000000000000000000000006044820152606401610801565b6005805460ff191660011790557f62e78cea01bee320cd4e420270b5ea74000d11b0c9f74754ebdbfc544b05a25861139b3390565b6000610c7c8383611be4565b60006106ad825490565b6000828152600660205260409020600101546116ed81336119f6565b61084b8383611a5d565b600160a060020a0383166117765760405160e560020a62461bcd02815260206004820152602560248201527f45524332303a207472616e736665722066726f6d20746865207a65726f20616460448201527f64726573730000000000000000000000000000000000000000000000000000006064820152608401610801565b600160a060020a0382166117f55760405160e560020a62461bcd02815260206004820152602360248201527f45524332303a207472616e7366657220746f20746865207a65726f206164647260448201527f65737300000000000000000000000000000000000000000000000000000000006064820152608401610801565b600160a060020a038316600090815260208190526040902054818110156118875760405160e560020a62461bcd02815260206004820152602660248201527f45524332303a207472616e7366657220616d6f756e742065786365656473206260448201527f616c616e636500000000000000000000000000000000000000000000000000006064820152608401610801565b61189182826121b7565b600160a060020a0380861660009081526020819052604080822093909355908516815290812080548492906118c790849061215d565b9250508190555082600160a060020a031684600160a060020a03167fddf252ad1be2c89b69c2b068fc378daa952ba7f163c4a11628f55a4df523b3ef8460405161191391815260200190565b60405180910390a350505050565b61192b8282610c83565b6109fb576000828152600660209081526040808320600160a060020a03851684529091529020805460ff191660011790556119633390565b600160a060020a031681600160a060020a0316837f2f8788117e7eff1d82e926ec794901d17c78024a50270940304540a733656f0d60405160405180910390a45050565b60008181526001830160205260408120546119ee575081546001818101845560008481526020808220909301849055845484825282860190935260409020919091556106ad565b5060006106ad565b611a008282610c83565b6109fb57611a1881600160a060020a03166014611c99565b611a23836020611c99565b604051602001611a349291906120a9565b60408051601f198184030181529082905260e560020a62461bcd0282526108019160040161212a565b611a678282610c83565b156109fb576000828152600660209081526040808320600160a060020a0385168085529252808320805460ff1916905551339285917ff6391f5c32d9c69d2a47ea670b442974b53935d1edc7fd64eb21e047a839171b9190a45050565b60008181526001830160205260408120548015611bda576000611ae86001836121b7565b8554909150600090611afc906001906121b7565b90506000866000018281548110611b265760e060020a634e487b7102600052603260045260246000fd5b9060005260206000200154905080876000018481548110611b5a5760e060020a634e487b7102600052603260045260246000fd5b600091825260208083209091019290925582815260018901909152604090208490558654879080611b9e5760e060020a634e487b7102600052603160045260246000fd5b600190038181906000526020600020016000905590558660010160008781526020019081526020016000206000905560019450505050506106ad565b60009150506106ad565b81546000908210611c605760405160e560020a62461bcd02815260206004820152602260248201527f456e756d657261626c655365743a20696e646578206f7574206f6620626f756e60448201527f64730000000000000000000000000000000000000000000000000000000000006064820152608401610801565b826000018281548110611c865760e060020a634e487b7102600052603260045260246000fd5b9060005260206000200154905092915050565b60606000611ca8836002612198565b611cb390600261215d565b67ffffffffffffffff811115611cdc5760e060020a634e487b7102600052604160045260246000fd5b6040519080825280601f01601f191660200182016040528015611d06576020820181803683370190505b5090507f300000000000000000000000000000000000000000000000000000000000000081600081518110611d4e5760e060020a634e487b7102600052603260045260246000fd5b60200101907effffffffffffffffffffffffffffffffffffffffffffffffffffffffffffff1916908160001a9053507f780000000000000000000000000000000000000000000000000000000000000081600181518110611dc25760e060020a634e487b7102600052603260045260246000fd5b60200101907effffffffffffffffffffffffffffffffffffffffffffffffffffffffffffff1916908160001a9053506000611dfe846002612198565b611e0990600161215d565b90505b6001811115611ee6577f303132333435363738396162636465660000000000000000000000000000000085600f1660108110611e5b5760e060020a634e487b7102600052603260045260246000fd5b1a7f010000000000000000000000000000000000000000000000000000000000000002828281518110611ea15760e060020a634e487b7102600052603260045260246000fd5b60200101907effffffffffffffffffffffffffffffffffffffffffffffffffffffffffffff1916908160001a905350601090940493611edf816121fa565b9050611e0c565b508315610c7c5760405160e560020a62461bcd02815260206004820181905260248201527f537472696e67733a20686578206c656e67746820696e73756666696369656e746044820152606401610801565b8035600160a060020a0381168114611f4f57600080fd5b919050565b600060208284031215611f65578081fd5b610c7c82611f38565b60008060408385031215611f80578081fd5b611f8983611f38565b9150611f9760208401611f38565b90509250929050565b600080600060608486031215611fb4578081fd5b611fbd84611f38565b9250611fcb60208501611f38565b9150604084013590509250925092565b60008060408385031215611fed578182fd5b611ff683611f38565b946020939093013593505050565b600060208284031215612015578081fd5b5035919050565b6000806040838503121561202e578182fd5b82359150611f9760208401611f38565b60008060408385031215612050578182fd5b50508035926020909101359150565b600060208284031215612070578081fd5b8135600160e060020a031981168114610c7c578182fd5b600060208284031215612098578081fd5b813561ffff81168114610c7c578182fd5b7f416363657373436f6e74726f6c3a206163636f756e74200000000000000000008152600083516120e18160178501602088016121ce565b7f206973206d697373696e6720726f6c6520000000000000000000000000000000601791840191820152835161211e8160288401602088016121ce565b01602801949350505050565b60208152600082518060208401526121498160408501602087016121ce565b601f01601f19169190910160400192915050565b600082198211156121705761217061226a565b500190565b6000826121935760e060020a634e487b710281526012600452602481fd5b500490565b60008160001904831182151516156121b2576121b261226a565b500290565b6000828210156121c9576121c961226a565b500390565b60005b838110156121e95781810151838201526020016121d1565b83811115610f0d5750506000910152565b6000816122095761220961226a565b506000190190565b60028104600182168061222557607f821691505b602082108114156122495760e060020a634e487b7102600052602260045260246000fd5b50919050565b60006000198214156122635761226361226a565b5060010190565b60e060020a634e487b7102600052601160045260246000fdfe4504b9dfd7400a1522f49a8b4a100552da9236849581fd59b7363eb48c6a474ca264697066735822122036b7d830612e35998515a5488432523c4fac880fe6fb1e7605673c48d17b7b1b64736f6c63430008040033",
  "immutableReferences": {},
  "source": "// SPDX-License-Identifier: MIT\npragma solidity >=0.4.22 <0.9.0;\n\nimport \"@openzeppelin/contracts/token/ERC20/ERC20.sol\";\nimport \"@openzeppelin/contracts/token/ERC20/extensions/ERC20Burnable.sol\";\nimport \"@openzeppelin/contracts/token/ERC20/extensions/ERC20Pausable.sol\";\nimport \"@openzeppelin/contracts/access/AccessControlEnumerable.sol\";\nimport \"../library/TransactionFee.sol\";\n\ncontract TuviellaToken is ERC20, ERC20Burnable, ERC20Pausable, AccessControlEnumerable, TransactionFee {\n  bytes32 public constant MINTER_ROLE = keccak256(\"MINTER_ROLE\");\n  bytes32 public constant PAUSER_ROLE = keccak256(\"PAUSER_ROLE\");\n\n  address public lastTransfer;\n\n  bool stakintMinterSetted;\n\n  /**\n   * @dev Grants `DEFAULT_ADMIN_ROLE`, `MINTER_ROLE` and `PAUSER_ROLE` to the\n   * account that deploys the contract and mint 1million tokens to master chef address\n   *\n   * See {ERC20-constructor}.\n   */\n  constructor(address masterChef) ERC20('Tuviella Token', 'TVT') TransactionFee() {\n    uint initial = 400000 ether;\n    _mint(masterChef, initial);\n    _setupRole(DEFAULT_ADMIN_ROLE, _msgSender());\n\n    _setupRole(MINTER_ROLE, _msgSender());\n    _setupRole(PAUSER_ROLE, _msgSender());\n\n    stakintMinterSetted = false;\n\n    lastTransfer = _msgSender();\n  }\n\n  function setStakingMinter(address staking) external{\n    require(hasRole(DEFAULT_ADMIN_ROLE, _msgSender()), \"not admin!\");\n    require(!stakintMinterSetted, \"This function won't be called.\");\n\n    _setupRole(MINTER_ROLE, staking);\n\n    stakintMinterSetted = true;\n  }\n\n  /**\n   * @dev Creates `amount` new tokens for `to`.\n   *\n   * See {ERC20-_mint}.\n   *\n   * Requirements:\n   *\n   * - the caller must have the `MINTER_ROLE`.\n   */\n  function mint(address to, uint256 amount) public virtual {\n    require(hasRole(MINTER_ROLE, _msgSender()), \"Mint: must have minter role to mint\");\n    _mint(to, amount);\n  }\n\n  /**\n   * @dev Pauses all token transfers.\n   *\n   * See {ERC20Pausable} and {Pausable-_pause}.\n   *\n   * Requirements:\n   *\n   * - the caller must have the `PAUSER_ROLE`.\n   */\n  function pause() public virtual {\n    require(hasRole(PAUSER_ROLE, _msgSender()), \"Pause: must have pauser role to pause\");\n    _pause();\n  }\n\n  /**\n   * @dev Unpauses all token transfers.\n   *\n   * See {ERC20Pausable} and {Pausable-_unpause}.\n   *\n   * Requirements:\n   *\n   * - the caller must have the `PAUSER_ROLE`.\n   */\n  function unpause() public virtual {\n    require(hasRole(PAUSER_ROLE, _msgSender()), \"UnPause: must have pauser role to unpause\");\n    _unpause();\n  }\n\n  function _beforeTokenTransfer(address from, address to, uint256 amount) internal virtual override(ERC20, ERC20Pausable){ }\n\n  function _transfer(address sender, address recipient, uint256 amount) internal virtual override(ERC20){\n    uint txFee = amount * getTransactionFee() / 10000;\n    uint amountBurn = txFee * getBurnFee() / 10000;\n    uint amountDevs = txFee * getDevsFee() / 10000;\n    uint amountHolder = txFee * getHolderFee() / 10000;\n    \n    super._transfer(sender, address(this), amountBurn + amountDevs);\n    super._transfer(sender, lastTransfer, amountHolder);\n    lastTransfer = sender;\n  \n    amount -= txFee;\n    super._transfer(sender, recipient, amount);\n  }\n\n  function devsGetPaid() external{\n    uint devCount = getRoleMemberCount(DEVELOPER_ROLE);\n\n    uint dFee = getDevsFee();\n    uint bFee = getBurnFee();\n\n    uint toDevs = balanceOf(address(this)) * dFee / (dFee + bFee);\n\n    require(toDevs > 1 ether, \"Not enough for everyone\");\n\n    for(uint i = 0; i < devCount; i++){\n      super._transfer(address(this), getRoleMember(DEVELOPER_ROLE, i), toDevs);\n    }\n\n    _burn(address(this), balanceOf(address(this)));\n  }\n\n}\n",
  "sourcePath": "/Users/guillermo/Projects/crypto/tuviella-contract/contracts/token/TuviellaToken.sol",
  "compiler": {
    "name": "solc",
    "version": "0.8.4+commit.c7e474f2.Emscripten.clang"
  },
  "schemaVersion": "3.4.1",
  "updatedAt": "2021-08-10T15:53:21.520Z",
  "networkType": "ethereum",
  "devdoc": {
    "kind": "dev",
    "methods": {
      "allowance(address,address)": {
        "details": "See {IERC20-allowance}."
      },
      "approve(address,uint256)": {
        "details": "See {IERC20-approve}. Requirements: - `spender` cannot be the zero address."
      },
      "balanceOf(address)": {
        "details": "See {IERC20-balanceOf}."
      },
      "burn(uint256)": {
        "details": "Destroys `amount` tokens from the caller. See {ERC20-_burn}."
      },
      "burnFrom(address,uint256)": {
        "details": "Destroys `amount` tokens from `account`, deducting from the caller's allowance. See {ERC20-_burn} and {ERC20-allowance}. Requirements: - the caller must have allowance for ``accounts``'s tokens of at least `amount`."
      },
      "constructor": {
        "details": "Grants `DEFAULT_ADMIN_ROLE`, `MINTER_ROLE` and `PAUSER_ROLE` to the account that deploys the contract and mint 1million tokens to master chef address See {ERC20-constructor}."
      },
      "decimals()": {
        "details": "Returns the number of decimals used to get its user representation. For example, if `decimals` equals `2`, a balance of `505` tokens should be displayed to a user as `5,05` (`505 / 10 ** 2`). Tokens usually opt for a value of 18, imitating the relationship between Ether and Wei. This is the value {ERC20} uses, unless this function is overridden; NOTE: This information is only used for _display_ purposes: it in no way affects any of the arithmetic of the contract, including {IERC20-balanceOf} and {IERC20-transfer}."
      },
      "decreaseAllowance(address,uint256)": {
        "details": "Atomically decreases the allowance granted to `spender` by the caller. This is an alternative to {approve} that can be used as a mitigation for problems described in {IERC20-approve}. Emits an {Approval} event indicating the updated allowance. Requirements: - `spender` cannot be the zero address. - `spender` must have allowance for the caller of at least `subtractedValue`."
      },
      "getBurnFee()": {
        "details": "Get burn fee for every transaction"
      },
      "getDevsFee()": {
        "details": "Get devs fee for every transaction"
      },
      "getHolderFee()": {
        "details": "Get holder fee for every transaction"
      },
      "getRoleAdmin(bytes32)": {
        "details": "Returns the admin role that controls `role`. See {grantRole} and {revokeRole}. To change a role's admin, use {_setRoleAdmin}."
      },
      "getRoleMember(bytes32,uint256)": {
        "details": "Returns one of the accounts that have `role`. `index` must be a value between 0 and {getRoleMemberCount}, non-inclusive. Role bearers are not sorted in any particular way, and their ordering may change at any point. WARNING: When using {getRoleMember} and {getRoleMemberCount}, make sure you perform all queries on the same block. See the following https://forum.openzeppelin.com/t/iterating-over-elements-on-enumerableset-in-openzeppelin-contracts/2296[forum post] for more information."
      },
      "getRoleMemberCount(bytes32)": {
        "details": "Returns the number of accounts that have `role`. Can be used together with {getRoleMember} to enumerate all bearers of a role."
      },
      "getTransactionFee()": {
        "details": "Get transaction fee to pay for every transaction"
      },
      "grantRole(bytes32,address)": {
        "details": "Overload {grantRole} to track enumerable memberships"
      },
      "hasRole(bytes32,address)": {
        "details": "Returns `true` if `account` has been granted `role`."
      },
      "increaseAllowance(address,uint256)": {
        "details": "Atomically increases the allowance granted to `spender` by the caller. This is an alternative to {approve} that can be used as a mitigation for problems described in {IERC20-approve}. Emits an {Approval} event indicating the updated allowance. Requirements: - `spender` cannot be the zero address."
      },
      "mint(address,uint256)": {
        "details": "Creates `amount` new tokens for `to`. See {ERC20-_mint}. Requirements: - the caller must have the `MINTER_ROLE`."
      },
      "name()": {
        "details": "Returns the name of the token."
      },
      "pause()": {
        "details": "Pauses all token transfers. See {ERC20Pausable} and {Pausable-_pause}. Requirements: - the caller must have the `PAUSER_ROLE`."
      },
      "paused()": {
        "details": "Returns true if the contract is paused, and false otherwise."
      },
      "renounceRole(bytes32,address)": {
        "details": "Overload {renounceRole} to track enumerable memberships"
      },
      "revokeRole(bytes32,address)": {
        "details": "Overload {revokeRole} to track enumerable memberships"
      },
      "setBurnFee(uint16)": {
        "details": "Set burn fee for every transaction"
      },
      "setDevsFee(uint16)": {
        "details": "Set devs fee for every transaction"
      },
      "setHolderFee(uint16)": {
        "details": "Set holder fee for every transaction"
      },
      "setTransactionFee(uint16)": {
        "details": "Set transaction fee to pay for every transaction"
      },
      "supportsInterface(bytes4)": {
        "details": "See {IERC165-supportsInterface}."
      },
      "symbol()": {
        "details": "Returns the symbol of the token, usually a shorter version of the name."
      },
      "totalSupply()": {
        "details": "See {IERC20-totalSupply}."
      },
      "transfer(address,uint256)": {
        "details": "See {IERC20-transfer}. Requirements: - `recipient` cannot be the zero address. - the caller must have a balance of at least `amount`."
      },
      "transferFrom(address,address,uint256)": {
        "details": "See {IERC20-transferFrom}. Emits an {Approval} event indicating the updated allowance. This is not required by the EIP. See the note at the beginning of {ERC20}. Requirements: - `sender` and `recipient` cannot be the zero address. - `sender` must have a balance of at least `amount`. - the caller must have allowance for ``sender``'s tokens of at least `amount`."
      },
      "unpause()": {
        "details": "Unpauses all token transfers. See {ERC20Pausable} and {Pausable-_unpause}. Requirements: - the caller must have the `PAUSER_ROLE`."
      }
    },
    "version": 1
  },
  "userdoc": {
    "kind": "user",
    "methods": {},
    "version": 1
  }
}