{
  "contractName": "TuviellaToken",
  "abi": [
    {
      "inputs": [
        {
          "internalType": "address",
          "name": "masterChef",
          "type": "address"
        },
        {
          "internalType": "address",
          "name": "faucet",
          "type": "address"
        }
      ],
      "stateMutability": "nonpayable",
      "type": "constructor"
    },
    {
      "anonymous": false,
      "inputs": [
        {
          "indexed": true,
          "internalType": "address",
          "name": "owner",
          "type": "address"
        },
        {
          "indexed": true,
          "internalType": "address",
          "name": "spender",
          "type": "address"
        },
        {
          "indexed": false,
          "internalType": "uint256",
          "name": "value",
          "type": "uint256"
        }
      ],
      "name": "Approval",
      "type": "event"
    },
    {
      "anonymous": false,
      "inputs": [
        {
          "indexed": false,
          "internalType": "address",
          "name": "account",
          "type": "address"
        }
      ],
      "name": "Paused",
      "type": "event"
    },
    {
      "anonymous": false,
      "inputs": [
        {
          "indexed": true,
          "internalType": "bytes32",
          "name": "role",
          "type": "bytes32"
        },
        {
          "indexed": true,
          "internalType": "bytes32",
          "name": "previousAdminRole",
          "type": "bytes32"
        },
        {
          "indexed": true,
          "internalType": "bytes32",
          "name": "newAdminRole",
          "type": "bytes32"
        }
      ],
      "name": "RoleAdminChanged",
      "type": "event"
    },
    {
      "anonymous": false,
      "inputs": [
        {
          "indexed": true,
          "internalType": "bytes32",
          "name": "role",
          "type": "bytes32"
        },
        {
          "indexed": true,
          "internalType": "address",
          "name": "account",
          "type": "address"
        },
        {
          "indexed": true,
          "internalType": "address",
          "name": "sender",
          "type": "address"
        }
      ],
      "name": "RoleGranted",
      "type": "event"
    },
    {
      "anonymous": false,
      "inputs": [
        {
          "indexed": true,
          "internalType": "bytes32",
          "name": "role",
          "type": "bytes32"
        },
        {
          "indexed": true,
          "internalType": "address",
          "name": "account",
          "type": "address"
        },
        {
          "indexed": true,
          "internalType": "address",
          "name": "sender",
          "type": "address"
        }
      ],
      "name": "RoleRevoked",
      "type": "event"
    },
    {
      "anonymous": false,
      "inputs": [
        {
          "indexed": true,
          "internalType": "address",
          "name": "from",
          "type": "address"
        },
        {
          "indexed": true,
          "internalType": "address",
          "name": "to",
          "type": "address"
        },
        {
          "indexed": false,
          "internalType": "uint256",
          "name": "value",
          "type": "uint256"
        }
      ],
      "name": "Transfer",
      "type": "event"
    },
    {
      "anonymous": false,
      "inputs": [
        {
          "indexed": false,
          "internalType": "address",
          "name": "account",
          "type": "address"
        }
      ],
      "name": "Unpaused",
      "type": "event"
    },
    {
      "inputs": [],
      "name": "DEFAULT_ADMIN_ROLE",
      "outputs": [
        {
          "internalType": "bytes32",
          "name": "",
          "type": "bytes32"
        }
      ],
      "stateMutability": "view",
      "type": "function",
      "constant": true
    },
    {
      "inputs": [],
      "name": "DEVELOPER_ROLE",
      "outputs": [
        {
          "internalType": "bytes32",
          "name": "",
          "type": "bytes32"
        }
      ],
      "stateMutability": "view",
      "type": "function",
      "constant": true
    },
    {
      "inputs": [],
      "name": "MINTER_ROLE",
      "outputs": [
        {
          "internalType": "bytes32",
          "name": "",
          "type": "bytes32"
        }
      ],
      "stateMutability": "view",
      "type": "function",
      "constant": true
    },
    {
      "inputs": [],
      "name": "PAUSER_ROLE",
      "outputs": [
        {
          "internalType": "bytes32",
          "name": "",
          "type": "bytes32"
        }
      ],
      "stateMutability": "view",
      "type": "function",
      "constant": true
    },
    {
      "inputs": [
        {
          "internalType": "address",
          "name": "_wallet",
          "type": "address"
        }
      ],
      "name": "addDev",
      "outputs": [],
      "stateMutability": "nonpayable",
      "type": "function"
    },
    {
      "inputs": [
        {
          "internalType": "address",
          "name": "owner",
          "type": "address"
        },
        {
          "internalType": "address",
          "name": "spender",
          "type": "address"
        }
      ],
      "name": "allowance",
      "outputs": [
        {
          "internalType": "uint256",
          "name": "",
          "type": "uint256"
        }
      ],
      "stateMutability": "view",
      "type": "function",
      "constant": true
    },
    {
      "inputs": [
        {
          "internalType": "address",
          "name": "spender",
          "type": "address"
        },
        {
          "internalType": "uint256",
          "name": "amount",
          "type": "uint256"
        }
      ],
      "name": "approve",
      "outputs": [
        {
          "internalType": "bool",
          "name": "",
          "type": "bool"
        }
      ],
      "stateMutability": "nonpayable",
      "type": "function"
    },
    {
      "inputs": [
        {
          "internalType": "address",
          "name": "account",
          "type": "address"
        }
      ],
      "name": "balanceOf",
      "outputs": [
        {
          "internalType": "uint256",
          "name": "",
          "type": "uint256"
        }
      ],
      "stateMutability": "view",
      "type": "function",
      "constant": true
    },
    {
      "inputs": [
        {
          "internalType": "uint256",
          "name": "amount",
          "type": "uint256"
        }
      ],
      "name": "burn",
      "outputs": [],
      "stateMutability": "nonpayable",
      "type": "function"
    },
    {
      "inputs": [
        {
          "internalType": "address",
          "name": "account",
          "type": "address"
        },
        {
          "internalType": "uint256",
          "name": "amount",
          "type": "uint256"
        }
      ],
      "name": "burnFrom",
      "outputs": [],
      "stateMutability": "nonpayable",
      "type": "function"
    },
    {
      "inputs": [],
      "name": "decimals",
      "outputs": [
        {
          "internalType": "uint8",
          "name": "",
          "type": "uint8"
        }
      ],
      "stateMutability": "view",
      "type": "function",
      "constant": true
    },
    {
      "inputs": [
        {
          "internalType": "address",
          "name": "spender",
          "type": "address"
        },
        {
          "internalType": "uint256",
          "name": "subtractedValue",
          "type": "uint256"
        }
      ],
      "name": "decreaseAllowance",
      "outputs": [
        {
          "internalType": "bool",
          "name": "",
          "type": "bool"
        }
      ],
      "stateMutability": "nonpayable",
      "type": "function"
    },
    {
      "inputs": [],
      "name": "getBurnFee",
      "outputs": [
        {
          "internalType": "uint16",
          "name": "",
          "type": "uint16"
        }
      ],
      "stateMutability": "view",
      "type": "function",
      "constant": true
    },
    {
      "inputs": [],
      "name": "getDevsFee",
      "outputs": [
        {
          "internalType": "uint16",
          "name": "",
          "type": "uint16"
        }
      ],
      "stateMutability": "view",
      "type": "function",
      "constant": true
    },
    {
      "inputs": [],
      "name": "getHolderFee",
      "outputs": [
        {
          "internalType": "uint16",
          "name": "",
          "type": "uint16"
        }
      ],
      "stateMutability": "view",
      "type": "function",
      "constant": true
    },
    {
      "inputs": [
        {
          "internalType": "bytes32",
          "name": "role",
          "type": "bytes32"
        }
      ],
      "name": "getRoleAdmin",
      "outputs": [
        {
          "internalType": "bytes32",
          "name": "",
          "type": "bytes32"
        }
      ],
      "stateMutability": "view",
      "type": "function",
      "constant": true
    },
    {
      "inputs": [
        {
          "internalType": "bytes32",
          "name": "role",
          "type": "bytes32"
        },
        {
          "internalType": "uint256",
          "name": "index",
          "type": "uint256"
        }
      ],
      "name": "getRoleMember",
      "outputs": [
        {
          "internalType": "address",
          "name": "",
          "type": "address"
        }
      ],
      "stateMutability": "view",
      "type": "function",
      "constant": true
    },
    {
      "inputs": [
        {
          "internalType": "bytes32",
          "name": "role",
          "type": "bytes32"
        }
      ],
      "name": "getRoleMemberCount",
      "outputs": [
        {
          "internalType": "uint256",
          "name": "",
          "type": "uint256"
        }
      ],
      "stateMutability": "view",
      "type": "function",
      "constant": true
    },
    {
      "inputs": [],
      "name": "getTransactionFee",
      "outputs": [
        {
          "internalType": "uint16",
          "name": "",
          "type": "uint16"
        }
      ],
      "stateMutability": "view",
      "type": "function",
      "constant": true
    },
    {
      "inputs": [
        {
          "internalType": "bytes32",
          "name": "role",
          "type": "bytes32"
        },
        {
          "internalType": "address",
          "name": "account",
          "type": "address"
        }
      ],
      "name": "grantRole",
      "outputs": [],
      "stateMutability": "nonpayable",
      "type": "function"
    },
    {
      "inputs": [
        {
          "internalType": "bytes32",
          "name": "role",
          "type": "bytes32"
        },
        {
          "internalType": "address",
          "name": "account",
          "type": "address"
        }
      ],
      "name": "hasRole",
      "outputs": [
        {
          "internalType": "bool",
          "name": "",
          "type": "bool"
        }
      ],
      "stateMutability": "view",
      "type": "function",
      "constant": true
    },
    {
      "inputs": [
        {
          "internalType": "address",
          "name": "spender",
          "type": "address"
        },
        {
          "internalType": "uint256",
          "name": "addedValue",
          "type": "uint256"
        }
      ],
      "name": "increaseAllowance",
      "outputs": [
        {
          "internalType": "bool",
          "name": "",
          "type": "bool"
        }
      ],
      "stateMutability": "nonpayable",
      "type": "function"
    },
    {
      "inputs": [],
      "name": "name",
      "outputs": [
        {
          "internalType": "string",
          "name": "",
          "type": "string"
        }
      ],
      "stateMutability": "view",
      "type": "function",
      "constant": true
    },
    {
      "inputs": [],
      "name": "paused",
      "outputs": [
        {
          "internalType": "bool",
          "name": "",
          "type": "bool"
        }
      ],
      "stateMutability": "view",
      "type": "function",
      "constant": true
    },
    {
      "inputs": [
        {
          "internalType": "address",
          "name": "_wallet",
          "type": "address"
        }
      ],
      "name": "removeDev",
      "outputs": [],
      "stateMutability": "nonpayable",
      "type": "function"
    },
    {
      "inputs": [
        {
          "internalType": "bytes32",
          "name": "role",
          "type": "bytes32"
        },
        {
          "internalType": "address",
          "name": "account",
          "type": "address"
        }
      ],
      "name": "renounceRole",
      "outputs": [],
      "stateMutability": "nonpayable",
      "type": "function"
    },
    {
      "inputs": [
        {
          "internalType": "bytes32",
          "name": "role",
          "type": "bytes32"
        },
        {
          "internalType": "address",
          "name": "account",
          "type": "address"
        }
      ],
      "name": "revokeRole",
      "outputs": [],
      "stateMutability": "nonpayable",
      "type": "function"
    },
    {
      "inputs": [
        {
          "internalType": "uint16",
          "name": "_fee",
          "type": "uint16"
        }
      ],
      "name": "setBurnFee",
      "outputs": [],
      "stateMutability": "nonpayable",
      "type": "function"
    },
    {
      "inputs": [
        {
          "internalType": "uint16",
          "name": "_fee",
          "type": "uint16"
        }
      ],
      "name": "setDevsFee",
      "outputs": [],
      "stateMutability": "nonpayable",
      "type": "function"
    },
    {
      "inputs": [
        {
          "internalType": "uint16",
          "name": "_fee",
          "type": "uint16"
        }
      ],
      "name": "setHolderFee",
      "outputs": [],
      "stateMutability": "nonpayable",
      "type": "function"
    },
    {
      "inputs": [
        {
          "internalType": "uint16",
          "name": "_fee",
          "type": "uint16"
        }
      ],
      "name": "setTransactionFee",
      "outputs": [],
      "stateMutability": "nonpayable",
      "type": "function"
    },
    {
      "inputs": [
        {
          "internalType": "bytes4",
          "name": "interfaceId",
          "type": "bytes4"
        }
      ],
      "name": "supportsInterface",
      "outputs": [
        {
          "internalType": "bool",
          "name": "",
          "type": "bool"
        }
      ],
      "stateMutability": "view",
      "type": "function",
      "constant": true
    },
    {
      "inputs": [],
      "name": "symbol",
      "outputs": [
        {
          "internalType": "string",
          "name": "",
          "type": "string"
        }
      ],
      "stateMutability": "view",
      "type": "function",
      "constant": true
    },
    {
      "inputs": [],
      "name": "totalSupply",
      "outputs": [
        {
          "internalType": "uint256",
          "name": "",
          "type": "uint256"
        }
      ],
      "stateMutability": "view",
      "type": "function",
      "constant": true
    },
    {
      "inputs": [
        {
          "internalType": "address",
          "name": "recipient",
          "type": "address"
        },
        {
          "internalType": "uint256",
          "name": "amount",
          "type": "uint256"
        }
      ],
      "name": "transfer",
      "outputs": [
        {
          "internalType": "bool",
          "name": "",
          "type": "bool"
        }
      ],
      "stateMutability": "nonpayable",
      "type": "function"
    },
    {
      "inputs": [
        {
          "internalType": "address",
          "name": "sender",
          "type": "address"
        },
        {
          "internalType": "address",
          "name": "recipient",
          "type": "address"
        },
        {
          "internalType": "uint256",
          "name": "amount",
          "type": "uint256"
        }
      ],
      "name": "transferFrom",
      "outputs": [
        {
          "internalType": "bool",
          "name": "",
          "type": "bool"
        }
      ],
      "stateMutability": "nonpayable",
      "type": "function"
    },
    {
      "inputs": [
        {
          "internalType": "address",
          "name": "to",
          "type": "address"
        },
        {
          "internalType": "uint256",
          "name": "amount",
          "type": "uint256"
        }
      ],
      "name": "mint",
      "outputs": [],
      "stateMutability": "nonpayable",
      "type": "function"
    },
    {
      "inputs": [],
      "name": "pause",
      "outputs": [],
      "stateMutability": "nonpayable",
      "type": "function"
    },
    {
      "inputs": [],
      "name": "unpause",
      "outputs": [],
      "stateMutability": "nonpayable",
      "type": "function"
    }
  ],
  "bytecode": "0x60806040526008805467ffffffffffffffff19166709c409c4138800461790553480156200002c57600080fd5b5060405162002bf838038062002bf88339810160408190526200004f91620009e5565b6040518060400160405280600e81526020017f54757669656c6c6120546f6b656e0000000000000000000000000000000000008152506040518060400160405280600381526020017f54565400000000000000000000000000000000000000000000000000000000008152508160039080519060200190620000d392919062000922565b508051620000e990600490602084019062000922565b50506005805460ff19169055506200013d7f4504b9dfd7400a1522f49a8b4a100552da9236849581fd59b7363eb48c6a474c6200012e6401000000006200020d810204565b64010000000062000211810204565b69d3c21bcecceda100000062000169836200015a60028462000a37565b64010000000062000258810204565b6200017b826200015a60028462000a37565b6200019460006200012e6401000000006200020d810204565b620001cc7f9f2df0fed2c77648de5860a4cc508cd0818c85b8b8a1ab4ceeef8d981c8956a66200012e6401000000006200020d810204565b620002047f65d7a28e3265b37a6474929f336521b332c1681b933f6cb9f3376673440d862a6200012e6401000000006200020d810204565b50505062000b32565b3390565b6200022b828264010000000062000cb36200036182021704565b600082815260076020526040902062000253908264010000000062000cbd6200037a82021704565b505050565b600160a060020a038216620002ce576040517f08c379a000000000000000000000000000000000000000000000000000000000815260206004820152601f60248201527f45524332303a206d696e7420746f20746865207a65726f20616464726573730060448201526064015b60405180910390fd5b620002e560008383640100000000620003a3810204565b8060026000828254620002f9919062000a1c565b9091555050600160a060020a038216600090815260208190526040812080548392906200032890849062000a1c565b9091555050604051818152600160a060020a0383169060009060008051602062002bd88339815191529060200160405180910390a35050565b62000376828264010000000062000513810204565b5050565b60006200039a83600160a060020a038416640100000000620005b1810204565b90505b92915050565b600160a060020a03821615801590620003c45750600160a060020a03831615155b1562000253576000612710620003e264010000000062000609810204565b620003f29061ffff168462000a71565b620003fe919062000a37565b905060006127106200041864010000000062000613810204565b620004289061ffff168462000a71565b62000434919062000a37565b905060006127106200044e64010000000062000623810204565b6200045e9061ffff168562000a71565b6200046a919062000a37565b905060006127106200048464010000000062000635810204565b620004949061ffff168662000a71565b620004a0919062000a37565b9050620004b7878464010000000062000649810204565b620004cc878364010000000062000376810204565b620004e1878264010000000062000376810204565b620004ed848662000a93565b94506200050a87878764010000000062000cd26200081982021704565b50505050505050565b620005288282640100000000620008d6810204565b62000376576000828152600660209081526040808320600160a060020a03851684529091529020805460ff191660011790556200056d6401000000006200020d810204565b600160a060020a031681600160a060020a0316837f2f8788117e7eff1d82e926ec794901d17c78024a50270940304540a733656f0d60405160405180910390a45050565b6000620005c8838364010000000062000901810204565b62000600575081546001818101845560008481526020808220909301849055845484825282860190935260409020919091556200039d565b5060006200039d565b60085461ffff1690565b60085462010000900461ffff1690565b600854640100000000900461ffff1690565b6008546601000000000000900461ffff1690565b600160a060020a038216620006e1576040517f08c379a000000000000000000000000000000000000000000000000000000000815260206004820152602160248201527f45524332303a206275726e2066726f6d20746865207a65726f2061646472657360448201527f73000000000000000000000000000000000000000000000000000000000000006064820152608401620002c5565b620006f882600083640100000000620003a3810204565b600160a060020a03821660009081526020819052604090205481811015620007a3576040517f08c379a000000000000000000000000000000000000000000000000000000000815260206004820152602260248201527f45524332303a206275726e20616d6f756e7420657863656564732062616c616e60448201527f63650000000000000000000000000000000000000000000000000000000000006064820152608401620002c5565b620007af828262000a93565b600160a060020a03841660009081526020819052604081209190915560028054849290620007df90849062000a93565b9091555050604051828152600090600160a060020a0385169060008051602062002bd88339815191529060200160405180910390a3505050565b620008348383836401000000006200081b6200025382021704565b6200084764010000000062000919810204565b1562000253576040517f08c379a000000000000000000000000000000000000000000000000000000000815260206004820152602a60248201527f45524332305061757361626c653a20746f6b656e207472616e7366657220776860448201527f696c6520706175736564000000000000000000000000000000000000000000006064820152608401620002c5565b6000918252600660209081526040808420600160a060020a0393909316845291905290205460ff1690565b60009081526001919091016020526040902054151590565b60055460ff1690565b828054620009309062000aad565b90600052602060002090601f0160209004810192826200095457600085556200099f565b82601f106200096f57805160ff19168380011785556200099f565b828001600101855582156200099f579182015b828111156200099f57825182559160200191906001019062000982565b50620009ad929150620009b1565b5090565b5b80821115620009ad5760008155600101620009b2565b8051600160a060020a0381168114620009e057600080fd5b919050565b60008060408385031215620009f8578182fd5b62000a0383620009c8565b915062000a1360208401620009c8565b90509250929050565b6000821982111562000a325762000a3262000b03565b500190565b60008262000a6c577f4e487b710000000000000000000000000000000000000000000000000000000081526012600452602481fd5b500490565b600081600019048311821515161562000a8e5762000a8e62000b03565b500290565b60008282101562000aa85762000aa862000b03565b500390565b60028104600182168062000ac257607f821691505b6020821081141562000afd577f4e487b7100000000000000000000000000000000000000000000000000000000600052602260045260246000fd5b50919050565b7f4e487b7100000000000000000000000000000000000000000000000000000000600052601160045260246000fd5b6120968062000b426000396000f3fe608060405234801561001057600080fd5b506004361061025a576000357c0100000000000000000000000000000000000000000000000000000000900480638456cb5911610158578063b45940f2116100d5578063d547741f11610099578063d547741f14610580578063dd62ed3e14610593578063e63ab1e9146105cc578063ee4b4307146105f3578063faa271ff1461062957600080fd5b8063b45940f2146104fa578063b91d3ace14610520578063c4026d7b14610533578063ca15c87314610546578063d53913931461055957600080fd5b806395d89b411161011c57806395d89b41146104b2578063a217fddf146104ba578063a457c2d7146104c2578063a9059cbb146104d5578063aa4b10d1146104e857600080fd5b80638456cb591461043957806385d79102146104415780639010d07c1461044d5780639103a0e01461047857806391d148541461049f57600080fd5b806339509351116101e657806349de5f87116101aa57806349de5f87146103925780635c975abb146103c057806370a08231146103cb57806371867b23146103f457806379cc67901461042657600080fd5b8063395093511461032e5780633f4ba83a1461034157806340c10f191461034957806342966c681461035c57806346e509941461036f57600080fd5b806323b872dd1161022d57806323b872dd146102c1578063248a9ca3146102d45780632f2ff15d146102f7578063313ce5671461030c57806336568abe1461031b57600080fd5b806301ffc9a71461025f57806306fdde0314610287578063095ea7b31461029c57806318160ddd146102af575b600080fd5b61027261026d366004611e53565b61063f565b60405190151581526020015b60405180910390f35b61028f610683565b60405161027e9190611f1e565b6102726102aa366004611dcf565b610715565b6002545b60405190815260200161027e565b6102726102cf366004611d94565b61072b565b6102b36102e2366004611df8565b60009081526006602052604090206001015490565b61030a610305366004611e10565b6107f9565b005b6040516012815260200161027e565b61030a610329366004611e10565b610820565b61027261033c366004611dcf565b610842565b61030a610879565b61030a610357366004611dcf565b610922565b61030a61036a366004611df8565b6109cf565b600854640100000000900461ffff165b60405161ffff909116815260200161027e565b61030a6103a0366004611e7b565b6008805461ffff909216620100000263ffff000019909216919091179055565b60055460ff16610272565b6102b36103d9366004611d48565b600160a060020a031660009081526020819052604090205490565b61030a610402366004611e7b565b6008805461ffff9092166401000000000265ffff0000000019909216919091179055565b61030a610434366004611dcf565b6109dc565b61030a610a7b565b60085461ffff1661037f565b61046061045b366004611e32565b610b22565b604051600160a060020a03909116815260200161027e565b6102b37f4504b9dfd7400a1522f49a8b4a100552da9236849581fd59b7363eb48c6a474c81565b6102726104ad366004611e10565b610b41565b61028f610b6c565b6102b3600081565b6102726104d0366004611dcf565b610b7b565b6102726104e3366004611dcf565b610c31565b60085462010000900461ffff1661037f565b61030a610508366004611e7b565b6008805461ffff191661ffff92909216919091179055565b61030a61052e366004611d48565b610c3e565b61030a610541366004611d48565b610c68565b6102b3610554366004611df8565b610c92565b6102b37f9f2df0fed2c77648de5860a4cc508cd0818c85b8b8a1ab4ceeef8d981c8956a681565b61030a61058e366004611e10565b610ca9565b6102b36105a1366004611d62565b600160a060020a03918216600090815260016020908152604080832093909416825291909152205490565b6102b37f65d7a28e3265b37a6474929f336521b332c1681b933f6cb9f3376673440d862a81565b61030a610601366004611e7b565b6008805461ffff90921666010000000000000267ffff00000000000019909216919091179055565b6008546601000000000000900461ffff1661037f565b6000600160e060020a031982167f5a05180f00000000000000000000000000000000000000000000000000000000148061067d575061067d82610d4e565b92915050565b60606003805461069290612009565b80601f01602080910402602001604051908101604052809291908181526020018280546106be90612009565b801561070b5780601f106106e05761010080835404028352916020019161070b565b820191906000526020600020905b8154815290600101906020018083116106ee57829003601f168201915b5050505050905090565b6000610722338484610db5565b50600192915050565b6000610738848484610f14565b600160a060020a0384166000908152600160209081526040808320338452909152902054828110156107da5760405160e560020a62461bcd02815260206004820152602860248201527f45524332303a207472616e7366657220616d6f756e742065786365656473206160448201527f6c6c6f77616e636500000000000000000000000000000000000000000000000060648201526084015b60405180910390fd5b6107ee85336107e98685611fab565b610db5565b506001949350505050565b6108038282611149565b600082815260076020526040902061081b9082610cbd565b505050565b61082a828261116f565b600082815260076020526040902061081b90826111fa565b336000818152600160209081526040808320600160a060020a038716845290915281205490916107229185906107e9908690611f51565b6108a37f65d7a28e3265b37a6474929f336521b332c1681b933f6cb9f3376673440d862a33610b41565b6109185760405160e560020a62461bcd02815260206004820152602960248201527f556e50617573653a206d75737420686176652070617573657220726f6c65207460448201527f6f20756e7061757365000000000000000000000000000000000000000000000060648201526084016107d1565b61092061120f565b565b61094c7f9f2df0fed2c77648de5860a4cc508cd0818c85b8b8a1ab4ceeef8d981c8956a633610b41565b6109c15760405160e560020a62461bcd02815260206004820152602360248201527f4d696e743a206d7573742068617665206d696e74657220726f6c6520746f206d60448201527f696e74000000000000000000000000000000000000000000000000000000000060648201526084016107d1565b6109cb82826112ae565b5050565b6109d9338261139c565b50565b60006109e883336105a1565b905081811015610a625760405160e560020a62461bcd028152602060048201526024808201527f45524332303a206275726e20616d6f756e74206578636565647320616c6c6f7760448201527f616e63650000000000000000000000000000000000000000000000000000000060648201526084016107d1565b610a7183336107e98585611fab565b61081b838361139c565b610aa57f65d7a28e3265b37a6474929f336521b332c1681b933f6cb9f3376673440d862a33610b41565b610b1a5760405160e560020a62461bcd02815260206004820152602560248201527f50617573653a206d75737420686176652070617573657220726f6c6520746f2060448201527f706175736500000000000000000000000000000000000000000000000000000060648201526084016107d1565b610920611534565b6000828152600760205260408120610b3a90836115bf565b9392505050565b6000918252600660209081526040808420600160a060020a0393909316845291905290205460ff1690565b60606004805461069290612009565b336000908152600160209081526040808320600160a060020a038616845290915281205482811015610c185760405160e560020a62461bcd02815260206004820152602560248201527f45524332303a2064656372656173656420616c6c6f77616e63652062656c6f7760448201527f207a65726f00000000000000000000000000000000000000000000000000000060648201526084016107d1565b610c2733856107e98685611fab565b5060019392505050565b6000610722338484610f14565b6109d97f4504b9dfd7400a1522f49a8b4a100552da9236849581fd59b7363eb48c6a474c826107f9565b6109d97f4504b9dfd7400a1522f49a8b4a100552da9236849581fd59b7363eb48c6a474c82610ca9565b600081815260076020526040812061067d906115cb565b61082a82826115d5565b6109cb82826115fb565b6000610b3a83600160a060020a038416611681565b60055460ff161561081b5760405160e560020a62461bcd02815260206004820152602a60248201527f45524332305061757361626c653a20746f6b656e207472616e7366657220776860448201527f696c65207061757365640000000000000000000000000000000000000000000060648201526084016107d1565b6000600160e060020a031982167f7965db0b00000000000000000000000000000000000000000000000000000000148061067d57507f01ffc9a700000000000000000000000000000000000000000000000000000000600160e060020a031983161461067d565b600160a060020a038316610e335760405160e560020a62461bcd028152602060048201526024808201527f45524332303a20617070726f76652066726f6d20746865207a65726f2061646460448201527f726573730000000000000000000000000000000000000000000000000000000060648201526084016107d1565b600160a060020a038216610eb25760405160e560020a62461bcd02815260206004820152602260248201527f45524332303a20617070726f766520746f20746865207a65726f20616464726560448201527f737300000000000000000000000000000000000000000000000000000000000060648201526084016107d1565b600160a060020a0383811660008181526001602090815260408083209487168084529482529182902085905590518481527f8c5be1e5ebec7d5bd14f71427d1e84f3dd0314c0f7b2291e5b200ac8c7c3b92591015b60405180910390a3505050565b600160a060020a038316610f935760405160e560020a62461bcd02815260206004820152602560248201527f45524332303a207472616e736665722066726f6d20746865207a65726f20616460448201527f647265737300000000000000000000000000000000000000000000000000000060648201526084016107d1565b600160a060020a0382166110125760405160e560020a62461bcd02815260206004820152602360248201527f45524332303a207472616e7366657220746f20746865207a65726f206164647260448201527f657373000000000000000000000000000000000000000000000000000000000060648201526084016107d1565b61101d8383836116d0565b600160a060020a038316600090815260208190526040902054818110156110af5760405160e560020a62461bcd02815260206004820152602660248201527f45524332303a207472616e7366657220616d6f756e742065786365656473206260448201527f616c616e6365000000000000000000000000000000000000000000000000000060648201526084016107d1565b6110b98282611fab565b600160a060020a0380861660009081526020819052604080822093909355908516815290812080548492906110ef908490611f51565b9250508190555082600160a060020a031684600160a060020a03167fddf252ad1be2c89b69c2b068fc378daa952ba7f163c4a11628f55a4df523b3ef8460405161113b91815260200190565b60405180910390a350505050565b60008281526006602052604090206001015461116581336117ea565b61081b83836115fb565b600160a060020a03811633146111f05760405160e560020a62461bcd02815260206004820152602f60248201527f416363657373436f6e74726f6c3a2063616e206f6e6c792072656e6f756e636560448201527f20726f6c657320666f722073656c66000000000000000000000000000000000060648201526084016107d1565b6109cb8282611851565b6000610b3a83600160a060020a0384166118b8565b60055460ff166112645760405160e560020a62461bcd02815260206004820152601460248201527f5061757361626c653a206e6f742070617573656400000000000000000000000060448201526064016107d1565b6005805460ff191690557f5db9ee0a495bf2e6ff9c91a7834c1ba4fdd244a5e8aa4e537bd38aeae4b073aa335b604051600160a060020a03909116815260200160405180910390a1565b600160a060020a0382166113075760405160e560020a62461bcd02815260206004820152601f60248201527f45524332303a206d696e7420746f20746865207a65726f20616464726573730060448201526064016107d1565b611313600083836116d0565b80600260008282546113259190611f51565b9091555050600160a060020a03821660009081526020819052604081208054839290611352908490611f51565b9091555050604051818152600160a060020a038316906000907fddf252ad1be2c89b69c2b068fc378daa952ba7f163c4a11628f55a4df523b3ef9060200160405180910390a35050565b600160a060020a03821661141b5760405160e560020a62461bcd02815260206004820152602160248201527f45524332303a206275726e2066726f6d20746865207a65726f2061646472657360448201527f730000000000000000000000000000000000000000000000000000000000000060648201526084016107d1565b611427826000836116d0565b600160a060020a038216600090815260208190526040902054818110156114b95760405160e560020a62461bcd02815260206004820152602260248201527f45524332303a206275726e20616d6f756e7420657863656564732062616c616e60448201527f636500000000000000000000000000000000000000000000000000000000000060648201526084016107d1565b6114c38282611fab565b600160a060020a038416600090815260208190526040812091909155600280548492906114f1908490611fab565b9091555050604051828152600090600160a060020a038516907fddf252ad1be2c89b69c2b068fc378daa952ba7f163c4a11628f55a4df523b3ef90602001610f07565b60055460ff161561158a5760405160e560020a62461bcd02815260206004820152601060248201527f5061757361626c653a207061757365640000000000000000000000000000000060448201526064016107d1565b6005805460ff191660011790557f62e78cea01bee320cd4e420270b5ea74000d11b0c9f74754ebdbfc544b05a2586112913390565b6000610b3a83836119d8565b600061067d825490565b6000828152600660205260409020600101546115f181336117ea565b61081b8383611851565b6116058282610b41565b6109cb576000828152600660209081526040808320600160a060020a03851684529091529020805460ff1916600117905561163d3390565b600160a060020a031681600160a060020a0316837f2f8788117e7eff1d82e926ec794901d17c78024a50270940304540a733656f0d60405160405180910390a45050565b60008181526001830160205260408120546116c85750815460018181018455600084815260208082209093018490558454848252828601909352604090209190915561067d565b50600061067d565b600160a060020a038216158015906116f05750600160a060020a03831615155b1561081b57600061271061170760085461ffff1690565b6117159061ffff1684611f8c565b61171f9190611f69565b9050600061271061173a60085461ffff620100009091041690565b6117489061ffff1684611f8c565b6117529190611f69565b9050600061271061176f60085461ffff6401000000009091041690565b61177d9061ffff1685611f8c565b6117879190611f69565b905060006127106117a660085461ffff66010000000000009091041690565b6117b49061ffff1686611f8c565b6117be9190611f69565b90506117ca878461139c565b6117d48486611fab565b94506117e1878787610cd2565b50505050505050565b6117f48282610b41565b6109cb5761180c81600160a060020a03166014611a8d565b611817836020611a8d565b604051602001611828929190611e9d565b60408051601f198184030181529082905260e560020a62461bcd0282526107d191600401611f1e565b61185b8282610b41565b156109cb576000828152600660209081526040808320600160a060020a0385168085529252808320805460ff1916905551339285917ff6391f5c32d9c69d2a47ea670b442974b53935d1edc7fd64eb21e047a839171b9190a45050565b600081815260018301602052604081205480156119ce5760006118dc600183611fab565b85549091506000906118f090600190611fab565b9050600086600001828154811061191a5760e060020a634e487b7102600052603260045260246000fd5b906000526020600020015490508087600001848154811061194e5760e060020a634e487b7102600052603260045260246000fd5b6000918252602080832090910192909255828152600189019091526040902084905586548790806119925760e060020a634e487b7102600052603160045260246000fd5b6001900381819060005260206000200160009055905586600101600087815260200190815260200160002060009055600194505050505061067d565b600091505061067d565b81546000908210611a545760405160e560020a62461bcd02815260206004820152602260248201527f456e756d657261626c655365743a20696e646578206f7574206f6620626f756e60448201527f647300000000000000000000000000000000000000000000000000000000000060648201526084016107d1565b826000018281548110611a7a5760e060020a634e487b7102600052603260045260246000fd5b9060005260206000200154905092915050565b60606000611a9c836002611f8c565b611aa7906002611f51565b67ffffffffffffffff811115611ad05760e060020a634e487b7102600052604160045260246000fd5b6040519080825280601f01601f191660200182016040528015611afa576020820181803683370190505b5090507f300000000000000000000000000000000000000000000000000000000000000081600081518110611b425760e060020a634e487b7102600052603260045260246000fd5b60200101907effffffffffffffffffffffffffffffffffffffffffffffffffffffffffffff1916908160001a9053507f780000000000000000000000000000000000000000000000000000000000000081600181518110611bb65760e060020a634e487b7102600052603260045260246000fd5b60200101907effffffffffffffffffffffffffffffffffffffffffffffffffffffffffffff1916908160001a9053506000611bf2846002611f8c565b611bfd906001611f51565b90505b6001811115611cda577f303132333435363738396162636465660000000000000000000000000000000085600f1660108110611c4f5760e060020a634e487b7102600052603260045260246000fd5b1a7f010000000000000000000000000000000000000000000000000000000000000002828281518110611c955760e060020a634e487b7102600052603260045260246000fd5b60200101907effffffffffffffffffffffffffffffffffffffffffffffffffffffffffffff1916908160001a905350601090940493611cd381611ff2565b9050611c00565b508315610b3a5760405160e560020a62461bcd02815260206004820181905260248201527f537472696e67733a20686578206c656e67746820696e73756666696369656e7460448201526064016107d1565b8035600160a060020a0381168114611d4357600080fd5b919050565b600060208284031215611d59578081fd5b610b3a82611d2c565b60008060408385031215611d74578081fd5b611d7d83611d2c565b9150611d8b60208401611d2c565b90509250929050565b600080600060608486031215611da8578081fd5b611db184611d2c565b9250611dbf60208501611d2c565b9150604084013590509250925092565b60008060408385031215611de1578182fd5b611dea83611d2c565b946020939093013593505050565b600060208284031215611e09578081fd5b5035919050565b60008060408385031215611e22578182fd5b82359150611d8b60208401611d2c565b60008060408385031215611e44578182fd5b50508035926020909101359150565b600060208284031215611e64578081fd5b8135600160e060020a031981168114610b3a578182fd5b600060208284031215611e8c578081fd5b813561ffff81168114610b3a578182fd5b7f416363657373436f6e74726f6c3a206163636f756e7420000000000000000000815260008351611ed5816017850160208801611fc2565b7f206973206d697373696e6720726f6c65200000000000000000000000000000006017918401918201528351611f12816028840160208801611fc2565b01602801949350505050565b6020815260008251806020840152611f3d816040850160208701611fc2565b601f01601f19169190910160400192915050565b60008219821115611f6457611f64612047565b500190565b600082611f875760e060020a634e487b710281526012600452602481fd5b500490565b6000816000190483118215151615611fa657611fa6612047565b500290565b600082821015611fbd57611fbd612047565b500390565b60005b83811015611fdd578181015183820152602001611fc5565b83811115611fec576000848401525b50505050565b60008161200157612001612047565b506000190190565b60028104600182168061201d57607f821691505b602082108114156120415760e060020a634e487b7102600052602260045260246000fd5b50919050565b60e060020a634e487b7102600052601160045260246000fdfea26469706673582212202bd5ff0dfa572bf0dfc20ec85da5efa55fed4d16a10872addb07e50acb793c3364736f6c63430008040033ddf252ad1be2c89b69c2b068fc378daa952ba7f163c4a11628f55a4df523b3ef",
  "immutableReferences": {},
  "source": "// SPDX-License-Identifier: MIT\npragma solidity >=0.4.22 <0.9.0;\n\nimport \"@openzeppelin/contracts/token/ERC20/ERC20.sol\";\nimport \"@openzeppelin/contracts/token/ERC20/extensions/ERC20Burnable.sol\";\nimport \"@openzeppelin/contracts/token/ERC20/extensions/ERC20Pausable.sol\";\nimport \"@openzeppelin/contracts/access/AccessControlEnumerable.sol\";\nimport \"../contracts/TransactionFee.sol\";\n\ncontract TuviellaToken is ERC20, ERC20Burnable, ERC20Pausable, AccessControlEnumerable, TransactionFee {\n  bytes32 public constant MINTER_ROLE = keccak256(\"MINTER_ROLE\");\n  bytes32 public constant PAUSER_ROLE = keccak256(\"PAUSER_ROLE\");\n\n  /**\n   * @dev Grants `DEFAULT_ADMIN_ROLE`, `MINTER_ROLE` and `PAUSER_ROLE` to the\n   * account that deploys the contract and mint 1million tokens to master chef address\n   *\n   * See {ERC20-constructor}.\n   */\n  constructor(address masterChef, address faucet) ERC20('Tuviella Token', 'TVT') TransactionFee() {\n    uint initial = 1000000 ether;\n    _mint(masterChef, initial / 2);\n    _mint(faucet, initial / 2);\n    _setupRole(DEFAULT_ADMIN_ROLE, _msgSender());\n\n    _setupRole(MINTER_ROLE, _msgSender());\n    _setupRole(PAUSER_ROLE, _msgSender());\n  }\n\n  /**\n   * @dev Creates `amount` new tokens for `to`.\n   *\n   * See {ERC20-_mint}.\n   *\n   * Requirements:\n   *\n   * - the caller must have the `MINTER_ROLE`.\n   */\n  function mint(address to, uint256 amount) public virtual {\n    require(hasRole(MINTER_ROLE, _msgSender()), \"Mint: must have minter role to mint\");\n    _mint(to, amount);\n  }\n\n  /**\n   * @dev Pauses all token transfers.\n   *\n   * See {ERC20Pausable} and {Pausable-_pause}.\n   *\n   * Requirements:\n   *\n   * - the caller must have the `PAUSER_ROLE`.\n   */\n  function pause() public virtual {\n    require(hasRole(PAUSER_ROLE, _msgSender()), \"Pause: must have pauser role to pause\");\n    _pause();\n  }\n\n  /**\n   * @dev Unpauses all token transfers.\n   *\n   * See {ERC20Pausable} and {Pausable-_unpause}.\n   *\n   * Requirements:\n   *\n   * - the caller must have the `PAUSER_ROLE`.\n   */\n  function unpause() public virtual {\n    require(hasRole(PAUSER_ROLE, _msgSender()), \"UnPause: must have pauser role to unpause\");\n    _unpause();\n  }\n\n  /**\n   * @dev Unpauses all token transfers.\n   *\n   * See {ERC20Pausable} and {Pausable-_unpause}.\n   *\n   * Requirements:\n   *\n   * - the caller must have the `PAUSER_ROLE`.\n   */\n  function _beforeTokenTransfer(address from, address to, uint256 amount) internal virtual override(ERC20, ERC20Pausable) {\n    if (to != address(0) && from != address(0)) {\n      uint txFee = amount * getTransactionFee() / 10000;\n      uint amountBurn = txFee * getBurnFee() / 10000;\n      uint amountDevs = txFee * getDevsFee() / 10000;\n      uint amountHolder = txFee * getHolderFee() / 10000;\n      _burn(from, amountBurn);\n      _transferToDevs(from, amountDevs);\n      _transferToHolder(from, amountHolder);\n      amount -= txFee;\n      super._beforeTokenTransfer(from, to, amount);\n    }\n  }\n\n}\n",
  "sourcePath": "/Users/guillermo/Projects/crypto/tuviella-contract/contracts/token/TuviellaToken.sol",
  "compiler": {
    "name": "solc",
    "version": "0.8.4+commit.c7e474f2.Emscripten.clang"
  },
  "schemaVersion": "3.4.1",
  "updatedAt": "2021-07-22T18:19:52.818Z",
  "networkType": "ethereum",
  "devdoc": {
    "kind": "dev",
    "methods": {
      "allowance(address,address)": {
        "details": "See {IERC20-allowance}."
      },
      "approve(address,uint256)": {
        "details": "See {IERC20-approve}. Requirements: - `spender` cannot be the zero address."
      },
      "balanceOf(address)": {
        "details": "See {IERC20-balanceOf}."
      },
      "burn(uint256)": {
        "details": "Destroys `amount` tokens from the caller. See {ERC20-_burn}."
      },
      "burnFrom(address,uint256)": {
        "details": "Destroys `amount` tokens from `account`, deducting from the caller's allowance. See {ERC20-_burn} and {ERC20-allowance}. Requirements: - the caller must have allowance for ``accounts``'s tokens of at least `amount`."
      },
      "constructor": {
        "details": "Grants `DEFAULT_ADMIN_ROLE`, `MINTER_ROLE` and `PAUSER_ROLE` to the account that deploys the contract and mint 1million tokens to master chef address See {ERC20-constructor}."
      },
      "decimals()": {
        "details": "Returns the number of decimals used to get its user representation. For example, if `decimals` equals `2`, a balance of `505` tokens should be displayed to a user as `5,05` (`505 / 10 ** 2`). Tokens usually opt for a value of 18, imitating the relationship between Ether and Wei. This is the value {ERC20} uses, unless this function is overridden; NOTE: This information is only used for _display_ purposes: it in no way affects any of the arithmetic of the contract, including {IERC20-balanceOf} and {IERC20-transfer}."
      },
      "decreaseAllowance(address,uint256)": {
        "details": "Atomically decreases the allowance granted to `spender` by the caller. This is an alternative to {approve} that can be used as a mitigation for problems described in {IERC20-approve}. Emits an {Approval} event indicating the updated allowance. Requirements: - `spender` cannot be the zero address. - `spender` must have allowance for the caller of at least `subtractedValue`."
      },
      "getBurnFee()": {
        "details": "Get burn fee for every transaction"
      },
      "getDevsFee()": {
        "details": "Get devs fee for every transaction"
      },
      "getHolderFee()": {
        "details": "Get holder fee for every transaction"
      },
      "getRoleAdmin(bytes32)": {
        "details": "Returns the admin role that controls `role`. See {grantRole} and {revokeRole}. To change a role's admin, use {_setRoleAdmin}."
      },
      "getRoleMember(bytes32,uint256)": {
        "details": "Returns one of the accounts that have `role`. `index` must be a value between 0 and {getRoleMemberCount}, non-inclusive. Role bearers are not sorted in any particular way, and their ordering may change at any point. WARNING: When using {getRoleMember} and {getRoleMemberCount}, make sure you perform all queries on the same block. See the following https://forum.openzeppelin.com/t/iterating-over-elements-on-enumerableset-in-openzeppelin-contracts/2296[forum post] for more information."
      },
      "getRoleMemberCount(bytes32)": {
        "details": "Returns the number of accounts that have `role`. Can be used together with {getRoleMember} to enumerate all bearers of a role."
      },
      "getTransactionFee()": {
        "details": "Get transaction fee to pay for every transaction"
      },
      "grantRole(bytes32,address)": {
        "details": "Overload {grantRole} to track enumerable memberships"
      },
      "hasRole(bytes32,address)": {
        "details": "Returns `true` if `account` has been granted `role`."
      },
      "increaseAllowance(address,uint256)": {
        "details": "Atomically increases the allowance granted to `spender` by the caller. This is an alternative to {approve} that can be used as a mitigation for problems described in {IERC20-approve}. Emits an {Approval} event indicating the updated allowance. Requirements: - `spender` cannot be the zero address."
      },
      "mint(address,uint256)": {
        "details": "Creates `amount` new tokens for `to`. See {ERC20-_mint}. Requirements: - the caller must have the `MINTER_ROLE`."
      },
      "name()": {
        "details": "Returns the name of the token."
      },
      "pause()": {
        "details": "Pauses all token transfers. See {ERC20Pausable} and {Pausable-_pause}. Requirements: - the caller must have the `PAUSER_ROLE`."
      },
      "paused()": {
        "details": "Returns true if the contract is paused, and false otherwise."
      },
      "renounceRole(bytes32,address)": {
        "details": "Overload {renounceRole} to track enumerable memberships"
      },
      "revokeRole(bytes32,address)": {
        "details": "Overload {revokeRole} to track enumerable memberships"
      },
      "setBurnFee(uint16)": {
        "details": "Set burn fee for every transaction"
      },
      "setDevsFee(uint16)": {
        "details": "Set devs fee for every transaction"
      },
      "setHolderFee(uint16)": {
        "details": "Set holder fee for every transaction"
      },
      "setTransactionFee(uint16)": {
        "details": "Set transaction fee to pay for every transaction"
      },
      "supportsInterface(bytes4)": {
        "details": "See {IERC165-supportsInterface}."
      },
      "symbol()": {
        "details": "Returns the symbol of the token, usually a shorter version of the name."
      },
      "totalSupply()": {
        "details": "See {IERC20-totalSupply}."
      },
      "transfer(address,uint256)": {
        "details": "See {IERC20-transfer}. Requirements: - `recipient` cannot be the zero address. - the caller must have a balance of at least `amount`."
      },
      "transferFrom(address,address,uint256)": {
        "details": "See {IERC20-transferFrom}. Emits an {Approval} event indicating the updated allowance. This is not required by the EIP. See the note at the beginning of {ERC20}. Requirements: - `sender` and `recipient` cannot be the zero address. - `sender` must have a balance of at least `amount`. - the caller must have allowance for ``sender``'s tokens of at least `amount`."
      },
      "unpause()": {
        "details": "Unpauses all token transfers. See {ERC20Pausable} and {Pausable-_unpause}. Requirements: - the caller must have the `PAUSER_ROLE`."
      }
    },
    "version": 1
  },
  "userdoc": {
    "kind": "user",
    "methods": {},
    "version": 1
  }
}